{
  "contractName": "BlockRewardHbbft",
  "abi": [
    {
      "anonymous": false,
      "inputs": [
        {
          "indexed": false,
          "internalType": "uint256",
          "name": "rewards",
          "type": "uint256"
        }
      ],
      "name": "CoinsRewarded",
      "type": "event"
    },
    {
      "payable": true,
      "stateMutability": "payable",
      "type": "fallback"
    },
    {
      "constant": true,
      "inputs": [],
      "name": "REWARD_PERCENT_MULTIPLIER",
      "outputs": [
        {
          "internalType": "uint256",
          "name": "",
          "type": "uint256"
        }
      ],
      "payable": false,
      "stateMutability": "view",
      "type": "function"
    },
    {
      "constant": true,
      "inputs": [],
      "name": "VALIDATOR_MIN_REWARD_PERCENT",
      "outputs": [
        {
          "internalType": "uint256",
          "name": "",
          "type": "uint256"
        }
      ],
      "payable": false,
      "stateMutability": "view",
      "type": "function"
    },
    {
      "constant": false,
      "inputs": [],
      "name": "addToDeltaPot",
      "outputs": [],
      "payable": true,
      "stateMutability": "payable",
      "type": "function"
    },
    {
      "constant": false,
      "inputs": [],
      "name": "addToReinsertPot",
      "outputs": [],
      "payable": true,
      "stateMutability": "payable",
      "type": "function"
    },
    {
      "constant": true,
      "inputs": [
        {
          "internalType": "uint256",
          "name": "_stakingEpoch",
          "type": "uint256"
        },
        {
          "internalType": "uint256",
          "name": "_delegatorStaked",
          "type": "uint256"
        },
        {
          "internalType": "uint256",
          "name": "_validatorStaked",
          "type": "uint256"
        },
        {
          "internalType": "uint256",
          "name": "_totalStaked",
          "type": "uint256"
        },
        {
          "internalType": "uint256",
          "name": "_poolReward",
          "type": "uint256"
        }
      ],
      "name": "delegatorShare",
      "outputs": [
        {
          "internalType": "uint256",
          "name": "",
          "type": "uint256"
        }
      ],
      "payable": false,
      "stateMutability": "view",
      "type": "function"
    },
    {
      "constant": true,
      "inputs": [],
      "name": "deltaPot",
      "outputs": [
        {
          "internalType": "uint256",
          "name": "",
          "type": "uint256"
        }
      ],
      "payable": false,
      "stateMutability": "view",
      "type": "function"
    },
    {
      "constant": true,
      "inputs": [],
      "name": "deltaPotPayoutFraction",
      "outputs": [
        {
          "internalType": "uint256",
          "name": "",
          "type": "uint256"
        }
      ],
      "payable": false,
      "stateMutability": "view",
      "type": "function"
    },
    {
      "constant": true,
      "inputs": [
        {
          "internalType": "uint256",
          "name": "",
          "type": "uint256"
        },
        {
          "internalType": "address",
          "name": "",
          "type": "address"
        }
      ],
      "name": "epochPoolNativeReward",
      "outputs": [
        {
          "internalType": "uint256",
          "name": "",
          "type": "uint256"
        }
      ],
      "payable": false,
      "stateMutability": "view",
      "type": "function"
    },
    {
      "constant": true,
      "inputs": [
        {
          "internalType": "address",
          "name": "_miningAddress",
          "type": "address"
        }
      ],
      "name": "epochsPoolGotRewardFor",
      "outputs": [
        {
          "internalType": "uint256[]",
          "name": "",
          "type": "uint256[]"
        }
      ],
      "payable": false,
      "stateMutability": "view",
      "type": "function"
    },
    {
      "constant": true,
      "inputs": [
        {
          "internalType": "address",
          "name": "_poolStakingAddress",
          "type": "address"
        },
        {
          "internalType": "address",
          "name": "_staker",
          "type": "address"
        }
      ],
      "name": "epochsToClaimRewardFrom",
      "outputs": [
        {
          "internalType": "uint256[]",
          "name": "epochsToClaimFrom",
          "type": "uint256[]"
        }
      ],
      "payable": false,
      "stateMutability": "view",
      "type": "function"
    },
    {
      "constant": true,
      "inputs": [
        {
          "internalType": "uint256",
          "name": "_delegatorStake",
          "type": "uint256"
        },
        {
          "internalType": "uint256",
          "name": "_stakingEpoch",
          "type": "uint256"
        },
        {
          "internalType": "address",
          "name": "_poolMiningAddress",
          "type": "address"
        }
      ],
      "name": "getDelegatorReward",
      "outputs": [
        {
          "internalType": "uint256",
          "name": "nativeReward",
          "type": "uint256"
        }
      ],
      "payable": false,
      "stateMutability": "view",
      "type": "function"
    },
    {
      "constant": true,
      "inputs": [
        {
          "internalType": "uint256",
          "name": "_stakingEpoch",
          "type": "uint256"
        },
        {
          "internalType": "address",
          "name": "_poolMiningAddress",
          "type": "address"
        }
      ],
      "name": "getValidatorReward",
      "outputs": [
        {
          "internalType": "uint256",
          "name": "nativeReward",
          "type": "uint256"
        }
      ],
      "payable": false,
      "stateMutability": "view",
      "type": "function"
    },
    {
      "constant": true,
      "inputs": [],
      "name": "governancePotAddress",
      "outputs": [
        {
          "internalType": "address payable",
          "name": "",
          "type": "address"
        }
      ],
      "payable": false,
      "stateMutability": "view",
      "type": "function"
    },
    {
      "constant": true,
      "inputs": [],
      "name": "governancePotShareDenominator",
      "outputs": [
        {
          "internalType": "uint256",
          "name": "",
          "type": "uint256"
        }
      ],
      "payable": false,
      "stateMutability": "view",
      "type": "function"
    },
    {
      "constant": true,
      "inputs": [],
      "name": "governancePotShareNominator",
      "outputs": [
        {
          "internalType": "uint256",
          "name": "",
          "type": "uint256"
        }
      ],
      "payable": false,
      "stateMutability": "view",
      "type": "function"
    },
    {
      "constant": false,
      "inputs": [
        {
          "internalType": "address",
          "name": "_validatorSet",
          "type": "address"
        }
      ],
      "name": "initialize",
      "outputs": [],
      "payable": false,
      "stateMutability": "nonpayable",
      "type": "function"
    },
    {
      "constant": true,
      "inputs": [],
      "name": "isInitialized",
      "outputs": [
        {
          "internalType": "bool",
          "name": "",
          "type": "bool"
        }
      ],
      "payable": false,
      "stateMutability": "view",
      "type": "function"
    },
    {
      "constant": true,
      "inputs": [],
      "name": "nativeRewardUndistributed",
      "outputs": [
        {
          "internalType": "uint256",
          "name": "",
          "type": "uint256"
        }
      ],
      "payable": false,
      "stateMutability": "view",
      "type": "function"
    },
    {
      "constant": true,
      "inputs": [],
      "name": "reinsertPot",
      "outputs": [
        {
          "internalType": "uint256",
          "name": "",
          "type": "uint256"
        }
      ],
      "payable": false,
      "stateMutability": "view",
      "type": "function"
    },
    {
      "constant": true,
      "inputs": [],
      "name": "reinsertPotPayoutFraction",
      "outputs": [
        {
          "internalType": "uint256",
          "name": "",
          "type": "uint256"
        }
      ],
      "payable": false,
      "stateMutability": "view",
      "type": "function"
    },
    {
      "constant": false,
      "inputs": [
        {
          "internalType": "bool",
          "name": "_isEpochEndBlock",
          "type": "bool"
        }
      ],
      "name": "reward",
      "outputs": [
        {
          "internalType": "uint256",
          "name": "rewardsNative",
          "type": "uint256"
        }
      ],
      "payable": false,
      "stateMutability": "nonpayable",
      "type": "function"
    },
    {
      "constant": false,
      "inputs": [
        {
          "internalType": "uint256",
          "name": "_value",
          "type": "uint256"
        }
      ],
      "name": "setReinsertPotPayoutFraction",
      "outputs": [],
      "payable": false,
      "stateMutability": "nonpayable",
      "type": "function"
    },
    {
      "constant": false,
      "inputs": [
        {
          "internalType": "uint256",
          "name": "_value",
          "type": "uint256"
        }
      ],
      "name": "setdeltaPotPayoutFraction",
      "outputs": [],
      "payable": false,
      "stateMutability": "nonpayable",
      "type": "function"
    },
    {
      "constant": true,
      "inputs": [
        {
          "internalType": "uint256",
          "name": "",
          "type": "uint256"
        },
        {
          "internalType": "address",
          "name": "",
          "type": "address"
        }
      ],
      "name": "snapshotPoolTotalStakeAmount",
      "outputs": [
        {
          "internalType": "uint256",
          "name": "",
          "type": "uint256"
        }
      ],
      "payable": false,
      "stateMutability": "view",
      "type": "function"
    },
    {
      "constant": true,
      "inputs": [
        {
          "internalType": "uint256",
          "name": "",
          "type": "uint256"
        },
        {
          "internalType": "address",
          "name": "",
          "type": "address"
        }
      ],
      "name": "snapshotPoolValidatorStakeAmount",
      "outputs": [
        {
          "internalType": "uint256",
          "name": "",
          "type": "uint256"
        }
      ],
      "payable": false,
      "stateMutability": "view",
      "type": "function"
    },
    {
      "constant": false,
      "inputs": [
        {
          "internalType": "uint256",
          "name": "_nativeCoins",
          "type": "uint256"
        },
        {
          "internalType": "address payable",
          "name": "_to",
          "type": "address"
        }
      ],
      "name": "transferReward",
      "outputs": [],
      "payable": false,
      "stateMutability": "nonpayable",
      "type": "function"
    },
    {
      "constant": true,
      "inputs": [
        {
          "internalType": "uint256",
          "name": "",
          "type": "uint256"
        }
      ],
      "name": "validatorMinRewardPercent",
      "outputs": [
        {
          "internalType": "uint256",
          "name": "",
          "type": "uint256"
        }
      ],
      "payable": false,
      "stateMutability": "view",
      "type": "function"
    },
    {
      "constant": true,
      "inputs": [
        {
          "internalType": "address",
          "name": "_stakingAddress",
          "type": "address"
        }
      ],
      "name": "validatorRewardPercent",
      "outputs": [
        {
          "internalType": "uint256",
          "name": "",
          "type": "uint256"
        }
      ],
      "payable": false,
      "stateMutability": "view",
      "type": "function"
    },
    {
      "constant": true,
      "inputs": [],
      "name": "validatorSetContract",
      "outputs": [
        {
          "internalType": "contract IValidatorSetHbbft",
          "name": "",
          "type": "address"
        }
      ],
      "payable": false,
      "stateMutability": "view",
      "type": "function"
    },
    {
      "constant": true,
      "inputs": [
        {
          "internalType": "uint256",
          "name": "_stakingEpoch",
          "type": "uint256"
        },
        {
          "internalType": "uint256",
          "name": "_validatorStaked",
          "type": "uint256"
        },
        {
          "internalType": "uint256",
          "name": "_totalStaked",
          "type": "uint256"
        },
        {
          "internalType": "uint256",
          "name": "_poolReward",
          "type": "uint256"
        }
      ],
      "name": "validatorShare",
      "outputs": [
        {
          "internalType": "uint256",
          "name": "",
          "type": "uint256"
        }
      ],
      "payable": false,
      "stateMutability": "view",
      "type": "function"
    }
  ],
  "bytecode": "0x6080604052603c60075534801561001557600080fd5b506124d9806100256000396000f3fe6080604052600436106101cc5760003560e01c80638737929a116100f7578063c4d66de811610095578063dd03f5b911610064578063dd03f5b914610632578063dfc8bf4e14610665578063e1ab96d81461067a578063e58edc38146106b9576101cc565b8063c4d66de814610581578063c6cc9333146105b4578063cb68d127146105de578063cdf7a09014610608576101cc565b8063adc481a7116100d1578063adc481a714610523578063af18253514610538578063b10c754814610540578063ba2d759714610548576101cc565b80638737929a146104bd57806391b57986146104f95780639a64ca2c1461050e576101cc565b80633c2c943c1161016f5780635c57a8011161013e5780635c57a801146104185780635fba554e1461042d578063728345db1461046f57806373f12958146104a8576101cc565b80633c2c943c1461030a578063469507c61461031f5780634de6c0361461035a578063527d8bc4146103e5576101cc565b80631345b8a5116101ab5780631345b8a51461023e57806319cee8971461027757806333d69921146102a8578063392e53cd146102e1576101cc565b8062067a84146101d65780630c0d4173146102145780631274fa0914610229575b6008805434019055005b3480156101e257600080fd5b50610202600480360360208110156101f957600080fd5b503515156106ce565b60408051918252519081900360200190f35b34801561022057600080fd5b50610202610da2565b34801561023557600080fd5b50610202610da7565b34801561024a57600080fd5b506102026004803603604081101561026157600080fd5b50803590602001356001600160a01b0316610dad565b34801561028357600080fd5b5061028c610dca565b604080516001600160a01b039092168252519081900360200190f35b3480156102b457600080fd5b50610202600480360360408110156102cb57600080fd5b50803590602001356001600160a01b0316610dd9565b3480156102ed57600080fd5b506102f6610df6565b604080519115158252519081900360200190f35b34801561031657600080fd5b50610202610e07565b34801561032b57600080fd5b506103586004803603604081101561034257600080fd5b50803590602001356001600160a01b0316610e0d565b005b34801561036657600080fd5b506103956004803603604081101561037d57600080fd5b506001600160a01b0381358116916020013516610ea9565b60408051602080825283518183015283519192839290830191858101910280838360005b838110156103d15781810151838201526020016103b9565b505050509050019250505060405180910390f35b3480156103f157600080fd5b506102026004803603602081101561040857600080fd5b50356001600160a01b03166112c9565b34801561042457600080fd5b50610202611621565b34801561043957600080fd5b50610202600480360360a081101561045057600080fd5b5080359060208101359060408101359060608101359060800135611627565b34801561047b57600080fd5b506102026004803603604081101561049257600080fd5b50803590602001356001600160a01b03166116b9565b3480156104b457600080fd5b506102026116d6565b3480156104c957600080fd5b50610202600480360360808110156104e057600080fd5b50803590602081013590604081013590606001356116dc565b34801561050557600080fd5b50610202611758565b34801561051a57600080fd5b5061020261175e565b34801561052f57600080fd5b50610202611764565b61035861176a565b610358611774565b34801561055457600080fd5b506102026004803603604081101561056b57600080fd5b50803590602001356001600160a01b031661177e565b34801561058d57600080fd5b50610358600480360360208110156105a457600080fd5b50356001600160a01b03166117da565b3480156105c057600080fd5b50610358600480360360208110156105d757600080fd5b5035611995565b3480156105ea57600080fd5b506103586004803603602081101561060157600080fd5b5035611a43565b34801561061457600080fd5b506102026004803603602081101561062b57600080fd5b5035611af1565b34801561063e57600080fd5b506103956004803603602081101561065557600080fd5b50356001600160a01b0316611b03565b34801561067157600080fd5b5061028c611b6d565b34801561068657600080fd5b506102026004803603606081101561069d57600080fd5b50803590602081013590604001356001600160a01b0316611b7c565b3480156106c557600080fd5b50610202611be4565b60006002600160a01b0333146106e357600080fd5b600a5460408051633ba6481760e21b815290516000926001600160a01b03169163ee99205c916004808301926020929190829003018186803b15801561072857600080fd5b505afa15801561073c573d6000803e3d6000fd5b505050506040513d602081101561075257600080fd5b505190508215610b20576000816001600160a01b031663794c0c686040518163ffffffff1660e01b815260040160206040518083038186803b15801561079757600080fd5b505afa1580156107ab573d6000803e3d6000fd5b505050506040513d60208110156107c157600080fd5b50519050600081156107d9576107d682611beb565b90505b6000808360010190506060600a60009054906101000a90046001600160a01b03166001600160a01b031663eebc7a396040518163ffffffff1660e01b815260040160006040518083038186803b15801561083257600080fd5b505afa158015610846573d6000803e3d6000fd5b505050506040513d6000823e601f3d908101601f19168201604052602081101561086f57600080fd5b8101908080516040519392919084600160201b82111561088e57600080fd5b9083019060208201858111156108a357600080fd5b82518660208202830111600160201b821117156108bf57600080fd5b82525081516020918201928201910280838360005b838110156108ec5781810151838201526020016108d4565b505050509050016040525050509050600092505b805183101561093257610927868383868151811061091a57fe5b60200260200101516120f8565b600190920191610900565b600a60009054906101000a90046001600160a01b03166001600160a01b031663b7ab4db56040518163ffffffff1660e01b815260040160006040518083038186803b15801561098057600080fd5b505afa158015610994573d6000803e3d6000fd5b505050506040513d6000823e601f3d908101601f1916820160405260208110156109bd57600080fd5b8101908080516040519392919084600160201b8211156109dc57600080fd5b9083019060208201858111156109f157600080fd5b82518660208202830111600160201b82111715610a0d57600080fd5b82525081516020918201928201910280838360005b83811015610a3a578181015183820152602001610a22565b505050509050016040525050509050600092505b8051831015610a7357610a68868383868151811061091a57fe5b600190920191610a4e565b600082815260056020526040808220601e9055600a548151637528621160e01b815291516001600160a01b03909116926375286211926004808201939182900301818387803b158015610ac557600080fd5b505af1158015610ad9573d6000803e3d6000fd5b50506040805187815290517ff32b9551d3414b67f8e66e20ac15e62694b9d1230abb2e2e48f9dc2e1964c4299350908190036020019150a160009650505050505050610d9d565b6000816001600160a01b031663c6912cc06040518163ffffffff1660e01b815260040160206040518083038186803b158015610b5b57600080fd5b505afa158015610b6f573d6000803e3d6000fd5b505050506040513d6020811015610b8557600080fd5b5051600a5460408051636c9230db60e01b815290519293506000926001600160a01b0390921691636c9230db91600480820192602092909190829003018186803b158015610bd257600080fd5b505afa158015610be6573d6000803e3d6000fd5b505050506040513d6020811015610bfc57600080fd5b505190506000828210801590610d275750600a60009054906101000a90046001600160a01b03166001600160a01b031663eebc7a396040518163ffffffff1660e01b815260040160006040518083038186803b158015610c5b57600080fd5b505afa158015610c6f573d6000803e3d6000fd5b505050506040513d6000823e601f3d908101601f191682016040526020811015610c9857600080fd5b8101908080516040519392919084600160201b821115610cb757600080fd5b908301906020820185811115610ccc57600080fd5b82518660208202830111600160201b82111715610ce857600080fd5b82525081516020918201928201910280838360005b83811015610d15578181015183820152602001610cfd565b50505050905001604052505050516000145b90508015610d9857600a60009054906101000a90046001600160a01b03166001600160a01b0316635ccee1de6040518163ffffffff1660e01b8152600401600060405180830381600087803b158015610d7f57600080fd5b505af1158015610d93573d6000803e3d6000fd5b505050505b505050505b919050565b601e81565b60095481565b600460209081526000928352604080842090915290825290205481565b600b546001600160a01b031681565b600160209081526000928352604080842090915290825290205481565b600a546001600160a01b0316151590565b600d5481565b600a60009054906101000a90046001600160a01b03166001600160a01b031663ee99205c6040518163ffffffff1660e01b815260040160206040518083038186803b158015610e5b57600080fd5b505afa158015610e6f573d6000803e3d6000fd5b505050506040513d6020811015610e8557600080fd5b50516001600160a01b03163314610e9b57600080fd5b610ea582826122ef565b5050565b600a54604080516253517560e01b81526001600160a01b0385811660048301529151606093600093169162535175916024808301926020929190829003018186803b158015610ef757600080fd5b505afa158015610f0b573d6000803e3d6000fd5b505050506040513d6020811015610f2157600080fd5b5051600a5460408051633ba6481760e21b815290519293506000926001600160a01b039092169163ee99205c91600480820192602092909190829003018186803b158015610f6e57600080fd5b505afa158015610f82573d6000803e3d6000fd5b505050506040513d6020811015610f9857600080fd5b505190506001600160a01b038581169085161480159060009081906110d95760408051632b2cdba160e11b81526001600160a01b038a811660048301528981166024830152915191861691635659b74291604480820192602092909190829003018186803b15801561100957600080fd5b505afa15801561101d573d6000803e3d6000fd5b505050506040513d602081101561103357600080fd5b505191508161105857505060408051600081526020810190915293506112c392505050565b6040805163bc9eb2c360e01b81526001600160a01b038a81166004830152898116602483015291519186169163bc9eb2c391604480820192602092909190829003018186803b1580156110aa57600080fd5b505afa1580156110be573d6000803e3d6000fd5b505050506040513d60208110156110d457600080fd5b505190505b6001600160a01b038516600090815260208181526040918290208054835181815281840281019093019093529190606090828015611121578160200160208202803883390190505b5090506000805b8381101561124b57600085828154811061113e57fe5b906000526020600020015490508815611179578781101561115f5750611243565b80871115801561116e57508615155b15611179575061124b565b896001600160a01b031663317277308f8f846040518463ffffffff1660e01b815260040180846001600160a01b03166001600160a01b03168152602001836001600160a01b03166001600160a01b03168152602001828152602001935050505060206040518083038186803b1580156111f157600080fd5b505afa158015611205573d6000803e3d6000fd5b505050506040513d602081101561121b57600080fd5b5051611241578084848060010195508151811061123457fe5b6020026020010181815250505b505b600101611128565b81604051908082528060200260200182016040528015611275578160200160208202803883390190505b509a50600090505b818110156112b85782818151811061129157fe5b60200260200101518b82815181106112a557fe5b602090810291909101015260010161127d565b505050505050505050505b92915050565b600080600a60009054906101000a90046001600160a01b03166001600160a01b031663ee99205c6040518163ffffffff1660e01b815260040160206040518083038186803b15801561131a57600080fd5b505afa15801561132e573d6000803e3d6000fd5b505050506040513d602081101561134457600080fd5b505160408051630f29818d60e31b815290519192506000916001600160a01b0384169163794c0c68916004808301926020929190829003018186803b15801561138c57600080fd5b505afa1580156113a0573d6000803e3d6000fd5b505050506040513d60208110156113b657600080fd5b50519050806113ca57600092505050610d9d565b600a54604080516253517560e01b81526001600160a01b038781166004830152915160009392909216916253517591602480820192602092909190829003018186803b15801561141957600080fd5b505afa15801561142d573d6000803e3d6000fd5b505050506040513d602081101561144357600080fd5b5051600a546040805163a0d16cad60e01b81526001600160a01b038085166004830152915193945091169163a0d16cad91602480820192602092909190829003018186803b15801561149457600080fd5b505afa1580156114a8573d6000803e3d6000fd5b505050506040513d60208110156114be57600080fd5b5051156115165760008281526004602090815260408083206001600160a01b038516808552908352818420548685526003845282852091855292529091205461150c918491620f42406116dc565b9350505050610d9d565b6040805163a697ecff60e01b81526001600160a01b0387811660048301819052602483015291516116189285929087169163a697ecff91604480820192602092909190829003018186803b15801561156d57600080fd5b505afa158015611581573d6000803e3d6000fd5b505050506040513d602081101561159757600080fd5b505160408051632933f0eb60e11b81526001600160a01b038a81166004830152915191881691635267e1d691602480820192602092909190829003018186803b1580156115e357600080fd5b505afa1580156115f7573d6000803e3d6000fd5b505050506040513d602081101561160d57600080fd5b5051620f42406116dc565b95945050505050565b60065481565b6000841580611634575083155b8061163d575082155b1561164a57506000611618565b6000808585101561165c576000611660565b8585035b60008981526005602052604090205490915080820260648290038802111561169557858886028161168d57fe5b0492506116ac565b816064028160640389870202816116a857fe5b0492505b5090979650505050505050565b600360209081526000928352604080842090915290825290205481565b60085481565b60008315806116e9575082155b156116f657506000611750565b6000808585101561170857600061170c565b8585035b60008881526005602052604090205490915080820260648290038802111561174157858786028161173957fe5b04925061174a565b60648582020492505b50909150505b949350505050565b600c5481565b60075481565b60025481565b6008805434019055565b6006805434019055565b60008281526004602090815260408083206001600160a01b0385168085529083528184205486855260038452828520828652845282852054878652600185528386209286529190935290832054611618908690849084906116dc565b6117e2612366565b6001600160a01b0316336001600160a01b031614806118195750611804612366565b6001600160a01b0316326001600160a01b0316145b806118325750611827612366565b6001600160a01b0316155b8061183b575043155b6118765760405162461bcd60e51b81526004018080602001828103825260308152602001806123ee6030913960400191505060405180910390fd5b61187e610df6565b156118ba5760405162461bcd60e51b81526004018080602001828103825260248152602001806123ca6024913960400191505060405180910390fd5b6001600160a01b038116611915576040805162461bcd60e51b815260206004820152601a60248201527f56616c696461746f72536574206d757374206e6f742062652030000000000000604482015290519081900360640190fd5b600a80546001600160a01b039092166001600160a01b0319928316178155600080526005602052601e7f05b8ccbb9d4d8fb16ea74ce3c29a41f1b461fbdaff4714a0d9a8eb05499746bc556117706007819055600955600b805490921673da0da0da0da0da0da0da00da0da0da0da0da0da0179091556001600c55600d55565b61199d612366565b6001600160a01b0316336001600160a01b0316146119ec5760405162461bcd60e51b815260040180806020018281038252602b81526020018061247a602b913960400191505060405180910390fd5b80611a3e576040805162461bcd60e51b815260206004820152601d60248201527f5061796f7574206672616374696f6e206d757374206e6f742062652030000000604482015290519081900360640190fd5b600955565b611a4b612366565b6001600160a01b0316336001600160a01b031614611a9a5760405162461bcd60e51b815260040180806020018281038252602b81526020018061247a602b913960400191505060405180910390fd5b80611aec576040805162461bcd60e51b815260206004820152601d60248201527f5061796f7574206672616374696f6e206d757374206e6f742062652030000000604482015290519081900360640190fd5b600755565b60056020526000908152604090205481565b6001600160a01b03811660009081526020818152604091829020805483518184028101840190945280845260609392830182828015611b6157602002820191906000526020600020905b815481526020019060010190808311611b4d575b50505050509050919050565b600a546001600160a01b031681565b60008281526004602090815260408083206001600160a01b0385168085529083528184205486855260038452828520828652845282852054878652600185528386209286529190935290832054611bda908690889085908590611627565b9695505050505050565b620f424081565b60006060600a60009054906101000a90046001600160a01b03166001600160a01b031663b7ab4db56040518163ffffffff1660e01b815260040160006040518083038186803b158015611c3d57600080fd5b505afa158015611c51573d6000803e3d6000fd5b505050506040513d6000823e601f3d908101601f191682016040526020811015611c7a57600080fd5b8101908080516040519392919084600160201b821115611c9957600080fd5b908301906020820185811115611cae57600080fd5b82518660208202830111600160201b82111715611cca57600080fd5b82525081516020918201928201910280838360005b83811015611cf7578181015183820152602001611cdf565b505050509190910160405250508251929350505080611d54576040805162461bcd60e51b8152602060048201526014602482015273115b5c1d1e4815985b1a59185d1bdc881b1a5cdd60621b604482015290519081900360640190fd5b600060075460065481611d6357fe5b04905080600660008282540392505081905550600060095460085481611d8557fe5b60088054929091049182900390556002549091508282010180611db057600095505050505050610d9d565b6000600d54600c54830281611dc157fe5b600b546040519290910492506001600160a01b03169082156108fc029083906000818181858888f19350505050158015611dff573d6000803e3d6000fd5b5060008183039050606086604051908082528060200260200182016040528015611e33578160200160208202803883390190505b5090506000805b8951811015611f6957600a548a516001600160a01b039091169063a92252ae908c9084908110611e6657fe5b60200260200101516040518263ffffffff1660e01b815260040180826001600160a01b03166001600160a01b0316815260200191505060206040518083038186803b158015611eb457600080fd5b505afa158015611ec8573d6000803e3d6000fd5b505050506040513d6020811015611ede57600080fd5b5051158015611f375750600460008d815260200190815260200160002060008b8381518110611f0957fe5b60200260200101516001600160a01b03166001600160a01b0316815260200190815260200160002054600014155b15611f61576001838281518110611f4a57fe5b911515602092830291909101909101526001909101905b600101611e3a565b5080611f815760009950505050505050505050610d9d565b6000818481611f8c57fe5b04905080156120e35760005b898110156120e157838181518110611fac57fe5b6020026020010151156120d957600160008e815260200190815260200160002060008c8381518110611fda57fe5b60200260200101516001600160a01b03166001600160a01b03168152602001908152602001600020546000146120415760405162461bcd60e51b815260040180806020018281038252605c81526020018061241e605c913960600191505060405180910390fd5b60008d81526001602052604081208c518492908e908590811061206057fe5b60200260200101516001600160a01b03166001600160a01b031681526020019081526020016000208190555081860195506000808c83815181106120a057fe5b6020908102919091018101516001600160a01b031682528181019290925260400160009081208054600181018255908252919020018d90555b600101611f98565b505b50505050908190036002559695505050505050565b60008281526003602090815260408083206001600160a01b038516845290915290205415612125576122ea565b600a54604080516307b9342f60e21b81526001600160a01b03848116600483015291516000939290921691631ee4d0bc91602480820192602092909190829003018186803b15801561217657600080fd5b505afa15801561218a573d6000803e3d6000fd5b505050506040513d60208110156121a057600080fd5b505160408051632933f0eb60e11b81526001600160a01b038084166004830152915192935060009291871691635267e1d691602480820192602092909190829003018186803b1580156121f257600080fd5b505afa158015612206573d6000803e3d6000fd5b505050506040513d602081101561221c57600080fd5b505190508061222c5750506122ea565b60008481526003602090815260408083206001600160a01b03808816855290835292819020849055805163a697ecff60e01b815285841660048201819052602482015290519288169263a697ecff92604480840193919291829003018186803b15801561229857600080fd5b505afa1580156122ac573d6000803e3d6000fd5b505050506040513d60208110156122c257600080fd5b505160008581526004602090815260408083206001600160a01b038816845290915290205550505b505050565b811580159061232057506040516001600160a01b0382169083156108fc029084906000818181858888f19350505050155b15610ea55781816040516123339061238b565b6001600160a01b039091168152604051908190036020019082f08015801561235f573d6000803e3d6000fd5b5050505050565b7fb53127684a568b3173ae13b9f8a6016e243e63b6e8ee1178d6a717850b5d61035490565b6032806123988339019056fe60806040526040516032380380603283398181016040526020811015602357600080fd5b50516001600160a01b038116fffe696e697469616c697a6174696f6e2063616e206f6e6c7920626520646f6e65206f6e6365496e697469616c697a6174696f6e206f6e6c79206f6e2067656e6573697320626c6f636b206f722062792061646d696e63616e74206469737472696275746520726577617264733a20746865726520697320616c7265616479206120706f6f6c2072657761726420646566696e656420666f7220746869732065706f636820616e642076616c696461746f726f6e6c792061646d696e20697320616c6c6f77656420746f2063616c6c20746869732066756e6374696f6ea265627a7a72315820671cd4f4f7ed0b396e02901b11dd2516df2294434fc0b590562e9d8804b6c01664736f6c63430005100032",
  "source": "pragma solidity ^0.5.16;\n\nimport \"./base/BlockRewardHbbftCoins.sol\";\n\n\ncontract BlockRewardHbbft is BlockRewardHbbftCoins {}\n",
  "sourcePath": "/home/sn/dmd/dmd-meta/hbbft-posdao-contracts/contracts/BlockRewardHbbft.sol",
  "compiler": {
    "name": "solc",
    "version": "0.5.16+commit.9c3226ce.Emscripten.clang"
  },
  "schemaVersion": "3.0.8",
  "updatedAt": "2020-12-01T15:28:08.110Z",
  "devdoc": {
    "methods": {
      "delegatorShare(uint256,uint256,uint256,uint256,uint256)": {
        "details": "Calculates delegator's share for the given pool reward amount and the specified staking epoch. Used by the `StakingHbbft.claimReward` function.",
        "params": {
          "_delegatorStaked": "The amount staked by a delegator.",
          "_poolReward": "The value of pool reward.",
          "_stakingEpoch": "The number of staking epoch.",
          "_totalStaked": "The total amount staked by a validator and their delegators.",
          "_validatorStaked": "The amount staked by a validator."
        }
      },
      "epochsPoolGotRewardFor(address)": {
        "details": "Returns an array of epoch numbers for which the specified pool (mining address) got a non-zero reward."
      },
      "epochsToClaimRewardFrom(address,address)": {
        "details": "Returns an array of epoch numbers for which the specified staker can claim a reward from the specified pool by the `StakingHbbft.claimReward` function.",
        "params": {
          "_poolStakingAddress": "The pool staking address.",
          "_staker": "The staker's address (delegator or candidate/validator)."
        }
      },
      "getDelegatorReward(uint256,uint256,address)": {
        "details": "Returns the reward amount in native coins for some delegator with the specified stake amount placed into the specified pool before the specified staking epoch. Used by the `StakingHbbft.claimReward` function.",
        "params": {
          "_delegatorStake": "The stake amount placed by some delegator into the `_poolMiningAddress` pool.",
          "_poolMiningAddress": "The pool mining address.",
          "_stakingEpoch": "The serial number of staking epoch."
        },
        "return": "`uint256 nativeReward` - the reward amount in native coins."
      },
      "getValidatorReward(uint256,address)": {
        "details": "Returns the reward amount in native coins for the specified validator and for the specified staking epoch. Used by the `StakingHbbft.claimReward` function.",
        "params": {
          "_poolMiningAddress": "The pool mining address.",
          "_stakingEpoch": "The serial number of staking epoch."
        },
        "return": "`uint256 nativeReward` - the reward amount in native coins."
      },
      "initialize(address)": {
        "details": "Initializes the contract at network startup. Can only be called by the constructor of the `InitializerHbbft` contract or owner.",
        "params": {
          "_validatorSet": "The address of the `ValidatorSetHbbft` contract."
        }
      },
      "isInitialized()": {
        "details": "Returns a boolean flag indicating if the `initialize` function has been called."
      },
      "reward(bool)": {
        "details": "Called by the engine when producing and closing a block, see https://wiki.parity.io/Block-Reward-Contract.html. This function performs all of the automatic operations needed for accumulating block producing statistics, starting a new staking epoch, snapshotting staking amounts for the upcoming staking epoch, and rewards distributing at the end of a staking epoch.",
        "params": {
          "_isEpochEndBlock": "Indicates if this is the last block of the current epoch i.e. just before the pending validators are fiinalized."
        }
      },
      "transferReward(uint256,address)": {
        "details": "Called by the `StakingHbbft.claimReward` function to transfer native coins from the balance of the `BlockRewardHbbft` contract to the specified address as a reward.",
        "params": {
          "_nativeCoins": "The amount of native coins to transfer as a reward.",
          "_to": "The target address to transfer the amounts to."
        }
      },
      "validatorRewardPercent(address)": {
        "details": "Returns the reward coefficient for the specified validator. The given value should be divided by 10000 to get the value of the reward percent (since EVM doesn't support floating values). If the specified staking address is an address of a candidate that is not about to be a validator in the upcoming staking epoch the potentially possible reward coefficient is returned.",
        "params": {
          "_stakingAddress": "The staking address of the validator/candidate pool for which the getter must return the coefficient."
        }
      },
      "validatorShare(uint256,uint256,uint256,uint256)": {
        "details": "Calculates validator's share for the given pool reward amount and the specified staking epoch. Used by the `validatorRewardPercent` and `StakingHbbft.claimReward` functions.",
        "params": {
          "_poolReward": "The value of pool reward.",
          "_stakingEpoch": "The number of staking epoch.",
          "_totalStaked": "The total amount staked by a validator and their delegators.",
          "_validatorStaked": "The amount staked by a validator."
        }
      }
    }
  },
  "userdoc": {
    "methods": {}
  }
}