{
  "contractName": "InitializerHbbft",
  "abi": [
    {
      "inputs": [
        {
          "internalType": "address[]",
          "name": "_contracts",
          "type": "address[]"
        },
        {
          "internalType": "address",
          "name": "_owner",
          "type": "address"
        },
        {
          "internalType": "address[]",
          "name": "_miningAddresses",
          "type": "address[]"
        },
        {
          "internalType": "address[]",
          "name": "_stakingAddresses",
          "type": "address[]"
        },
        {
          "internalType": "uint256[5]",
          "name": "_stakingParams",
          "type": "uint256[5]"
        },
        {
          "internalType": "bytes32[]",
          "name": "_publicKeys",
          "type": "bytes32[]"
        },
        {
          "internalType": "bytes16[]",
          "name": "_internetAddresses",
          "type": "bytes16[]"
        },
        {
          "internalType": "bytes[]",
          "name": "_parts",
          "type": "bytes[]"
        },
        {
          "internalType": "bytes[][]",
          "name": "_acks",
          "type": "bytes[][]"
        }
      ],
      "payable": false,
      "stateMutability": "nonpayable",
      "type": "constructor"
    },
    {
      "constant": true,
      "inputs": [],
      "name": "data",
      "outputs": [
        {
          "internalType": "string",
          "name": "",
          "type": "string"
        }
      ],
      "payable": false,
      "stateMutability": "view",
      "type": "function"
    },
    {
      "constant": false,
      "inputs": [],
      "name": "destruct",
      "outputs": [],
      "payable": false,
      "stateMutability": "nonpayable",
      "type": "function"
    },
    {
      "constant": false,
      "inputs": [
        {
          "internalType": "string",
          "name": "_data",
          "type": "string"
        }
      ],
      "name": "setData",
      "outputs": [],
      "payable": false,
      "stateMutability": "nonpayable",
      "type": "function"
    }
  ],
  "bytecode": "0x60806040523480156200001157600080fd5b50604051620013a2380380620013a283398101604081905262000034916200082f565b886000815181106200004257fe5b60200260200101516001600160a01b031663515bbf2c8a6001815181106200006657fe5b60200260200101518b6002815181106200007c57fe5b60200260200101518c6003815181106200009257fe5b60200260200101518d600681518110620000a857fe5b60200260200101518c8c6040518763ffffffff1660e01b8152600401620000d59695949392919062000ce9565b600060405180830381600087803b158015620000f057600080fd5b505af115801562000105573d6000803e3d6000fd5b50505050886003815181106200011757fe5b60200260200101516001600160a01b0316634d73b02c8a6000815181106200013b57fe5b602002602001015188886000600581106200015257fe5b60209081029190910151908a01516040808c015160608d015160808e015192516001600160e01b031960e08a901b1681526200019a9796959493908e908e9060040162000db6565b600060405180830381600087803b158015620001b557600080fd5b505af1158015620001ca573d6000803e3d6000fd5b5050505088600681518110620001dc57fe5b60200260200101516001600160a01b031663be1689348a6000815181106200020057fe5b60200260200101518985856040518563ffffffff1660e01b81526004016200022c949392919062000d5c565b600060405180830381600087803b1580156200024757600080fd5b505af11580156200025c573d6000803e3d6000fd5b50505050886001815181106200026e57fe5b60200260200101516001600160a01b031663c4d66de88a6000815181106200029257fe5b60200260200101516040518263ffffffff1660e01b8152600401620002b8919062000cd9565b600060405180830381600087803b158015620002d357600080fd5b505af1158015620002e8573d6000803e3d6000fd5b50506040805160018082528183019092526060935091506020808301908038833901905050905088816000815181106200031e57fe5b60200260200101906001600160a01b031690816001600160a01b031681525050896005815181106200034c57fe5b60200260200101516001600160a01b031663462d0b2e828c6000815181106200037157fe5b60200260200101516040518363ffffffff1660e01b81526004016200039892919062000e62565b600060405180830381600087803b158015620003b357600080fd5b505af1158015620003c8573d6000803e3d6000fd5b5050505089600481518110620003da57fe5b60200260200101516001600160a01b031663d46005b1828c600581518110620003ff57fe5b60200260200101518d6000815181106200041557fe5b60200260200101518e6006815181106200042b57fe5b60200260200101516040518563ffffffff1660e01b815260040162000454949392919062000e86565b600060405180830381600087803b1580156200046f57600080fd5b505af115801562000484573d6000803e3d6000fd5b505050505050505050505050505062001008565b8051620004a58162000fd8565b92915050565b600082601f830112620004bd57600080fd5b8151620004d4620004ce8262000ef8565b62000ed1565b91508181835260208401935060208101905083856020840282011115620004fa57600080fd5b60005b838110156200052a578162000513888262000498565b8452506020928301929190910190600101620004fd565b5050505092915050565b600082601f8301126200054657600080fd5b815162000557620004ce8262000ef8565b81815260209384019390925082018360005b838110156200052a57815186016200058288826200068b565b845250602092830192919091019060010162000569565b600082601f830112620005ab57600080fd5b8151620005bc620004ce8262000ef8565b91508181835260208401935060208101905083856020840282011115620005e257600080fd5b60005b838110156200052a5781620005fb8882620007bf565b8452506020928301929190910190600101620005e5565b600082601f8301126200062457600080fd5b815162000635620004ce8262000ef8565b915081818352602084019350602081019050838560208402820111156200065b57600080fd5b60005b838110156200052a5781620006748882620007cc565b84525060209283019291909101906001016200065e565b600082601f8301126200069d57600080fd5b8151620006ae620004ce8262000ef8565b81815260209384019390925082018360005b838110156200052a5781518601620006d98882620007d9565b8452506020928301929190910190600101620006c0565b600082601f8301126200070257600080fd5b815162000713620004ce8262000ef8565b81815260209384019390925082018360005b838110156200052a57815186016200073e8882620007d9565b845250602092830192919091019060010162000725565b600082601f8301126200076757600080fd5b600562000778620004ce8262000f19565b915081838560208402820111156200078f57600080fd5b60005b838110156200052a5781620007a88882620007cc565b845250602092830192919091019060010162000792565b8051620004a58162000ff2565b8051620004a58162000ffd565b600082601f830112620007eb57600080fd5b8151620007fc620004ce8262000f37565b915080825260208301602083018583830111156200081957600080fd5b6200082683828462000f9b565b50505092915050565b60008060008060008060008060006101a08a8c0312156200084f57600080fd5b89516001600160401b038111156200086657600080fd5b620008748c828d01620004ab565b9950506020620008878c828d0162000498565b98505060408a01516001600160401b03811115620008a457600080fd5b620008b28c828d01620004ab565b97505060608a01516001600160401b03811115620008cf57600080fd5b620008dd8c828d01620004ab565b9650506080620008f08c828d0162000755565b9550506101208a01516001600160401b038111156200090e57600080fd5b6200091c8c828d0162000612565b9450506101408a01516001600160401b038111156200093a57600080fd5b620009488c828d0162000599565b9350506101608a01516001600160401b038111156200096657600080fd5b620009748c828d01620006f0565b9250506101808a01516001600160401b038111156200099257600080fd5b620009a08c828d0162000534565b9150509295985092959850929598565b6000620009be838362000a05565b505060200190565b6000620009d4838362000c16565b9392505050565b6000620009be838362000c83565b6000620009be838362000c8e565b6000620009d4838362000c99565b62000a108162000f72565b82525050565b600062000a238262000f65565b62000a2f818562000f69565b935062000a3c8362000f5f565b8060005b8381101562000a7057815162000a578882620009b0565b975062000a648362000f5f565b92505060010162000a40565b509495945050505050565b600062000a888262000f65565b62000a94818562000f69565b93508360208202850162000aa88562000f5f565b8060005b8581101562000ae8578484038952815162000ac88582620009c6565b945062000ad58362000f5f565b60209a909a019992505060010162000aac565b5091979650505050505050565b600062000b028262000f65565b62000b0e818562000f69565b935062000b1b8362000f5f565b8060005b8381101562000a7057815162000b368882620009db565b975062000b438362000f5f565b92505060010162000b1f565b600062000b5c8262000f65565b62000b68818562000f69565b935062000b758362000f5f565b8060005b8381101562000a7057815162000b908882620009e9565b975062000b9d8362000f5f565b92505060010162000b79565b600062000bb68262000f65565b62000bc2818562000f69565b93508360208202850162000bd68562000f5f565b8060005b8581101562000ae8578484038952815162000bf68582620009f7565b945062000c038362000f5f565b60209a909a019992505060010162000bda565b600062000c238262000f65565b62000c2f818562000f69565b93508360208202850162000c438562000f5f565b8060005b8581101562000ae8578484038952815162000c638582620009f7565b945062000c708362000f5f565b60209a909a019992505060010162000c47565b62000a108162000f7f565b62000a108162000f8c565b600062000ca68262000f65565b62000cb2818562000f69565b935062000cc481856020860162000f9b565b62000ccf8162000fce565b9093019392505050565b60208101620004a5828462000a05565b60c0810162000cf9828962000a05565b62000d08602083018862000a05565b62000d17604083018762000a05565b62000d26606083018662000a05565b818103608083015262000d3a818562000a16565b905081810360a083015262000d50818462000a16565b98975050505050505050565b6080810162000d6c828762000a05565b818103602083015262000d80818662000a16565b9050818103604083015262000d96818562000ba9565b9050818103606083015262000dac818462000a7b565b9695505050505050565b610120810162000dc7828c62000a05565b818103602083015262000ddb818b62000a16565b905062000dec604083018a62000c8e565b62000dfb606083018962000c8e565b62000e0a608083018862000c8e565b62000e1960a083018762000c8e565b62000e2860c083018662000c8e565b81810360e083015262000e3c818562000b4f565b905081810361010083015262000e53818462000af5565b9b9a5050505050505050505050565b6040808252810162000e75818562000a16565b9050620009d4602083018462000a05565b6080808252810162000e99818762000a16565b905062000eaa602083018662000a05565b62000eb9604083018562000a05565b62000ec8606083018462000a05565b95945050505050565b6040518181016001600160401b038111828210171562000ef057600080fd5b604052919050565b60006001600160401b0382111562000f0f57600080fd5b5060209081020190565b60006001600160401b0382111562000f3057600080fd5b5060200290565b60006001600160401b0382111562000f4e57600080fd5b506020601f91909101601f19160190565b60200190565b5190565b90815260200190565b6000620004a58262000f8f565b6001600160801b03191690565b90565b6001600160a01b031690565b60005b8381101562000fb857818101518382015260200162000f9e565b8381111562000fc8576000848401525b50505050565b601f01601f191690565b62000fe38162000f72565b811462000fef57600080fd5b50565b62000fe38162000f7f565b62000fe38162000f8c565b61038a80620010186000396000f3fe608060405234801561001057600080fd5b50600436106100415760003560e01c80632b68b9c61461004657806347064d6a1461005057806373d4a13a14610063575b600080fd5b61004e610081565b005b61004e61005e366004610218565b610084565b61006b61009b565b604051610078919061028d565b60405180910390f35b33ff5b8051610097906000906020840190610129565b5050565b6000805460408051602060026001851615610100026000190190941693909304601f810184900484028201840190925281815292918301828280156101215780601f106100f657610100808354040283529160200191610121565b820191906000526020600020905b81548152906001019060200180831161010457829003601f168201915b505050505081565b828054600181600116156101000203166002900490600052602060002090601f016020900481019282601f1061016a57805160ff1916838001178555610197565b82800160010185558215610197579182015b8281111561019757825182559160200191906001019061017c565b506101a39291506101a7565b5090565b6101c191905b808211156101a357600081556001016101ad565b90565b600082601f8301126101d557600080fd5b81356101e86101e3826102cc565b6102a5565b9150808252602083016020830185838301111561020457600080fd5b61020f838284610301565b50505092915050565b60006020828403121561022a57600080fd5b813567ffffffffffffffff81111561024157600080fd5b61024d848285016101c4565b949350505050565b6000610260826102f4565b61026a81856102f8565b935061027a81856020860161030d565b6102838161033d565b9093019392505050565b6020808252810161029e8184610255565b9392505050565b60405181810167ffffffffffffffff811182821017156102c457600080fd5b604052919050565b600067ffffffffffffffff8211156102e357600080fd5b506020601f91909101601f19160190565b5190565b90815260200190565b82818337506000910152565b60005b83811015610328578181015183820152602001610310565b83811115610337576000848401525b50505050565b601f01601f19169056fea365627a7a7231582024ad1c6be3729c7228876ed79011ba446f94e384050d4686abf08451c106129d6c6578706572696d656e74616cf564736f6c63430005100040",
  "source": "pragma solidity ^0.5.16;\npragma experimental ABIEncoderV2;\n\nimport \"./interfaces/IBlockRewardHbbft.sol\";\nimport \"./interfaces/ICertifier.sol\";\nimport \"./interfaces/IKeyGenHistory.sol\";\nimport \"./interfaces/IRandomHbbft.sol\";\nimport \"./interfaces/IStakingHbbft.sol\";\nimport \"./interfaces/ITxPermission.sol\";\nimport \"./interfaces/IValidatorSetHbbft.sol\";\n\n\n\n/// @dev Used once on network startup and then destroyed.\n/// Needed for initializing upgradeable contracts since\n/// upgradeable contracts can't have constructors.\ncontract InitializerHbbft {\n\n    string public data;\n\n    /// @param _contracts An array of the contracts:\n    ///   0 is ValidatorSetHbbft,\n    ///   1 is BlockRewardHbbft,\n    ///   2 is RandomHbbft,\n    ///   3 is StakingHbbft,\n    ///   4 is TxPermission,\n    ///   5 is Certifier,\n    ///   6 is KeyGenHistory.\n    /// @param _owner The contracts' owner.\n    /// @param _miningAddresses The array of initial validators' mining addresses.\n    /// @param _stakingAddresses The array of initial validators' staking addresses.\n    /// @param _stakingParams list of staking related parameters, done to avoid \"stack too deep\" error\n    /// _stakingParams[0]: _delegatorMinStake The minimum allowed amount of delegator stake in Wei\n    /// (see the `StakingHbbft` contract).\n    /// _stakingParams[1]: _candidateMinStake The minimum allowed amount of candidate stake in Wei\n    /// (see the `StakingHbbft` contract).\n    /// _stakingParams[2]: _stakingEpochDuration The duration of a staking epoch.\n    /// _stakingParams[3]: _stakingTransitionTimeframeLength Length of the timeframe in seconds for the transition\n    /// _stakingParams[4]: _stakingWithdrawDisallowPeriod The duration period (in blocks) at the end of a staking epoch\n    /// during which participants cannot stake or withdraw their staking tokens\n    /// @param _publicKeys bytes32[] memory\n    /// @param _internetAddresses bytes16[] memory\n    /// @param _parts bytes[] memory\n    /// @param _acks bytes[][] memory\n    constructor(\n        address[] memory _contracts,\n        address _owner,\n        address[] memory _miningAddresses,\n        address[] memory _stakingAddresses,\n        uint256[5] memory _stakingParams,\n        bytes32[] memory _publicKeys,\n        bytes16[] memory _internetAddresses,\n        bytes[] memory _parts,\n        bytes[][] memory _acks\n    ) public {\n        IValidatorSetHbbft(_contracts[0]).initialize(\n            _contracts[1], // _blockRewardContract\n            _contracts[2], // _randomContract\n            _contracts[3], // _stakingContract\n            _contracts[6], // _keyGenHistoryContract\n            _miningAddresses,\n            _stakingAddresses\n        );\n        IStakingHbbft(_contracts[3]).initialize(\n            _contracts[0], // _validatorSetContract\n            _stakingAddresses,\n            _stakingParams[0], // _delegatorMinStake\n            _stakingParams[1], // _candidateMinStake\n            _stakingParams[2], // _stakingEpochDuration\n            _stakingParams[3], // _stakingTransitionTimeframeLength\n            _stakingParams[4], // _stakingWithdrawDisallowPeriod\n            _publicKeys,\n            _internetAddresses\n        );\n        IKeyGenHistory(_contracts[6]).initialize(\n            _contracts[0], // _validatorSetContract\n            _miningAddresses,\n            _parts,\n            _acks\n        );\n        IBlockRewardHbbft(_contracts[1]).initialize(_contracts[0]);\n        address[] memory permittedAddresses = new address[](1);\n        permittedAddresses[0] = _owner;\n        \n        ICertifier(_contracts[5]).initialize(permittedAddresses, _contracts[0]);\n        ITxPermission(_contracts[4]).initialize(permittedAddresses, _contracts[5], _contracts[0], _contracts[6]);\n    }\n\n\n    function destruct()\n    external {\n        selfdestruct(msg.sender);\n    }\n\n    function\n    setData(string memory _data)\n    public {\n        data = _data;\n    }\n}\n",
  "sourcePath": "/home/sn/dmd/dmd-meta/hbbft-posdao-contracts/contracts/InitializerHbbft.sol",
  "compiler": {
    "name": "solc",
    "version": "0.5.16+commit.9c3226ce.Emscripten.clang"
  },
  "schemaVersion": "3.3.1",
  "updatedAt": "2020-11-10T08:59:05.944Z",
  "devdoc": {
    "details": "Used once on network startup and then destroyed. Needed for initializing upgradeable contracts since upgradeable contracts can't have constructors.",
    "methods": {
      "constructor": {
        "params": {
          "_acks": "bytes[][] memory",
          "_contracts": "An array of the contracts:   0 is ValidatorSetHbbft,   1 is BlockRewardHbbft,   2 is RandomHbbft,   3 is StakingHbbft,   4 is TxPermission,   5 is Certifier,   6 is KeyGenHistory.",
          "_internetAddresses": "bytes16[] memory",
          "_miningAddresses": "The array of initial validators' mining addresses.",
          "_owner": "The contracts' owner.",
          "_parts": "bytes[] memory",
          "_publicKeys": "bytes32[] memory",
          "_stakingAddresses": "The array of initial validators' staking addresses.",
          "_stakingParams": "list of staking related parameters, done to avoid \"stack too deep\" error _stakingParams[0]: _delegatorMinStake The minimum allowed amount of delegator stake in Wei (see the `StakingHbbft` contract). _stakingParams[1]: _candidateMinStake The minimum allowed amount of candidate stake in Wei (see the `StakingHbbft` contract). _stakingParams[2]: _stakingEpochDuration The duration of a staking epoch. _stakingParams[3]: _stakingTransitionTimeframeLength Length of the timeframe in seconds for the transition _stakingParams[4]: _stakingWithdrawDisallowPeriod The duration period (in blocks) at the end of a staking epoch during which participants cannot stake or withdraw their staking tokens"
        }
      }
    }
  },
  "userdoc": {
    "methods": {}
  }
}