{
  "contractName": "KeyGenHistory",
  "abi": [
    {
      "anonymous": false,
      "inputs": [
        {
          "indexed": false,
          "internalType": "address[]",
          "name": "newValidatorSet",
          "type": "address[]"
        }
      ],
      "name": "NewValidatorsSet",
      "type": "event"
    },
    {
      "constant": true,
      "inputs": [
        {
          "internalType": "address",
          "name": "",
          "type": "address"
        },
        {
          "internalType": "uint256",
          "name": "",
          "type": "uint256"
        }
      ],
      "name": "acks",
      "outputs": [
        {
          "internalType": "bytes",
          "name": "",
          "type": "bytes"
        }
      ],
      "payable": false,
      "stateMutability": "view",
      "type": "function"
    },
    {
      "constant": true,
      "inputs": [
        {
          "internalType": "address",
          "name": "",
          "type": "address"
        }
      ],
      "name": "parts",
      "outputs": [
        {
          "internalType": "bytes",
          "name": "",
          "type": "bytes"
        }
      ],
      "payable": false,
      "stateMutability": "view",
      "type": "function"
    },
    {
      "constant": true,
      "inputs": [
        {
          "internalType": "uint256",
          "name": "",
          "type": "uint256"
        }
      ],
      "name": "validatorSet",
      "outputs": [
        {
          "internalType": "address",
          "name": "",
          "type": "address"
        }
      ],
      "payable": false,
      "stateMutability": "view",
      "type": "function"
    },
    {
      "constant": true,
      "inputs": [],
      "name": "validatorSetContract",
      "outputs": [
        {
          "internalType": "contract IValidatorSetHbbft",
          "name": "",
          "type": "address"
        }
      ],
      "payable": false,
      "stateMutability": "view",
      "type": "function"
    },
    {
      "constant": false,
      "inputs": [
        {
          "internalType": "address[]",
          "name": "_prevValidators",
          "type": "address[]"
        }
      ],
      "name": "clearPrevKeyGenState",
      "outputs": [],
      "payable": false,
      "stateMutability": "nonpayable",
      "type": "function"
    },
    {
      "constant": false,
      "inputs": [
        {
          "internalType": "address",
          "name": "_validatorSetContract",
          "type": "address"
        },
        {
          "internalType": "address[]",
          "name": "_validators",
          "type": "address[]"
        },
        {
          "internalType": "bytes[]",
          "name": "_parts",
          "type": "bytes[]"
        },
        {
          "internalType": "bytes[][]",
          "name": "_acks",
          "type": "bytes[][]"
        }
      ],
      "name": "initialize",
      "outputs": [],
      "payable": false,
      "stateMutability": "nonpayable",
      "type": "function"
    },
    {
      "constant": false,
      "inputs": [
        {
          "internalType": "bytes",
          "name": "_part",
          "type": "bytes"
        }
      ],
      "name": "writePart",
      "outputs": [],
      "payable": false,
      "stateMutability": "nonpayable",
      "type": "function"
    },
    {
      "constant": false,
      "inputs": [
        {
          "internalType": "bytes[]",
          "name": "_acks",
          "type": "bytes[]"
        }
      ],
      "name": "writeAcks",
      "outputs": [],
      "payable": false,
      "stateMutability": "nonpayable",
      "type": "function"
    },
    {
      "constant": false,
      "inputs": [
        {
          "internalType": "bytes[]",
          "name": "_acks",
          "type": "bytes[]"
        },
        {
          "internalType": "uint256",
          "name": "_epoch",
          "type": "uint256"
        },
        {
          "internalType": "uint256",
          "name": "_epochRound",
          "type": "uint256"
        }
      ],
      "name": "writeAck",
      "outputs": [],
      "payable": false,
      "stateMutability": "nonpayable",
      "type": "function"
    },
    {
      "constant": true,
      "inputs": [
        {
          "internalType": "address",
          "name": "val",
          "type": "address"
        }
      ],
      "name": "getAcksLength",
      "outputs": [
        {
          "internalType": "uint256",
          "name": "",
          "type": "uint256"
        }
      ],
      "payable": false,
      "stateMutability": "view",
      "type": "function"
    },
    {
      "constant": true,
      "inputs": [],
      "name": "isInitialized",
      "outputs": [
        {
          "internalType": "bool",
          "name": "",
          "type": "bool"
        }
      ],
      "payable": false,
      "stateMutability": "view",
      "type": "function"
    }
  ],
  "bytecode": "0x608060405234801561001057600080fd5b506115b4806100206000396000f3fe608060405234801561001057600080fd5b50600436106100a95760003560e01c8063be16893411610071578063be16893414610127578063ca3edc811461013a578063dd7761f81461014d578063dfc8bf4e1461016d578063e64808f314610182578063fb15aaa8146101a2576100a9565b8063392e53cd146100ae5780633f8e80dc146100cc5780635f17497e146100e1578063778b8a15146100f4578063a20a728914610114575b600080fd5b6100b66101b5565b6040516100c3919061137c565b60405180910390f35b6100df6100da36600461104e565b6101c7565b005b6100df6100ef366004610f55565b6102cb565b610107610102366004610e4c565b6103aa565b6040516100c3919061138a565b6100df610122366004610fcc565b610444565b6100df610135366004610e72565b610533565b610107610148366004610f1b565b610765565b61016061015b366004610e4c565b6107e6565b6040516100c39190611450565b610175610801565b6040516100c391906113a2565b610195610190366004611084565b610810565b6040516100c39190611360565b6100df6101b0366004610f97565b610837565b6003546001600160a01b031615155b90565b60035460405163fb64aac160e01b81526001600160a01b039091169063fb64aac1906101f790339060040161136e565b60206040518083038186803b15801561020f57600080fd5b505afa158015610223573d6000803e3d6000fd5b505050506040513d601f19601f820116820180604052506102479190810190611030565b61026c5760405162461bcd60e51b815260040161026390611420565b60405180910390fd5b3360009081526001602081905260409091205460029181161561010002600019011604156102ac5760405162461bcd60e51b815260040161026390611410565b3360009081526001602052604090206102c6908383610949565b505050565b6003546001600160a01b031633146102f55760405162461bcd60e51b8152600401610263906113e0565b60005b818110156102c6576001600084848481811061031057fe5b90506020020160206103259190810190610e4c565b6001600160a01b03166001600160a01b03168152602001908152602001600020600061035191906109c7565b6002600084848481811061036157fe5b90506020020160206103769190810190610e4c565b6001600160a01b03166001600160a01b0316815260200190815260200160002060006103a29190610a0e565b6001016102f8565b60016020818152600092835260409283902080548451600294821615610100026000190190911693909304601f810183900483028401830190945283835291929083018282801561043c5780601f106104115761010080835404028352916020019161043c565b820191906000526020600020905b81548152906001019060200180831161041f57829003601f168201915b505050505081565b60035460405163fb64aac160e01b81526001600160a01b039091169063fb64aac19061047490339060040161136e565b60206040518083038186803b15801561048c57600080fd5b505afa1580156104a0573d6000803e3d6000fd5b505050506040513d601f19601f820116820180604052506104c49190810190611030565b6104e05760405162461bcd60e51b815260040161026390611420565b336000908152600260205260409020541561050d5760405162461bcd60e51b815260040161026390611430565b336000908152600260209081526040909120845161052d92860190610a2c565b50505050565b61053b610924565b6001600160a01b0316336001600160a01b03161480610572575061055d610924565b6001600160a01b0316326001600160a01b0316145b8061058b5750610580610924565b6001600160a01b0316155b80610594575043155b6105b05760405162461bcd60e51b8152600401610263906113d0565b6105b86101b5565b156105d55760405162461bcd60e51b8152600401610263906113b0565b82516105f35760405162461bcd60e51b815260040161026390611400565b81518351146106145760405162461bcd60e51b8152600401610263906113f0565b80518351146106355760405162461bcd60e51b815260040161026390611440565b6001600160a01b03841661065b5760405162461bcd60e51b8152600401610263906113c0565b600380546001600160a01b0319166001600160a01b0386161790558251610689906000906020860190610a85565b5060005b835181101561075e578281815181106106a257fe5b6020026020010151600160008684815181106106ba57fe5b60200260200101516001600160a01b03166001600160a01b0316815260200190815260200160002090805190602001906106f5929190610ae6565b5081818151811061070257fe5b60200260200101516002600086848151811061071a57fe5b60200260200101516001600160a01b03166001600160a01b031681526020019081526020016000209080519060200190610755929190610a2c565b5060010161068d565b5050505050565b6002602052816000526040600020818154811061077e57fe5b600091825260209182902001805460408051601f6002600019610100600187161502019094169390930492830185900485028101850190915281815294509092509083018282801561043c5780601f106104115761010080835404028352916020019161043c565b6001600160a01b031660009081526002602052604090205490565b6003546001600160a01b031681565b6000818154811061081d57fe5b6000918252602090912001546001600160a01b0316905081565b60035460405163fb64aac160e01b81526001600160a01b039091169063fb64aac19061086790339060040161136e565b60206040518083038186803b15801561087f57600080fd5b505afa158015610893573d6000803e3d6000fd5b505050506040513d601f19601f820116820180604052506108b79190810190611030565b6108d35760405162461bcd60e51b815260040161026390611420565b33600090815260026020526040902054156109005760405162461bcd60e51b815260040161026390611430565b336000908152600260209081526040909120825161092092840190610a2c565b5050565b7fb53127684a568b3173ae13b9f8a6016e243e63b6e8ee1178d6a717850b5d61035490565b828054600181600116156101000203166002900490600052602060002090601f016020900481019282601f1061098a5782800160ff198235161785556109b7565b828001600101855582156109b7579182015b828111156109b757823582559160200191906001019061099c565b506109c3929150610b54565b5090565b50805460018160011615610100020316600290046000825580601f106109ed5750610a0b565b601f016020900490600052602060002090810190610a0b9190610b54565b50565b5080546000825590600052602060002090810190610a0b9190610b6e565b828054828255906000526020600020908101928215610a79579160200282015b82811115610a795782518051610a69918491602090910190610ae6565b5091602001919060010190610a4c565b506109c3929150610b6e565b828054828255906000526020600020908101928215610ada579160200282015b82811115610ada57825182546001600160a01b0319166001600160a01b03909116178255602090920191600190910190610aa5565b506109c3929150610b91565b828054600181600116156101000203166002900490600052602060002090601f016020900481019282601f10610b2757805160ff19168380011785556109b7565b828001600101855582156109b7579182015b828111156109b7578251825591602001919060010190610b39565b6101c491905b808211156109c35760008155600101610b5a565b6101c491905b808211156109c3576000610b8882826109c7565b50600101610b74565b6101c491905b808211156109c35780546001600160a01b0319168155600101610b97565b8035610bc08161154b565b92915050565b60008083601f840112610bd857600080fd5b50813567ffffffffffffffff811115610bf057600080fd5b602083019150836020820283011115610c0857600080fd5b9250929050565b600082601f830112610c2057600080fd5b8135610c33610c2e82611485565b61145e565b91508181835260208401935060208101905083856020840282011115610c5857600080fd5b60005b83811015610c845781610c6e8882610bb5565b8452506020928301929190910190600101610c5b565b5050505092915050565b600082601f830112610c9f57600080fd5b8135610cad610c2e82611485565b81815260209384019390925082018360005b83811015610c845781358601610cd58882610ceb565b8452506020928301929190910190600101610cbf565b600082601f830112610cfc57600080fd5b8135610d0a610c2e82611485565b81815260209384019390925082018360005b83811015610c845781358601610d328882610df2565b8452506020928301929190910190600101610d1c565b600082601f830112610d5957600080fd5b8135610d67610c2e82611485565b81815260209384019390925082018360005b83811015610c845781358601610d8f8882610df2565b8452506020928301929190910190600101610d79565b8051610bc08161155f565b60008083601f840112610dc257600080fd5b50813567ffffffffffffffff811115610dda57600080fd5b602083019150836001820283011115610c0857600080fd5b600082601f830112610e0357600080fd5b8135610e11610c2e826114a6565b91508082526020830160208301858383011115610e2d57600080fd5b610e38838284611509565b50505092915050565b8035610bc081611568565b600060208284031215610e5e57600080fd5b6000610e6a8484610bb5565b949350505050565b60008060008060808587031215610e8857600080fd5b6000610e948787610bb5565b945050602085013567ffffffffffffffff811115610eb157600080fd5b610ebd87828801610c0f565b935050604085013567ffffffffffffffff811115610eda57600080fd5b610ee687828801610d48565b925050606085013567ffffffffffffffff811115610f0357600080fd5b610f0f87828801610c8e565b91505092959194509250565b60008060408385031215610f2e57600080fd5b6000610f3a8585610bb5565b9250506020610f4b85828601610e41565b9150509250929050565b60008060208385031215610f6857600080fd5b823567ffffffffffffffff811115610f7f57600080fd5b610f8b85828601610bc6565b92509250509250929050565b600060208284031215610fa957600080fd5b813567ffffffffffffffff811115610fc057600080fd5b610e6a84828501610d48565b600080600060608486031215610fe157600080fd5b833567ffffffffffffffff811115610ff857600080fd5b61100486828701610d48565b935050602061101586828701610e41565b925050604061102686828701610e41565b9150509250925092565b60006020828403121561104257600080fd5b6000610e6a8484610da5565b6000806020838503121561106157600080fd5b823567ffffffffffffffff81111561107857600080fd5b610f8b85828601610db0565b60006020828403121561109657600080fd5b6000610e6a8484610e41565b6110ab816114f7565b82525050565b6110ab816114db565b6110ab816114e6565b60006110ce826114ce565b6110d881856114d2565b93506110e8818560208601611515565b6110f181611541565b9093019392505050565b6110ab816114fe565b60006111116024836114d2565b7f696e697469616c697a6174696f6e2063616e206f6e6c7920626520646f6e65208152636f6e636560e01b602082015260400192915050565b60006111576027836114d2565b7f56616c696461746f7220636f6e747261637420616464726573732063616e6e6f8152663a10313290181760c91b602082015260400192915050565b60006111a06014836114d2565b7329b2b73232b91036bab9ba1031329030b236b4b760611b815260200192915050565b60006111d06028836114d2565b7f4d7573742062792065786563757465642062792076616c696461746f7253657481526710dbdb9d1c9858dd60c21b602082015260400192915050565b600061121a6016836114d2565b7557726f6e67206e756d626572206f662050617274732160501b815260200192915050565b600061124c601f836114d2565b7f56616c696461746f7273206d757374206265206d6f7265207468616e20302e00815260200192915050565b60006112856018836114d2565b7f506172747320616c7265616479207375626d6974746564210000000000000000815260200192915050565b60006112be6021836114d2565b7f53656e646572206973206e6f7420612070656e64696e672076616c696461746f8152603960f91b602082015260400192915050565b60006113016016836114d2565b751058dadcc8185b1c9958591e481cdd589b5a5d1d195960521b815260200192915050565b60006113336015836114d2565b7457726f6e67206e756d626572206f662041636b732160581b815260200192915050565b6110ab816101c4565b60208101610bc082846110b1565b60208101610bc082846110a2565b60208101610bc082846110ba565b6020808252810161139b81846110c3565b9392505050565b60208101610bc082846110fb565b60208082528101610bc081611104565b60208082528101610bc08161114a565b60208082528101610bc081611193565b60208082528101610bc0816111c3565b60208082528101610bc08161120d565b60208082528101610bc08161123f565b60208082528101610bc081611278565b60208082528101610bc0816112b1565b60208082528101610bc0816112f4565b60208082528101610bc081611326565b60208101610bc08284611357565b60405181810167ffffffffffffffff8111828210171561147d57600080fd5b604052919050565b600067ffffffffffffffff82111561149c57600080fd5b5060209081020190565b600067ffffffffffffffff8211156114bd57600080fd5b506020601f91909101601f19160190565b5190565b90815260200190565b6000610bc0826114eb565b151590565b6001600160a01b031690565b6000610bc0825b6000610bc0826114db565b82818337506000910152565b60005b83811015611530578181015183820152602001611518565b8381111561052d5750506000910152565b601f01601f191690565b611554816114db565b8114610a0b57600080fd5b611554816114e6565b611554816101c456fea365627a7a7231582022b5c3de49fe43a67943921c12364f209cae11905bd719245c9b2bc61a7cd2d26c6578706572696d656e74616cf564736f6c63430005100040",
  "source": "pragma solidity ^0.5.16;\npragma experimental ABIEncoderV2;\n\nimport \"./interfaces/IKeyGenHistory.sol\";\nimport \"./interfaces/IValidatorSetHbbft.sol\";\nimport \"./upgradeability/UpgradeabilityAdmin.sol\";\n\ncontract KeyGenHistory is UpgradeabilityAdmin, IKeyGenHistory {\n\n    // =============================================== Storage ========================================================\n\n    // WARNING: since this contract is upgradeable, do not remove\n    // existing storage variables and do not change their types!\n\n    // the current validator addresses\n    address[] public validatorSet;\n    mapping(address => bytes) public parts;\n    mapping(address => bytes[]) public acks;\n\n\n    //mapping(address => uint256) public acksOverwriteBitfield;\n\n\n    /// @dev The address of the `ValidatorSetHbbft` contract.\n    IValidatorSetHbbft public validatorSetContract;\n\n    event NewValidatorsSet(address[] newValidatorSet);\n\n    /// @dev Ensures the `initialize` function was called before.\n    modifier onlyInitialized {\n        require(isInitialized(), \"KeyGenHistory requires to be initialized\");\n        _;\n    }\n\n    /// @dev Ensures the caller is the SYSTEM_ADDRESS. See https://wiki.parity.io/Validator-Set.html\n    modifier onlySystem() {\n        require(msg.sender == 0xffffFFFfFFffffffffffffffFfFFFfffFFFfFFfE, \"Must be executed by System\");\n        _;\n    }\n\n    /// @dev Ensures the caller is ValidatorSet contract.\n    modifier onlyValidatorSet() {\n        require(msg.sender == address(validatorSetContract), \"Must by executed by validatorSetContract\");\n        _;\n    }\n\n    /// @dev Clears the state (acks and parts of previous validators.\n    /// @param _prevValidators The list of previous validators.\n    function clearPrevKeyGenState(address[] calldata _prevValidators)\n    external\n    onlyValidatorSet {\n\n        for (uint256 i = 0; i < _prevValidators.length; i++) {\n            delete parts[_prevValidators[i]];\n            delete acks[_prevValidators[i]];\n        }\n    }\n\n    function initialize(\n        address _validatorSetContract,\n        address[] memory _validators,\n        bytes[] memory _parts,\n        bytes[][] memory _acks\n    ) public {\n        // Unit Tests may deploy at block numbers other than 0.\n        require(msg.sender == _admin() || tx.origin ==  _admin() || address(0) ==  _admin() || block.number == 0, \"Sender must be admin\");\n        require(!isInitialized(), \"initialization can only be done once\"); // initialization can only be done once\n        require(_validators.length != 0, \"Validators must be more than 0.\");\n        require(_validators.length == _parts.length, \"Wrong number of Parts!\");\n        require(_validators.length == _acks.length, \"Wrong number of Acks!\");\n        require(_validatorSetContract != address(0), \"Validator contract address cannot be 0.\");\n\n        validatorSetContract = IValidatorSetHbbft(_validatorSetContract);\n        validatorSet = _validators;\n\n        for (uint256 i = 0; i < _validators.length; i++) {\n            parts[_validators[i]] = _parts[i];\n            acks[_validators[i]] = _acks[i];\n        }\n    }\n\n    function writePart(bytes calldata _part)\n    external {\n        // It can only be called by a new validator which is elected but not yet finalized...\n        // ...or by a validator which is already in the validator set.\n        require(validatorSetContract.isPendingValidator(msg.sender), \"Sender is not a pending validator\");\n        require(parts[msg.sender].length == 0, \"Parts already submitted!\");\n        parts[msg.sender] = _part;\n    }\n\n    function writeAcks(bytes[] memory _acks)\n    public {\n        // It can only be called by a new validator which is elected but not yet finalized...\n        // ...or by a validator which is already in the validator set.\n        require(validatorSetContract.isPendingValidator(msg.sender), \"Sender is not a pending validator\");\n        require(acks[msg.sender].length == 0, \"Acks already submitted\");\n        acks[msg.sender] = _acks;\n    }\n\n    function writeAck(bytes[] memory _acks, uint _epoch, uint _epochRound)\n    public {\n        \n        // It can only be called by a new validator which is elected but not yet finalized...\n        // ...or by a validator which is already in the validator set.\n        require(validatorSetContract.isPendingValidator(msg.sender), \"Sender is not a pending validator\");\n        require(acks[msg.sender].length == 0, \"Acks already submitted\");\n        acks[msg.sender] = _acks;\n\n    }\n\n    function getAcksLength(address val)\n    public\n    view\n    returns(uint256) {\n        return acks[val].length;\n    }\n\n    /// @dev Returns a boolean flag indicating if the `initialize` function has been called.\n    function isInitialized()\n    public\n    view\n    returns(bool) {\n        return validatorSetContract != IValidatorSetHbbft(0);\n    }\n}\n",
  "sourcePath": "/home/sn/dmd/dmd-meta/hbbft-posdao-contracts/contracts/KeyGenHistory.sol",
  "compiler": {
    "name": "solc",
    "version": "0.5.16+commit.9c3226ce.Emscripten.clang"
  },
  "schemaVersion": "3.3.2",
  "updatedAt": "2020-12-13T11:59:52.547Z",
  "devdoc": {
    "methods": {
      "clearPrevKeyGenState(address[])": {
        "details": "Clears the state (acks and parts of previous validators.",
        "params": {
          "_prevValidators": "The list of previous validators."
        }
      },
      "isInitialized()": {
        "details": "Returns a boolean flag indicating if the `initialize` function has been called."
      }
    }
  },
  "userdoc": {
    "methods": {}
  }
}