{
  "contractName": "StakingHbbft",
  "abi": [
    {
      "anonymous": false,
      "inputs": [
        {
          "indexed": true,
          "internalType": "address",
          "name": "fromPoolStakingAddress",
          "type": "address"
        },
        {
          "indexed": true,
          "internalType": "address",
          "name": "staker",
          "type": "address"
        },
        {
          "indexed": true,
          "internalType": "uint256",
          "name": "stakingEpoch",
          "type": "uint256"
        },
        {
          "indexed": false,
          "internalType": "uint256",
          "name": "amount",
          "type": "uint256"
        }
      ],
      "name": "ClaimedOrderedWithdrawal",
      "type": "event"
    },
    {
      "anonymous": false,
      "inputs": [
        {
          "indexed": true,
          "internalType": "address",
          "name": "fromPoolStakingAddress",
          "type": "address"
        },
        {
          "indexed": true,
          "internalType": "address",
          "name": "staker",
          "type": "address"
        },
        {
          "indexed": true,
          "internalType": "uint256",
          "name": "stakingEpoch",
          "type": "uint256"
        },
        {
          "indexed": false,
          "internalType": "uint256",
          "name": "nativeCoinsAmount",
          "type": "uint256"
        }
      ],
      "name": "ClaimedReward",
      "type": "event"
    },
    {
      "anonymous": false,
      "inputs": [
        {
          "indexed": false,
          "internalType": "address",
          "name": "fromPoolStakingAddress",
          "type": "address"
        },
        {
          "indexed": true,
          "internalType": "address",
          "name": "toPoolStakingAddress",
          "type": "address"
        },
        {
          "indexed": true,
          "internalType": "address",
          "name": "staker",
          "type": "address"
        },
        {
          "indexed": true,
          "internalType": "uint256",
          "name": "stakingEpoch",
          "type": "uint256"
        },
        {
          "indexed": false,
          "internalType": "uint256",
          "name": "amount",
          "type": "uint256"
        }
      ],
      "name": "MovedStake",
      "type": "event"
    },
    {
      "anonymous": false,
      "inputs": [
        {
          "indexed": true,
          "internalType": "address",
          "name": "fromPoolStakingAddress",
          "type": "address"
        },
        {
          "indexed": true,
          "internalType": "address",
          "name": "staker",
          "type": "address"
        },
        {
          "indexed": true,
          "internalType": "uint256",
          "name": "stakingEpoch",
          "type": "uint256"
        },
        {
          "indexed": false,
          "internalType": "int256",
          "name": "amount",
          "type": "int256"
        }
      ],
      "name": "OrderedWithdrawal",
      "type": "event"
    },
    {
      "anonymous": false,
      "inputs": [
        {
          "indexed": true,
          "internalType": "address",
          "name": "toPoolStakingAddress",
          "type": "address"
        },
        {
          "indexed": true,
          "internalType": "address",
          "name": "staker",
          "type": "address"
        },
        {
          "indexed": true,
          "internalType": "uint256",
          "name": "stakingEpoch",
          "type": "uint256"
        },
        {
          "indexed": false,
          "internalType": "uint256",
          "name": "amount",
          "type": "uint256"
        }
      ],
      "name": "PlacedStake",
      "type": "event"
    },
    {
      "anonymous": false,
      "inputs": [
        {
          "indexed": true,
          "internalType": "address",
          "name": "fromPoolStakingAddress",
          "type": "address"
        },
        {
          "indexed": true,
          "internalType": "address",
          "name": "staker",
          "type": "address"
        },
        {
          "indexed": true,
          "internalType": "uint256",
          "name": "stakingEpoch",
          "type": "uint256"
        },
        {
          "indexed": false,
          "internalType": "uint256",
          "name": "amount",
          "type": "uint256"
        }
      ],
      "name": "WithdrewStake",
      "type": "event"
    },
    {
      "payable": true,
      "stateMutability": "payable",
      "type": "fallback"
    },
    {
      "constant": true,
      "inputs": [],
      "name": "MAX_CANDIDATES",
      "outputs": [
        {
          "internalType": "uint256",
          "name": "",
          "type": "uint256"
        }
      ],
      "payable": false,
      "stateMutability": "view",
      "type": "function"
    },
    {
      "constant": false,
      "inputs": [
        {
          "internalType": "address",
          "name": "_miningAddress",
          "type": "address"
        },
        {
          "internalType": "bytes",
          "name": "_publicKey",
          "type": "bytes"
        },
        {
          "internalType": "bytes16",
          "name": "_ip",
          "type": "bytes16"
        }
      ],
      "name": "addPool",
      "outputs": [],
      "payable": true,
      "stateMutability": "payable",
      "type": "function"
    },
    {
      "constant": true,
      "inputs": [],
      "name": "areStakeAndWithdrawAllowed",
      "outputs": [
        {
          "internalType": "bool",
          "name": "",
          "type": "bool"
        }
      ],
      "payable": false,
      "stateMutability": "view",
      "type": "function"
    },
    {
      "constant": true,
      "inputs": [],
      "name": "candidateMinStake",
      "outputs": [
        {
          "internalType": "uint256",
          "name": "",
          "type": "uint256"
        }
      ],
      "payable": false,
      "stateMutability": "view",
      "type": "function"
    },
    {
      "constant": false,
      "inputs": [
        {
          "internalType": "address",
          "name": "_poolStakingAddress",
          "type": "address"
        }
      ],
      "name": "claimOrderedWithdraw",
      "outputs": [],
      "payable": false,
      "stateMutability": "nonpayable",
      "type": "function"
    },
    {
      "constant": false,
      "inputs": [
        {
          "internalType": "uint256[]",
          "name": "_stakingEpochs",
          "type": "uint256[]"
        },
        {
          "internalType": "address",
          "name": "_poolStakingAddress",
          "type": "address"
        }
      ],
      "name": "claimReward",
      "outputs": [],
      "payable": false,
      "stateMutability": "nonpayable",
      "type": "function"
    },
    {
      "constant": true,
      "inputs": [],
      "name": "delegatorMinStake",
      "outputs": [
        {
          "internalType": "uint256",
          "name": "",
          "type": "uint256"
        }
      ],
      "payable": false,
      "stateMutability": "view",
      "type": "function"
    },
    {
      "constant": true,
      "inputs": [
        {
          "internalType": "address",
          "name": "",
          "type": "address"
        },
        {
          "internalType": "address",
          "name": "",
          "type": "address"
        },
        {
          "internalType": "uint256",
          "name": "",
          "type": "uint256"
        }
      ],
      "name": "delegatorStakeSnapshot",
      "outputs": [
        {
          "internalType": "uint256",
          "name": "",
          "type": "uint256"
        }
      ],
      "payable": false,
      "stateMutability": "view",
      "type": "function"
    },
    {
      "constant": true,
      "inputs": [
        {
          "internalType": "address",
          "name": "_poolAddress",
          "type": "address"
        }
      ],
      "name": "getPoolInternetAddress",
      "outputs": [
        {
          "internalType": "bytes16",
          "name": "",
          "type": "bytes16"
        }
      ],
      "payable": false,
      "stateMutability": "view",
      "type": "function"
    },
    {
      "constant": true,
      "inputs": [
        {
          "internalType": "address",
          "name": "_poolAddress",
          "type": "address"
        }
      ],
      "name": "getPoolPublicKey",
      "outputs": [
        {
          "internalType": "bytes",
          "name": "",
          "type": "bytes"
        }
      ],
      "payable": false,
      "stateMutability": "view",
      "type": "function"
    },
    {
      "constant": true,
      "inputs": [],
      "name": "getPools",
      "outputs": [
        {
          "internalType": "address[]",
          "name": "",
          "type": "address[]"
        }
      ],
      "payable": false,
      "stateMutability": "view",
      "type": "function"
    },
    {
      "constant": true,
      "inputs": [],
      "name": "getPoolsInactive",
      "outputs": [
        {
          "internalType": "address[]",
          "name": "",
          "type": "address[]"
        }
      ],
      "payable": false,
      "stateMutability": "view",
      "type": "function"
    },
    {
      "constant": true,
      "inputs": [],
      "name": "getPoolsLikelihood",
      "outputs": [
        {
          "internalType": "uint256[]",
          "name": "likelihoods",
          "type": "uint256[]"
        },
        {
          "internalType": "uint256",
          "name": "sum",
          "type": "uint256"
        }
      ],
      "payable": false,
      "stateMutability": "view",
      "type": "function"
    },
    {
      "constant": true,
      "inputs": [],
      "name": "getPoolsToBeElected",
      "outputs": [
        {
          "internalType": "address[]",
          "name": "",
          "type": "address[]"
        }
      ],
      "payable": false,
      "stateMutability": "view",
      "type": "function"
    },
    {
      "constant": true,
      "inputs": [],
      "name": "getPoolsToBeRemoved",
      "outputs": [
        {
          "internalType": "address[]",
          "name": "",
          "type": "address[]"
        }
      ],
      "payable": false,
      "stateMutability": "view",
      "type": "function"
    },
    {
      "constant": true,
      "inputs": [
        {
          "internalType": "uint256[]",
          "name": "_stakingEpochs",
          "type": "uint256[]"
        },
        {
          "internalType": "address",
          "name": "_poolStakingAddress",
          "type": "address"
        },
        {
          "internalType": "address",
          "name": "_staker",
          "type": "address"
        }
      ],
      "name": "getRewardAmount",
      "outputs": [
        {
          "internalType": "uint256",
          "name": "",
          "type": "uint256"
        }
      ],
      "payable": false,
      "stateMutability": "view",
      "type": "function"
    },
    {
      "constant": false,
      "inputs": [],
      "name": "incrementStakingEpoch",
      "outputs": [],
      "payable": false,
      "stateMutability": "nonpayable",
      "type": "function"
    },
    {
      "constant": false,
      "inputs": [
        {
          "internalType": "address",
          "name": "_validatorSetContract",
          "type": "address"
        },
        {
          "internalType": "address[]",
          "name": "_initialStakingAddresses",
          "type": "address[]"
        },
        {
          "internalType": "uint256",
          "name": "_delegatorMinStake",
          "type": "uint256"
        },
        {
          "internalType": "uint256",
          "name": "_candidateMinStake",
          "type": "uint256"
        },
        {
          "internalType": "uint256",
          "name": "_stakingFixedEpochDuration",
          "type": "uint256"
        },
        {
          "internalType": "uint256",
          "name": "_stakingTransitionTimeframeLength",
          "type": "uint256"
        },
        {
          "internalType": "uint256",
          "name": "_stakingWithdrawDisallowPeriod",
          "type": "uint256"
        },
        {
          "internalType": "bytes32[]",
          "name": "_publicKeys",
          "type": "bytes32[]"
        },
        {
          "internalType": "bytes16[]",
          "name": "_internetAddresses",
          "type": "bytes16[]"
        }
      ],
      "name": "initialize",
      "outputs": [],
      "payable": false,
      "stateMutability": "nonpayable",
      "type": "function"
    },
    {
      "constant": true,
      "inputs": [],
      "name": "isInitialized",
      "outputs": [
        {
          "internalType": "bool",
          "name": "",
          "type": "bool"
        }
      ],
      "payable": false,
      "stateMutability": "view",
      "type": "function"
    },
    {
      "constant": true,
      "inputs": [
        {
          "internalType": "address",
          "name": "_stakingAddress",
          "type": "address"
        }
      ],
      "name": "isPoolActive",
      "outputs": [
        {
          "internalType": "bool",
          "name": "",
          "type": "bool"
        }
      ],
      "payable": false,
      "stateMutability": "view",
      "type": "function"
    },
    {
      "constant": true,
      "inputs": [
        {
          "internalType": "address",
          "name": "_poolStakingAddress",
          "type": "address"
        },
        {
          "internalType": "address",
          "name": "_staker",
          "type": "address"
        }
      ],
      "name": "maxWithdrawAllowed",
      "outputs": [
        {
          "internalType": "uint256",
          "name": "",
          "type": "uint256"
        }
      ],
      "payable": false,
      "stateMutability": "view",
      "type": "function"
    },
    {
      "constant": true,
      "inputs": [
        {
          "internalType": "address",
          "name": "_poolStakingAddress",
          "type": "address"
        },
        {
          "internalType": "address",
          "name": "_staker",
          "type": "address"
        }
      ],
      "name": "maxWithdrawOrderAllowed",
      "outputs": [
        {
          "internalType": "uint256",
          "name": "",
          "type": "uint256"
        }
      ],
      "payable": false,
      "stateMutability": "view",
      "type": "function"
    },
    {
      "constant": false,
      "inputs": [
        {
          "internalType": "address",
          "name": "_fromPoolStakingAddress",
          "type": "address"
        },
        {
          "internalType": "address",
          "name": "_toPoolStakingAddress",
          "type": "address"
        },
        {
          "internalType": "uint256",
          "name": "_amount",
          "type": "uint256"
        }
      ],
      "name": "moveStake",
      "outputs": [],
      "payable": false,
      "stateMutability": "nonpayable",
      "type": "function"
    },
    {
      "constant": false,
      "inputs": [
        {
          "internalType": "address",
          "name": "_poolStakingAddress",
          "type": "address"
        },
        {
          "internalType": "int256",
          "name": "_amount",
          "type": "int256"
        }
      ],
      "name": "orderWithdraw",
      "outputs": [],
      "payable": false,
      "stateMutability": "nonpayable",
      "type": "function"
    },
    {
      "constant": true,
      "inputs": [
        {
          "internalType": "address",
          "name": "",
          "type": "address"
        },
        {
          "internalType": "address",
          "name": "",
          "type": "address"
        }
      ],
      "name": "orderWithdrawEpoch",
      "outputs": [
        {
          "internalType": "uint256",
          "name": "",
          "type": "uint256"
        }
      ],
      "payable": false,
      "stateMutability": "view",
      "type": "function"
    },
    {
      "constant": true,
      "inputs": [
        {
          "internalType": "address",
          "name": "",
          "type": "address"
        },
        {
          "internalType": "address",
          "name": "",
          "type": "address"
        }
      ],
      "name": "orderedWithdrawAmount",
      "outputs": [
        {
          "internalType": "uint256",
          "name": "",
          "type": "uint256"
        }
      ],
      "payable": false,
      "stateMutability": "view",
      "type": "function"
    },
    {
      "constant": true,
      "inputs": [
        {
          "internalType": "address",
          "name": "",
          "type": "address"
        }
      ],
      "name": "orderedWithdrawAmountTotal",
      "outputs": [
        {
          "internalType": "uint256",
          "name": "",
          "type": "uint256"
        }
      ],
      "payable": false,
      "stateMutability": "view",
      "type": "function"
    },
    {
      "constant": true,
      "inputs": [
        {
          "internalType": "address",
          "name": "",
          "type": "address"
        },
        {
          "internalType": "address",
          "name": "",
          "type": "address"
        }
      ],
      "name": "poolDelegatorInactiveIndex",
      "outputs": [
        {
          "internalType": "uint256",
          "name": "",
          "type": "uint256"
        }
      ],
      "payable": false,
      "stateMutability": "view",
      "type": "function"
    },
    {
      "constant": true,
      "inputs": [
        {
          "internalType": "address",
          "name": "",
          "type": "address"
        },
        {
          "internalType": "address",
          "name": "",
          "type": "address"
        }
      ],
      "name": "poolDelegatorIndex",
      "outputs": [
        {
          "internalType": "uint256",
          "name": "",
          "type": "uint256"
        }
      ],
      "payable": false,
      "stateMutability": "view",
      "type": "function"
    },
    {
      "constant": true,
      "inputs": [
        {
          "internalType": "address",
          "name": "_poolStakingAddress",
          "type": "address"
        }
      ],
      "name": "poolDelegators",
      "outputs": [
        {
          "internalType": "address[]",
          "name": "",
          "type": "address[]"
        }
      ],
      "payable": false,
      "stateMutability": "view",
      "type": "function"
    },
    {
      "constant": true,
      "inputs": [
        {
          "internalType": "address",
          "name": "_poolStakingAddress",
          "type": "address"
        }
      ],
      "name": "poolDelegatorsInactive",
      "outputs": [
        {
          "internalType": "address[]",
          "name": "",
          "type": "address[]"
        }
      ],
      "payable": false,
      "stateMutability": "view",
      "type": "function"
    },
    {
      "constant": true,
      "inputs": [
        {
          "internalType": "address",
          "name": "",
          "type": "address"
        }
      ],
      "name": "poolInactiveIndex",
      "outputs": [
        {
          "internalType": "uint256",
          "name": "",
          "type": "uint256"
        }
      ],
      "payable": false,
      "stateMutability": "view",
      "type": "function"
    },
    {
      "constant": true,
      "inputs": [
        {
          "internalType": "address",
          "name": "",
          "type": "address"
        }
      ],
      "name": "poolIndex",
      "outputs": [
        {
          "internalType": "uint256",
          "name": "",
          "type": "uint256"
        }
      ],
      "payable": false,
      "stateMutability": "view",
      "type": "function"
    },
    {
      "constant": true,
      "inputs": [
        {
          "internalType": "address",
          "name": "",
          "type": "address"
        }
      ],
      "name": "poolInfo",
      "outputs": [
        {
          "internalType": "bytes",
          "name": "publicKey",
          "type": "bytes"
        },
        {
          "internalType": "bytes16",
          "name": "internetAddress",
          "type": "bytes16"
        }
      ],
      "payable": false,
      "stateMutability": "view",
      "type": "function"
    },
    {
      "constant": true,
      "inputs": [
        {
          "internalType": "address",
          "name": "",
          "type": "address"
        }
      ],
      "name": "poolToBeElectedIndex",
      "outputs": [
        {
          "internalType": "uint256",
          "name": "",
          "type": "uint256"
        }
      ],
      "payable": false,
      "stateMutability": "view",
      "type": "function"
    },
    {
      "constant": true,
      "inputs": [
        {
          "internalType": "address",
          "name": "",
          "type": "address"
        }
      ],
      "name": "poolToBeRemovedIndex",
      "outputs": [
        {
          "internalType": "uint256",
          "name": "",
          "type": "uint256"
        }
      ],
      "payable": false,
      "stateMutability": "view",
      "type": "function"
    },
    {
      "constant": false,
      "inputs": [],
      "name": "removeMyPool",
      "outputs": [],
      "payable": false,
      "stateMutability": "nonpayable",
      "type": "function"
    },
    {
      "constant": false,
      "inputs": [
        {
          "internalType": "address",
          "name": "_stakingAddress",
          "type": "address"
        }
      ],
      "name": "removePool",
      "outputs": [],
      "payable": false,
      "stateMutability": "nonpayable",
      "type": "function"
    },
    {
      "constant": false,
      "inputs": [],
      "name": "removePools",
      "outputs": [],
      "payable": false,
      "stateMutability": "nonpayable",
      "type": "function"
    },
    {
      "constant": true,
      "inputs": [
        {
          "internalType": "address",
          "name": "",
          "type": "address"
        },
        {
          "internalType": "address",
          "name": "",
          "type": "address"
        },
        {
          "internalType": "uint256",
          "name": "",
          "type": "uint256"
        }
      ],
      "name": "rewardWasTaken",
      "outputs": [
        {
          "internalType": "bool",
          "name": "",
          "type": "bool"
        }
      ],
      "payable": false,
      "stateMutability": "view",
      "type": "function"
    },
    {
      "constant": false,
      "inputs": [
        {
          "internalType": "uint256",
          "name": "_minStake",
          "type": "uint256"
        }
      ],
      "name": "setCandidateMinStake",
      "outputs": [],
      "payable": false,
      "stateMutability": "nonpayable",
      "type": "function"
    },
    {
      "constant": false,
      "inputs": [
        {
          "internalType": "uint256",
          "name": "_minStake",
          "type": "uint256"
        }
      ],
      "name": "setDelegatorMinStake",
      "outputs": [],
      "payable": false,
      "stateMutability": "nonpayable",
      "type": "function"
    },
    {
      "constant": false,
      "inputs": [
        {
          "internalType": "bytes",
          "name": "_publicKey",
          "type": "bytes"
        },
        {
          "internalType": "bytes16",
          "name": "_ip",
          "type": "bytes16"
        }
      ],
      "name": "setPoolInfo",
      "outputs": [],
      "payable": false,
      "stateMutability": "nonpayable",
      "type": "function"
    },
    {
      "constant": false,
      "inputs": [
        {
          "internalType": "uint256",
          "name": "_timestamp",
          "type": "uint256"
        }
      ],
      "name": "setStakingEpochStartTime",
      "outputs": [],
      "payable": false,
      "stateMutability": "nonpayable",
      "type": "function"
    },
    {
      "constant": false,
      "inputs": [
        {
          "internalType": "address",
          "name": "_toPoolStakingAddress",
          "type": "address"
        }
      ],
      "name": "stake",
      "outputs": [],
      "payable": true,
      "stateMutability": "payable",
      "type": "function"
    },
    {
      "constant": true,
      "inputs": [
        {
          "internalType": "address",
          "name": "",
          "type": "address"
        },
        {
          "internalType": "address",
          "name": "",
          "type": "address"
        }
      ],
      "name": "stakeAmount",
      "outputs": [
        {
          "internalType": "uint256",
          "name": "",
          "type": "uint256"
        }
      ],
      "payable": false,
      "stateMutability": "view",
      "type": "function"
    },
    {
      "constant": true,
      "inputs": [
        {
          "internalType": "address",
          "name": "_poolStakingAddress",
          "type": "address"
        },
        {
          "internalType": "address",
          "name": "_staker",
          "type": "address"
        }
      ],
      "name": "stakeAmountByCurrentEpoch",
      "outputs": [
        {
          "internalType": "uint256",
          "name": "",
          "type": "uint256"
        }
      ],
      "payable": false,
      "stateMutability": "view",
      "type": "function"
    },
    {
      "constant": true,
      "inputs": [
        {
          "internalType": "address",
          "name": "",
          "type": "address"
        }
      ],
      "name": "stakeAmountTotal",
      "outputs": [
        {
          "internalType": "uint256",
          "name": "",
          "type": "uint256"
        }
      ],
      "payable": false,
      "stateMutability": "view",
      "type": "function"
    },
    {
      "constant": true,
      "inputs": [
        {
          "internalType": "address",
          "name": "",
          "type": "address"
        },
        {
          "internalType": "address",
          "name": "",
          "type": "address"
        }
      ],
      "name": "stakeFirstEpoch",
      "outputs": [
        {
          "internalType": "uint256",
          "name": "",
          "type": "uint256"
        }
      ],
      "payable": false,
      "stateMutability": "view",
      "type": "function"
    },
    {
      "constant": true,
      "inputs": [
        {
          "internalType": "address",
          "name": "",
          "type": "address"
        },
        {
          "internalType": "address",
          "name": "",
          "type": "address"
        }
      ],
      "name": "stakeLastEpoch",
      "outputs": [
        {
          "internalType": "uint256",
          "name": "",
          "type": "uint256"
        }
      ],
      "payable": false,
      "stateMutability": "view",
      "type": "function"
    },
    {
      "constant": true,
      "inputs": [],
      "name": "stakingEpoch",
      "outputs": [
        {
          "internalType": "uint256",
          "name": "",
          "type": "uint256"
        }
      ],
      "payable": false,
      "stateMutability": "view",
      "type": "function"
    },
    {
      "constant": true,
      "inputs": [],
      "name": "stakingEpochStartBlock",
      "outputs": [
        {
          "internalType": "uint256",
          "name": "",
          "type": "uint256"
        }
      ],
      "payable": false,
      "stateMutability": "view",
      "type": "function"
    },
    {
      "constant": true,
      "inputs": [],
      "name": "stakingEpochStartTime",
      "outputs": [
        {
          "internalType": "uint256",
          "name": "",
          "type": "uint256"
        }
      ],
      "payable": false,
      "stateMutability": "view",
      "type": "function"
    },
    {
      "constant": true,
      "inputs": [],
      "name": "stakingFixedEpochDuration",
      "outputs": [
        {
          "internalType": "uint256",
          "name": "",
          "type": "uint256"
        }
      ],
      "payable": false,
      "stateMutability": "view",
      "type": "function"
    },
    {
      "constant": true,
      "inputs": [],
      "name": "stakingFixedEpochEndTime",
      "outputs": [
        {
          "internalType": "uint256",
          "name": "",
          "type": "uint256"
        }
      ],
      "payable": false,
      "stateMutability": "view",
      "type": "function"
    },
    {
      "constant": true,
      "inputs": [],
      "name": "stakingTransitionTimeframeLength",
      "outputs": [
        {
          "internalType": "uint256",
          "name": "",
          "type": "uint256"
        }
      ],
      "payable": false,
      "stateMutability": "view",
      "type": "function"
    },
    {
      "constant": true,
      "inputs": [],
      "name": "stakingWithdrawDisallowPeriod",
      "outputs": [
        {
          "internalType": "uint256",
          "name": "",
          "type": "uint256"
        }
      ],
      "payable": false,
      "stateMutability": "view",
      "type": "function"
    },
    {
      "constant": true,
      "inputs": [],
      "name": "startTimeOfNextPhaseTransition",
      "outputs": [
        {
          "internalType": "uint256",
          "name": "",
          "type": "uint256"
        }
      ],
      "payable": false,
      "stateMutability": "view",
      "type": "function"
    },
    {
      "constant": true,
      "inputs": [],
      "name": "validatorSetContract",
      "outputs": [
        {
          "internalType": "contract IValidatorSetHbbft",
          "name": "",
          "type": "address"
        }
      ],
      "payable": false,
      "stateMutability": "view",
      "type": "function"
    },
    {
      "constant": false,
      "inputs": [
        {
          "internalType": "address",
          "name": "_fromPoolStakingAddress",
          "type": "address"
        },
        {
          "internalType": "uint256",
          "name": "_amount",
          "type": "uint256"
        }
      ],
      "name": "withdraw",
      "outputs": [],
      "payable": false,
      "stateMutability": "nonpayable",
      "type": "function"
    }
  ],
  "bytecode": "0x608060405234801561001057600080fd5b506160e080620000216000396000f3fe6080604052600436106103965760003560e01c80639518c481116101dc578063d290c21d11610102578063edd7db75116100a0578063f3fef3a31161006f578063f3fef3a314611139578063f494250114611172578063fa4aaf4714611187578063fb367a9b146111ba57610396565b8063edd7db75146110c7578063edf94b82146110dc578063ee435f551461110f578063f07860961461112457610396565b8063dadee88a116100dc578063dadee88a14611013578063df6f55f514611046578063dfc8bf4e1461105b578063e9ab03001461108c57610396565b8063d290c21d14610f64578063d958e2e914610f79578063da7a9b6a14610ffe57610396565b8063a697ecff1161017a578063b61ed63a11610149578063b61ed63a14610ea8578063bc9eb2c314610ee1578063c6912cc014610f1c578063cfef144114610f3157610396565b8063a697ecff14610df2578063a711e6a114610e2d578063ae1aaf8014610e60578063b42754a514610e7557610396565b80639b03d744116101b65780639b03d74414610d5a5780639ea8082b14610d6f578063a420596714610da2578063a5d54f6514610ddd57610396565b80639518c48114610be9578063957950a714610c245780639a7b5f1114610c9457610396565b80634e9b426d116102c1578063673a2a1f1161025f578063750dd2a11161022e578063750dd2a114610b34578063794c0c6814610b6f5780638247a23914610b84578063950a651314610bae57610396565b8063673a2a1f14610a4c5780636bda157714610ab15780637069e74614610aec57806373c2180314610b0157610396565b80635659b7421161029b5780635659b7421461094157806356e4d6c21461097c5780635fef764314610a045780636511391814610a1957610396565b80634e9b426d146108515780634f9a8d8f146108f95780635267e1d61461090e57610396565b806326476204116103395780633b7d0946116103085780633b7d0946146105f15780633ea15d621461062457806348aaa4a2146106dd5780634d73b02c1461070757610396565b806326476204146105355780632bafde8d1461055b5780633172773014610585578063392e53cd146105dc57610396565b80631555371c116103755780631555371c146104765780631fb31e431461048d57806322e3d986146104dd578063251441a9146104f257610396565b80622ceebc146103d1578063028b8bdb146104265780630868c0d61461043b575b6040805162461bcd60e51b815260206004820152600b60248201526a4e6f742070617961626c6560a81b604482015290519081900360640190fd5b3480156103dd57600080fd5b50610414600480360360608110156103f457600080fd5b506001600160a01b0381358116916020810135909116906040013561127e565b60408051918252519081900360200190f35b34801561043257600080fd5b506104146112a1565b34801561044757600080fd5b506104146004803603604081101561045e57600080fd5b506001600160a01b03813581169160200135166112a7565b34801561048257600080fd5b5061048b6112c4565b005b34801561049957600080fd5b506104c0600480360360208110156104b057600080fd5b50356001600160a01b03166113ac565b604080516001600160801b03199092168252519081900360200190f35b3480156104e957600080fd5b506104146113cd565b3480156104fe57600080fd5b5061048b6004803603606081101561051557600080fd5b506001600160a01b038135811691602081013590911690604001356113f6565b61048b6004803603602081101561054b57600080fd5b50356001600160a01b031661153b565b34801561056757600080fd5b5061048b6004803603602081101561057e57600080fd5b503561158f565b34801561059157600080fd5b506105c8600480360360608110156105a857600080fd5b506001600160a01b03813581169160208101359091169060400135611632565b604080519115158252519081900360200190f35b3480156105e857600080fd5b506105c8611658565b3480156105fd57600080fd5b5061048b6004803603602081101561061457600080fd5b50356001600160a01b0316611669565b34801561063057600080fd5b5061048b6004803603604081101561064757600080fd5b810190602081018135600160201b81111561066157600080fd5b82018360208201111561067357600080fd5b803590602001918460208302840111600160201b8311171561069457600080fd5b919080806020026020016040519081016040528093929190818152602001838360200280828437600092019190915250929550505090356001600160a01b031691506116c89050565b3480156106e957600080fd5b5061048b6004803603602081101561070057600080fd5b5035611e13565b34801561071357600080fd5b5061048b600480360361012081101561072b57600080fd5b6001600160a01b038235169190810190604081016020820135600160201b81111561075557600080fd5b82018360208201111561076757600080fd5b803590602001918460208302840111600160201b8311171561078857600080fd5b91939092823592602081013592604082013592606083013592608081013592919060c081019060a00135600160201b8111156107c357600080fd5b8201836020820111156107d557600080fd5b803590602001918460208302840111600160201b831117156107f657600080fd5b919390929091602081019035600160201b81111561081357600080fd5b82018360208201111561082557600080fd5b803590602001918460208302840111600160201b8311171561084657600080fd5b509092509050611eb6565b34801561085d57600080fd5b506108846004803603602081101561087457600080fd5b50356001600160a01b0316612150565b6040805160208082528351818301528351919283929083019185019080838360005b838110156108be5781810151838201526020016108a6565b50505050905090810190601f1680156108eb5780820380516001836020036101000a031916815260200191505b509250505060405180910390f35b34801561090557600080fd5b506104146121fb565b34801561091a57600080fd5b506104146004803603602081101561093157600080fd5b50356001600160a01b0316612201565b34801561094d57600080fd5b506104146004803603604081101561096457600080fd5b506001600160a01b0381358116916020013516612213565b61048b6004803603606081101561099257600080fd5b6001600160a01b038235169190810190604081016020820135600160201b8111156109bc57600080fd5b8201836020820111156109ce57600080fd5b803590602001918460018302840111600160201b831117156109ef57600080fd5b9193509150356001600160801b031916612230565b348015610a1057600080fd5b50610414612349565b348015610a2557600080fd5b5061041460048036036020811015610a3c57600080fd5b50356001600160a01b031661234f565b348015610a5857600080fd5b50610a61612361565b60408051602080825283518183015283519192839290830191858101910280838360005b83811015610a9d578181015183820152602001610a85565b505050509050019250505060405180910390f35b348015610abd57600080fd5b5061041460048036036040811015610ad457600080fd5b506001600160a01b03813581169160200135166123c3565b348015610af857600080fd5b50610414612529565b348015610b0d57600080fd5b50610a6160048036036020811015610b2457600080fd5b50356001600160a01b031661252f565b348015610b4057600080fd5b5061041460048036036040811015610b5757600080fd5b506001600160a01b03813581169160200135166125a4565b348015610b7b57600080fd5b506104146125d9565b348015610b9057600080fd5b5061048b60048036036020811015610ba757600080fd5b50356125df565b348015610bba57600080fd5b5061041460048036036040811015610bd157600080fd5b506001600160a01b038135811691602001351661263e565b348015610bf557600080fd5b5061041460048036036040811015610c0c57600080fd5b506001600160a01b03813581169160200135166127ab565b348015610c3057600080fd5b50610c396127c8565b6040518080602001838152602001828103825284818151815260200191508051906020019060200280838360005b83811015610c7f578181015183820152602001610c67565b50505050905001935050505060405180910390f35b348015610ca057600080fd5b50610cc760048036036020811015610cb757600080fd5b50356001600160a01b031661282b565b6040518080602001836001600160801b0319166001600160801b0319168152602001828103825284818151815260200191508051906020019080838360005b83811015610d1e578181015183820152602001610d06565b50505050905090810190601f168015610d4b5780820380516001836020036101000a031916815260200191505b50935050505060405180910390f35b348015610d6657600080fd5b506104146128d5565b348015610d7b57600080fd5b50610a6160048036036020811015610d9257600080fd5b50356001600160a01b03166128db565b348015610dae57600080fd5b5061041460048036036040811015610dc557600080fd5b506001600160a01b038135811691602001351661294f565b348015610de957600080fd5b50610a6161296c565b348015610dfe57600080fd5b5061041460048036036040811015610e1557600080fd5b506001600160a01b03813581169160200135166129cc565b348015610e3957600080fd5b506105c860048036036020811015610e5057600080fd5b50356001600160a01b03166129e9565b348015610e6c57600080fd5b50610414612a42565b348015610e8157600080fd5b5061041460048036036020811015610e9857600080fd5b50356001600160a01b0316612a48565b348015610eb457600080fd5b5061048b60048036036040811015610ecb57600080fd5b506001600160a01b038135169060200135612a5a565b348015610eed57600080fd5b5061041460048036036040811015610f0457600080fd5b506001600160a01b0381358116916020013516612f5d565b348015610f2857600080fd5b50610414612f7a565b348015610f3d57600080fd5b5061048b60048036036020811015610f5457600080fd5b50356001600160a01b0316612f88565b348015610f7057600080fd5b50610a61613298565b348015610f8557600080fd5b5061048b60048036036040811015610f9c57600080fd5b810190602081018135600160201b811115610fb657600080fd5b820183602082011115610fc857600080fd5b803590602001918460018302840111600160201b83111715610fe957600080fd5b9193509150356001600160801b0319166132f8565b34801561100a57600080fd5b50610414613341565b34801561101f57600080fd5b506104146004803603602081101561103657600080fd5b50356001600160a01b0316613347565b34801561105257600080fd5b50610a61613359565b34801561106757600080fd5b506110706133b9565b604080516001600160a01b039092168252519081900360200190f35b34801561109857600080fd5b50610414600480360360408110156110af57600080fd5b506001600160a01b03813581169160200135166133c8565b3480156110d357600080fd5b5061048b6133e5565b3480156110e857600080fd5b50610414600480360360208110156110ff57600080fd5b50356001600160a01b03166135af565b34801561111b57600080fd5b5061048b6135c1565b34801561113057600080fd5b5061041461361f565b34801561114557600080fd5b5061048b6004803603604081101561115c57600080fd5b506001600160a01b038135169060200135613625565b34801561117e57600080fd5b506105c8613717565b34801561119357600080fd5b50610414600480360360208110156111aa57600080fd5b50356001600160a01b031661371c565b3480156111c657600080fd5b50610414600480360360608110156111dd57600080fd5b810190602081018135600160201b8111156111f757600080fd5b82018360208201111561120957600080fd5b803590602001918460208302840111600160201b8311171561122a57600080fd5b919080806020026020016040519081016040528093929190818152602001838360200280828437600092019190915250929550506001600160a01b03833581169450602090930135909216915061372e9050565b600b60209081526000938452604080852082529284528284209052825290205481565b60195481565b600f60209081526000928352604080842090915290825290205481565b6020546001600160a01b03163314611317576040805162461bcd60e51b815260206004820152601160248201527013db9b1e4815985b1a59185d1bdc94d95d607a1b604482015290519081900360640190fd5b6060600380548060200260200160405190810160405280929190818152602001828054801561136f57602002820191906000526020600020905b81546001600160a01b03168152600190910190602001808311611351575b50939450600093505050505b81518110156113a8576113a082828151811061139357fe5b6020026020010151613c8c565b60010161137b565b5050565b6001600160a01b031660009081526021602052604090206001015460801b90565b601d54601b5460009190156113e35760016113e6565b60005b60ff16601b548201039150505b90565b3a611438576040805162461bcd60e51b815260206004820152600d60248201526c04761735072696365206973203609c1b604482015290519081900360640190fd5b611440611658565b61147f576040805162461bcd60e51b81526020600482015260186024820152600080516020615edd833981519152604482015290519081900360640190fd5b816001600160a01b0316836001600160a01b031614156114d05760405162461bcd60e51b8152600401808060200182810382526027815260200180615efd6027913960400191505060405180910390fd5b336114dc848284613dad565b6114e783828461402c565b601a54604080516001600160a01b03878116825260208201869052825181861693918816927f4480d8e4b1e9095b94bf513961d26fe1d32386ebdd103d18fe8738cf4b2223ff92908290030190a450505050565b3a61157d576040805162461bcd60e51b815260206004820152600d60248201526c04761735072696365206973203609c1b604482015290519081900360640190fd5b333461158a83838361402c565b505050565b6115976144e7565b6001600160a01b0316336001600160a01b0316146115e65760405162461bcd60e51b815260040180806020018281038252602b815260200180616016602b913960400191505060405180910390fd5b6115ee611658565b61162d576040805162461bcd60e51b81526020600482015260186024820152600080516020615edd833981519152604482015290519081900360640190fd5b600a55565b601560209081526000938452604080852082529284528284209052825290205460ff1681565b6020546001600160a01b0316151590565b6020546001600160a01b031633146116bc576040805162461bcd60e51b815260206004820152601160248201527013db9b1e4815985b1a59185d1bdc94d95d607a1b604482015290519081900360640190fd5b6116c581613c8c565b50565b3a61170a576040805162461bcd60e51b815260206004820152600d60248201526c04761735072696365206973203609c1b604482015290519081900360640190fd5b611712611658565b611751576040805162461bcd60e51b81526020600482015260186024820152600080516020615edd833981519152604482015290519081900360640190fd5b336000806001600160a01b0384168314611807576001600160a01b038085166000908152601760209081526040808320938716835292905220549150816117df576040805162461bcd60e51b815260206004820152601d60248201527f436c61696d3a2066697273742065706f63682063616e27742062652030000000604482015290519081900360640190fd5b506001600160a01b038084166000908152601860209081526040808320938616835292905220545b6020805460408051632b5aa5d760e11b815290516000936001600160a01b03909316926356b54bae9260048082019391829003018186803b15801561184b57600080fd5b505afa15801561185f573d6000803e3d6000fd5b505050506040513d602081101561187557600080fd5b505160208054604080516253517560e01b81526001600160a01b038a8116600483015291519495506000949190921692625351759260248082019391829003018186803b1580156118c557600080fd5b505afa1580156118d9573d6000803e3d6000fd5b505050506040513d60208110156118ef57600080fd5b505187519091506000908190611a1f57836001600160a01b031663dd03f5b9846040518263ffffffff1660e01b815260040180826001600160a01b03166001600160a01b0316815260200191505060006040518083038186803b15801561195557600080fd5b505afa158015611969573d6000803e3d6000fd5b505050506040513d6000823e601f3d908101601f19168201604052602081101561199257600080fd5b8101908080516040519392919084600160201b8211156119b157600080fd5b9083019060208201858111156119c657600080fd5b82518660208202830111600160201b821117156119e257600080fd5b82525081516020918201928201910280838360005b83811015611a0f5781810151838201526020016119f7565b5050505090500160405250505098505b60005b8951811015611d8f5760008a8281518110611a3957fe5b602002602001015190508160001480611a6757508a6001830381518110611a5c57fe5b602002602001015181115b611aa25760405162461bcd60e51b8152600401808060200182810382526025815260200180615bec6025913960400191505060405180910390fd5b601a548110611af8576040805162461bcd60e51b815260206004820181905260248201527f436c61696d3a206f6e6c79206265666f72652063757272656e742065706f6368604482015290519081900360640190fd5b6001600160a01b03808b166000908152601560209081526040808320938d1683529281528282208483529052205460ff1615611b345750611d87565b6000896001600160a01b03168b6001600160a01b031614611c275788821015611b5e575050611d87565b818811158015611b6d57508715155b15611b79575050611d8f565b611b86828a868e8e61450c565b9350816001019850866001600160a01b031663e1ab96d88584896040518463ffffffff1660e01b815260040180848152602001838152602001826001600160a01b03166001600160a01b03168152602001935050505060206040518083038186803b158015611bf457600080fd5b505afa158015611c08573d6000803e3d6000fd5b505050506040513d6020811015611c1e57600080fd5b50519050611cb4565b866001600160a01b031663ba2d759783886040518363ffffffff1660e01b815260040180838152602001826001600160a01b03166001600160a01b031681526020019250505060206040518083038186803b158015611c8557600080fd5b505afa158015611c99573d6000803e3d6000fd5b505050506040513d6020811015611caf57600080fd5b505190505b611cc4858263ffffffff61458116565b94506001601560008d6001600160a01b03166001600160a01b0316815260200190815260200160002060008c6001600160a01b03166001600160a01b03168152602001908152602001600020600084815260200190815260200160002060006101000a81548160ff021916908315150217905550818a6001600160a01b03168c6001600160a01b03167fd3208fd5300db64b97bc442f47ade72b7ebcd9272aaecdcc04c777bb762861b9846040518082815260200191505060405180910390a450505b600101611a22565b50836001600160a01b031663469507c683896040518363ffffffff1660e01b815260040180838152602001826001600160a01b03166001600160a01b0316815260200192505050600060405180830381600087803b158015611df057600080fd5b505af1158015611e04573d6000803e3d6000fd5b50505050505050505050505050565b611e1b6144e7565b6001600160a01b0316336001600160a01b031614611e6a5760405162461bcd60e51b815260040180806020018281038252602b815260200180616016602b913960400191505060405180910390fd5b611e72611658565b611eb1576040805162461bcd60e51b81526020600482015260186024820152600080516020615edd833981519152604482015290519081900360640190fd5b600955565b86611f08576040805162461bcd60e51b815260206004820152601760248201527f466978656445706f63684475726174696f6e2069732030000000000000000000604482015290519081900360640190fd5b848711611f465760405162461bcd60e51b815260040180806020018281038252603d815260200180615e19603d913960400191505060405180910390fd5b84611f98576040805162461bcd60e51b815260206004820152601b60248201527f5769746864726177446973616c6c6f77506572696f6420697320300000000000604482015290519081900360640190fd5b85611fd45760405162461bcd60e51b815260040180806020018281038252602e815260200180615dc6602e913960400191505060405180910390fd5b8686106120125760405162461bcd60e51b8152600401808060200182810382526040815260200180615f5d6040913960400191505060405180910390fd5b6120c48c8c8c80806020026020016040519081016040528093929190818152602001838360200280828437600081840152601f19601f820116905080830192505050505050508b8b88888080602002602001604051908101604052809392919081815260200183836020028082843760009201919091525050604080516020808c0282810182019093528b82529093508b92508a91829185019084908082843760009201919091525061459392505050565b601b87905560198590556020805460408051636c9230db60e01b815290516001600160a01b0390921692636c9230db92600480840193829003018186803b15801561210e57600080fd5b505afa158015612122573d6000803e3d6000fd5b505050506040513d602081101561213857600080fd5b5051601d55505050601c929092555050505050505050565b6001600160a01b03811660009081526021602090815260409182902080548351601f60026000196101006001861615020190931692909204918201849004840281018401909452808452606093928301828280156121ef5780601f106121c4576101008083540402835291602001916121ef565b820191906000526020600020905b8154815290600101906020018083116121d257829003601f168201915b50505050509050919050565b601b5481565b601f6020526000908152604090205481565b601760209081526000928352604080842090915290825290205481565b3a612272576040805162461bcd60e51b815260206004820152600d60248201526c04761735072696365206973203609c1b604482015290519081900360640190fd5b60205460408051630526083960e11b81526001600160a01b0387811660048301523360248301819052925192933493911691630a4c107291604480830192600092919082900301818387803b1580156122ca57600080fd5b505af11580156122de573d6000803e3d6000fd5b505050506122ed82838361402c565b6001600160a01b0382166000908152602160205260409020612310908686615a4f565b50506001600160a01b0316600090815260216020526040902060010180546001600160801b03191660809290921c919091179055505050565b60095481565b60116020526000908152604090205481565b606060008054806020026020016040519081016040528092919081815260200182805480156123b957602002820191906000526020600020905b81546001600160a01b0316815260019091019060200180831161239b575b5050505050905090565b60208054604080516253517560e01b81526001600160a01b038681166004830152915160009485949390931692625351759260248082019391829003018186803b15801561241057600080fd5b505afa158015612424573d6000803e3d6000fd5b505050506040513d602081101561243a57600080fd5b50519050612457816001600160a01b038681169086161415614a28565b612465576000915050612523565b6001600160a01b0380851660009081526016602090815260408083208785168452825291829020548154835163a0d16cad60e01b8152868616600482015293519194169263a0d16cad926024808301939192829003018186803b1580156124cb57600080fd5b505afa1580156124df573d6000803e3d6000fd5b505050506040513d60208110156124f557600080fd5b50516125045791506125239050565b600061251086866125a4565b90508082111561251e578091505b509150505b92915050565b601e5481565b6001600160a01b0381166000908152600760209081526040918290208054835181840281018401909452808452606093928301828280156121ef57602002820191906000526020600020905b81546001600160a01b0316815260019091019060200180831161257b5750505050509050919050565b6001600160a01b039182166000908152600860209081526040808320939094168252918252828120601a548252909152205490565b601a5481565b6020546001600160a01b03163314612632576040805162461bcd60e51b815260206004820152601160248201527013db9b1e4815985b1a59185d1bdc94d95d607a1b604482015290519081900360640190fd5b601d5560014301601e55565b60208054604080516253517560e01b81526001600160a01b038681166004830152915160009485949390931692625351759260248082019391829003018186803b15801561268b57600080fd5b505afa15801561269f573d6000803e3d6000fd5b505050506040513d60208110156126b557600080fd5b505190506126d2816001600160a01b038681169086161415614a28565b6126e0576000915050612523565b602080546040805163a0d16cad60e01b81526001600160a01b0385811660048301529151919092169263a0d16cad9260248082019391829003018186803b15801561272a57600080fd5b505afa15801561273e573d6000803e3d6000fd5b505050506040513d602081101561275457600080fd5b5051612764576000915050612523565b6127a361277185856125a4565b6001600160a01b038087166000908152601660209081526040808320938916835292905220549063ffffffff614b5816565b949350505050565b601060209081526000928352604080842090915290825290205481565b6060600060046005548180548060200260200160405190810160405280929190818152602001828054801561281c57602002820191906000526020600020905b815481526020019060010190808311612808575b50505050509150915091509091565b60216020908152600091825260409182902080548351601f600260001961010060018616150201909316929092049182018490048402810184019094528084529092918391908301828280156128c25780601f10612897576101008083540402835291602001916128c2565b820191906000526020600020905b8154815290600101906020018083116128a557829003601f168201915b5050506001909301549192505060801b82565b601d5481565b6001600160a01b0381166000908152600660209081526040918290208054835181840281018401909452808452606093928301828280156121ef576020028201919060005260206000209081546001600160a01b0316815260019091019060200180831161257b5750505050509050919050565b600e60209081526000928352604080842090915290825290205481565b606060028054806020026020016040519081016040528092919081815260200182805480156123b9576020028201919060005260206000209081546001600160a01b0316815260019091019060200180831161239b575050505050905090565b601660209081526000928352604080842090915290825290205481565b6001600160a01b038116600090815260126020526040812054815481108015612a3b5750826001600160a01b031660008281548110612a2457fe5b6000918252602090912001546001600160a01b0316145b9392505050565b601c5481565b60126020526000908152604090205481565b3a612a9c576040805162461bcd60e51b815260206004820152600d60248201526c04761735072696365206973203609c1b604482015290519081900360640190fd5b612aa4611658565b612ae3576040805162461bcd60e51b81526020600482015260186024820152600080516020615edd833981519152604482015290519081900360640190fd5b6001600160a01b038216612b285760405162461bcd60e51b8152600401808060200182810382526022815260200180615c956022913960400191505060405180910390fd5b80612b645760405162461bcd60e51b8152600401808060200182810382526025815260200180615df46025913960400191505060405180910390fd5b60208054604080516253517560e01b81526001600160a01b03868116600483015291513394612bf3949390931692625351759260248082019391829003018186803b158015612bb257600080fd5b505afa158015612bc6573d6000803e3d6000fd5b505050506040513d6020811015612bdc57600080fd5b50516001600160a01b038381169086161415614a28565b612c44576040805162461bcd60e51b815260206004820152601a60248201527f4f7264657257697468647261773a206e6f7420616c6c6f776564000000000000604482015290519081900360640190fd5b6001600160a01b038084166000818152600c6020908152604080832094861680845294825280832054848452600d8352818420546016845282852096855295835281842054948452601f90925282205490939291861315612d605785612caa888761263e565b811115612ce85760405162461bcd60e51b815260040180806020018281038252602f81526020018061607d602f913960400191505060405180910390fd5b612cf8858263ffffffff61458116565b9450612d0a848263ffffffff61458116565b9350612d1c838263ffffffff614b5816565b9250612d2e828263ffffffff614b5816565b601a546001600160a01b03808b166000908152600e60209081526040808320938c16835292905220559150612daf9050565b6000869003612d75858263ffffffff614b5816565b9450612d87848263ffffffff614b5816565b9350612d99838263ffffffff61458116565b9250612dab828263ffffffff61458116565b9150505b6001600160a01b038088166000818152600c60209081526040808320948a16808452948252808320899055838352600d8252808320889055601682528083208584528252808320879055838352601f90915290208390551415612e8257811580612e1b57506009548210155b612e565760405162461bcd60e51b8152600401808060200182810382526033815260200180615cb76033913960400191505060405180910390fd5b6000861315612e725781612e6d57612e6d87614b6d565b612e7d565b612e7d876001614c2b565b612efd565b811580612e915750600a548210155b612ecc5760405162461bcd60e51b8152600401808060200182810382526033815260200180615cb76033913960400191505060405180910390fd5b6000861315612ee95781612ee457612ee48786614d07565b612ef3565b612ef38786614e5f565b612efd8786614f28565b612f068761501a565b601a54856001600160a01b0316886001600160a01b03167f80d5c777e5f7ac6ee89723223803ca5c0ec0204f89e99c1b0cde973c66a64594896040518082815260200191505060405180910390a450505050505050565b601860209081526000928352604080842090915290825290205481565b601c54601b54601d54010390565b3a612fca576040805162461bcd60e51b815260206004820152600d60248201526c04761735072696365206973203609c1b604482015290519081900360640190fd5b612fd2611658565b613011576040805162461bcd60e51b81526020600482015260186024820152600080516020615edd833981519152604482015290519081900360640190fd5b6001600160a01b0381166000908152600e6020908152604080832033808552925290912054601a54116130755760405162461bcd60e51b815260040180806020018281038252603f815260200180615e56603f913960400191505060405180910390fd5b60208054604080516253517560e01b81526001600160a01b03868116600483015291516131049492909316926253517592602480840193919291829003018186803b1580156130c357600080fd5b505afa1580156130d7573d6000803e3d6000fd5b505050506040513d60208110156130ed57600080fd5b50516001600160a01b038381169085161415614a28565b61313f5760405162461bcd60e51b815260040180806020018281038252602a815260200180615fec602a913960400191505060405180910390fd5b6001600160a01b038083166000908152600c6020908152604080832093851683529290522054806131b7576040805162461bcd60e51b815260206004820152601a60248201527f636c61696d20616d6f756e74206d757374206e6f742062652030000000000000604482015290519081900360640190fd5b6001600160a01b038084166000818152600c602090815260408083209487168352938152838220829055918152600d90915220546131fb908263ffffffff614b5816565b6001600160a01b038085166000908152600d602090815260408083209490945560168152838220928616825291909152205461323b5761323b83836150d9565b6132458282615228565b601a54826001600160a01b0316846001600160a01b03167ff380b0bc887e00f5b50d3c9d4eaaf5c9a0afd97b956316b995159384c4ede9b3846040518082815260200191505060405180910390a4505050565b606060038054806020026020016040519081016040528092919081815260200182805480156123b9576020028201919060005260206000209081546001600160a01b0316815260019091019060200180831161239b575050505050905090565b336000908152602160205260409020613312908484615a4f565b5033600090815260216020526040902060010180546001600160801b03191660809290921c9190911790555050565b600a5481565b600d6020526000908152604090205481565b606060018054806020026020016040519081016040528092919081815260200182805480156123b9576020028201919060005260206000209081546001600160a01b0316815260019091019060200180831161239b575050505050905090565b6020546001600160a01b031681565b600c60209081526000928352604080842090915290825290205481565b3a613427576040805162461bcd60e51b815260206004820152600d60248201526c04761735072696365206973203609c1b604482015290519081900360640190fd5b61342f611658565b61346e576040805162461bcd60e51b81526020600482015260186024820152600080516020615edd833981519152604482015290519081900360640190fd5b60208054604080516253517560e01b81523360048201819052915191936000936001600160a01b03169262535175926024808201939291829003018186803b1580156134b957600080fd5b505afa1580156134cd573d6000803e3d6000fd5b505050506040513d60208110156134e357600080fd5b5051601a5490915015158061356b5750602080546040805163facd743b60e01b81526001600160a01b0385811660048301529151919092169263facd743b9260248082019391829003018186803b15801561353d57600080fd5b505afa158015613551573d6000803e3d6000fd5b505050506040513d602081101561356757600080fd5b5051155b6135a65760405162461bcd60e51b815260040180806020018281038252602a815260200180615fc2602a913960400191505060405180910390fd5b6113a882613c8c565b60146020526000908152604090205481565b6020546001600160a01b03163314613614576040805162461bcd60e51b815260206004820152601160248201527013db9b1e4815985b1a59185d1bdc94d95d607a1b604482015290519081900360640190fd5b601a80546001019055565b610bb881565b3a613667576040805162461bcd60e51b815260206004820152600d60248201526c04761735072696365206973203609c1b604482015290519081900360640190fd5b61366f611658565b6136ae576040805162461bcd60e51b81526020600482015260186024820152600080516020615edd833981519152604482015290519081900360640190fd5b336136ba838284613dad565b6136c48183615228565b601a54816001600160a01b0316846001600160a01b03167fa7c0f0cac6bd4d18042007706c84a8abe823751cf289b69c01e83eef7b5915c7856040518082815260200191505060405180910390a4505050565b600190565b60136020526000908152604090205481565b6000806000836001600160a01b0316856001600160a01b0316146137d8576001600160a01b038086166000908152601760209081526040808320938816835292905220549150816137b05760405162461bcd60e51b815260040180806020018281038252602e815260200180615c11602e913960400191505060405180910390fd5b506001600160a01b038085166000908152601860209081526040808320938716835292905220545b6020805460408051632b5aa5d760e11b815290516000936001600160a01b03909316926356b54bae9260048082019391829003018186803b15801561381c57600080fd5b505afa158015613830573d6000803e3d6000fd5b505050506040513d602081101561384657600080fd5b505160208054604080516253517560e01b81526001600160a01b038b8116600483015291519495506000949190921692625351759260248082019391829003018186803b15801561389657600080fd5b505afa1580156138aa573d6000803e3d6000fd5b505050506040513d60208110156138c057600080fd5b5051885190915060009081906139f057836001600160a01b031663dd03f5b9846040518263ffffffff1660e01b815260040180826001600160a01b03166001600160a01b0316815260200191505060006040518083038186803b15801561392657600080fd5b505afa15801561393a573d6000803e3d6000fd5b505050506040513d6000823e601f3d908101601f19168201604052602081101561396357600080fd5b8101908080516040519392919084600160201b82111561398257600080fd5b90830190602082018581111561399757600080fd5b82518660208202830111600160201b821117156139b357600080fd5b82525081516020918201928201910280838360005b838110156139e05781810151838201526020016139c8565b5050505090500160405250505099505b60005b8a51811015613c7e5760008b8281518110613a0a57fe5b602002602001015190508160001480613a3857508b6001830381518110613a2d57fe5b602002602001015181115b613a735760405162461bcd60e51b8152600401808060200182810382526036815260200180615d0f6036913960400191505060405180910390fd5b601a548110613ab35760405162461bcd60e51b815260040180806020018281038252603c815260200180616041603c913960400191505060405180910390fd5b6001600160a01b03808c166000908152601560209081526040808320938e1683529281528282208483529052205460ff1615613aef5750613c76565b60008a6001600160a01b03168c6001600160a01b031614613be25788821015613b19575050613c76565b818811158015613b2857508715155b15613b34575050613c7e565b613b41828a878f8f61450c565b9450816001019850866001600160a01b031663e1ab96d88684896040518463ffffffff1660e01b815260040180848152602001838152602001826001600160a01b03166001600160a01b03168152602001935050505060206040518083038186803b158015613baf57600080fd5b505afa158015613bc3573d6000803e3d6000fd5b505050506040513d6020811015613bd957600080fd5b50519050613c6f565b866001600160a01b031663ba2d759783886040518363ffffffff1660e01b815260040180838152602001826001600160a01b03166001600160a01b031681526020019250505060206040518083038186803b158015613c4057600080fd5b505afa158015613c54573d6000803e3d6000fd5b505050506040513d6020811015613c6a57600080fd5b505190505b9290920191505b6001016139f3565b509998505050505050505050565b6001600160a01b038116600090815260126020526040812054905481108015613cde5750816001600160a01b031660008281548110613cc757fe5b6000918252602090912001546001600160a01b0316145b15613d76576000805481906000198101908110613cf757fe5b600091825260208220015481546001600160a01b03909116925082919084908110613d1e57fe5b600091825260208083209190910180546001600160a01b0319166001600160a01b0394851617905583831682526012905260408082208590559185168152908120819055805490613d73906000198301615acd565b50505b613d7f8261528b565b15613d9257613d8d826152c9565b613d9b565b613d9b826153b5565b613da48261546d565b6113a882615611565b6001600160a01b038316613df25760405162461bcd60e51b815260040180806020018281038252602e815260200180615d45602e913960400191505060405180910390fd5b80613e44576040805162461bcd60e51b815260206004820181905260248201527f616d6f756e7420746f207769746864726177206d757374206e6f742062652030604482015290519081900360640190fd5b613e4e83836123c3565b811115613e8c5760405162461bcd60e51b8152600401808060200182810382526025815260200180615cea6025913960400191505060405180910390fd5b6001600160a01b038084166000908152601660209081526040808320938616835292905290812054613ec4908363ffffffff614b5816565b90506000836001600160a01b0316856001600160a01b031614613ee957600a54613eed565b6009545b9050811580613efc5750808210155b613f375760405162461bcd60e51b8152600401808060200182810382526039815260200180615f246039913960400191505060405180910390fd5b6001600160a01b0380861660009081526016602090815260408083209388168352929052908120839055613f6b86866125a4565b905083811015613f7c576000613f80565b8381035b6001600160a01b038088166000818152600860209081526040808320948b168352938152838220601a548352815283822094909455908152601f909252902054613fd0908563ffffffff614b5816565b6001600160a01b0387166000908152601f602052604090205582613ff857613ff886866150d9565b856001600160a01b0316856001600160a01b03161461401b5761401b8686614f28565b6140248661501a565b505050505050565b60208054604080516253517560e01b81526001600160a01b038781166004830152915160009492909316926253517592602480840193919291829003018186803b15801561407957600080fd5b505afa15801561408d573d6000803e3d6000fd5b505050506040513d60208110156140a357600080fd5b505190506001600160a01b038116614102576040805162461bcd60e51b815260206004820152601960248201527f5374616b653a206d696e696e6741646472657373206973203000000000000000604482015290519081900360640190fd5b6001600160a01b03841661415d576040805162461bcd60e51b815260206004820152601a60248201527f5374616b653a207374616b696e67416464726573732069732030000000000000604482015290519081900360640190fd5b816141af576040805162461bcd60e51b815260206004820152601960248201527f5374616b653a207374616b696e67416d6f756e74206973203000000000000000604482015290519081900360640190fd5b6020805460408051635491295760e11b81526001600160a01b0385811660048301529151919092169263a92252ae9260248082019391829003018186803b1580156141f957600080fd5b505afa15801561420d573d6000803e3d6000fd5b505050506040513d602081101561422357600080fd5b505115614277576040805162461bcd60e51b815260206004820152601f60248201527f5374616b653a204d696e696e6720616464726573732069732062616e6e656400604482015290519081900360640190fd5b6001600160a01b0380851660009081526016602090815260408083209387168352929052908120546142af908463ffffffff61458116565b9050846001600160a01b0316846001600160a01b031614156143115760095481101561430c5760405162461bcd60e51b8152600401808060200182810382526031815260200180615d736031913960400191505060405180910390fd5b6143ae565b600a548110156143525760405162461bcd60e51b8152600401808060200182810382526034815260200180615bb86034913960400191505060405180910390fd5b6001600160a01b03851660009081526016602090815260408083209091529020546143ae5760405162461bcd60e51b8152600401808060200182810382526023815260200180615eba6023913960400191505060405180910390fd5b6001600160a01b0380861660009081526016602090815260408083209388168352929052208190556143f0836143e487876125a4565b9063ffffffff61458116565b6001600160a01b038087166000818152600860209081526040808320948a168352938152838220601a548352815283822094909455908152601f909252902054614440908463ffffffff61458116565b6001600160a01b038087166000818152601f60205260409020929092558516141561447557614470856001614c2b565b614489565b61447f8585614e5f565b6144898585614f28565b6144928561501a565b601a54846001600160a01b0316866001600160a01b03167f2273de02cb1f69ba6259d22c4bc22c60e4c94c193265ef6afee324a04a9b6d22866040518082815260200191505060405180910390a45050505050565b7fb53127684a568b3173ae13b9f8a6016e243e63b6e8ee1178d6a717850b5d61035490565b60005b506001600160a01b038083166000908152600b60209081526040808320938516835292815282822088835290522054801561455d5760001981146145535780614556565b60005b9050614578565b8486141561456c575082614578565b6000199095019461450f565b95945050505050565b600082820183811015612a3b57600080fd5b61459b6144e7565b6001600160a01b0316336001600160a01b031614806145d257506145bd6144e7565b6001600160a01b0316326001600160a01b0316145b806145eb57506145e06144e7565b6001600160a01b0316155b806145f4575043155b61462f5760405162461bcd60e51b8152600401808060200182810382526030815260200180615c656030913960400191505060405180910390fd5b614637611658565b1561467f576040805162461bcd60e51b8152602060048201526013602482015272105b1c9958591e481a5b9a5d1a585b1a5e9959606a1b604482015290519081900360640190fd5b6001600160a01b0386166146da576040805162461bcd60e51b815260206004820152601760248201527f56616c696461746f725365742063616e27742062652030000000000000000000604482015290519081900360640190fd5b600085511161471a5760405162461bcd60e51b8152600401808060200182810382526025815260200180615e956025913960400191505060405180910390fd5b8151855161472f90600263ffffffff6156fd16565b1461476b5760405162461bcd60e51b8152600401808060200182810382526025815260200180615f9d6025913960400191505060405180910390fd5b80518551146147ab5760405162461bcd60e51b8152600401808060200182810382526026815260200180615c3f6026913960400191505060405180910390fd5b836147f6576040805162461bcd60e51b8152602060048201526016602482015275044656c656761746f724d696e5374616b6520697320360541b604482015290519081900360640190fd5b82614841576040805162461bcd60e51b8152602060048201526016602482015275043616e6469646174654d696e5374616b6520697320360541b604482015290519081900360640190fd5b602080546001600160a01b0319166001600160a01b03881617905560005b8551811015614a185760006001600160a01b031686828151811061487f57fe5b60200260200101516001600160a01b031614156148cd5760405162461bcd60e51b8152600401808060200182810382526022815260200180615da46022913960400191505060405180910390fd5b6148eb8682815181106148dc57fe5b60200260200101516000614c2b565b6149078682815181106148fa57fe5b6020026020010151614b6d565b82816002028151811061491657fe5b602002602001015183826002026001018151811061493057fe5b602002602001015160405160200180838152602001828152602001925050506040516020818303038152906040526021600088848151811061496e57fe5b60200260200101516001600160a01b03166001600160a01b0316815260200190815260200160002060000190805190602001906149ac929190615af1565b508181815181106149b957fe5b6020026020010151602160008884815181106149d157fe5b6020908102919091018101516001600160a01b03168252810191909152604001600020600190810180546001600160801b03191660809390931c929092179091550161485f565b505050600a919091556009555050565b60008115614ab857602080546040805163a881c5fd60e01b81526001600160a01b0387811660048301529151919092169263a881c5fd9260248082019391829003018186803b158015614a7a57600080fd5b505afa158015614a8e573d6000803e3d6000fd5b505050506040513d6020811015614aa457600080fd5b505115614ab357506000612523565b614b3b565b6020805460408051635491295760e11b81526001600160a01b0387811660048301529151919092169263a92252ae9260248082019391829003018186803b158015614b0257600080fd5b505afa158015614b16573d6000803e3d6000fd5b505050506040513d6020811015614b2c57600080fd5b505115614b3b57506000612523565b614b43613717565b614b4f57506000612523565b50600192915050565b600082821115614b6757600080fd5b50900390565b6001600160a01b0381166000908152601460205260409020546003548082101580614bc25750826001600160a01b031660038381548110614baa57fe5b6000918252602090912001546001600160a01b031614155b15614c22576001600160a01b03831660008181526014602052604081208390556003805460018101825591527fc2575a0e9e593c00f959f8c92f12db2869c3395a3b0502d05e2516446f71f85b0180546001600160a01b03191690911790555b61158a8361546d565b614c34826129e9565b614cef57600080546001600160a01b0384168083526012602052604083208290556001820183559180527f290decd9548b62a8d60345a988386fc84ba6bc95484008f6362f93160ef3e5630180546001600160a01b0319169091179055614c99615724565b6000541115614cef576040805162461bcd60e51b815260206004820152601d60248201527f4d41585f43414e4449444154455320706f6f6c73206578636565646564000000604482015290519081900360640190fd5b614cf8826152c9565b80156113a8576113a88261572a565b6001600160a01b038083166000908152600660209081526040808320600f8352818420948616845293909152902054815481108015614d6e5750826001600160a01b0316828281548110614d5757fe5b6000918252602090912001546001600160a01b0316145b15614e1557815460009083906000198101908110614d8857fe5b9060005260206000200160009054906101000a90046001600160a01b0316905080838381548110614db557fe5b600091825260208083209190910180546001600160a01b0319166001600160a01b039485161790558783168252600f8152604080832085851684529091528082208590559186168152908120558254614e12846000198301615acd565b50505b6001600160a01b038085166000908152600c602090815260408083209387168352929052205415614e4f57614e4a8484615819565b614e59565b614e5984846158d7565b50505050565b6001600160a01b038083166000908152600660209081526040808320600f835281842094861684529390915290205481548082101580614ec85750836001600160a01b0316838381548110614eb057fe5b6000918252602090912001546001600160a01b031614155b15614f17576001600160a01b038086166000908152600f602090815260408083209388168084529382528220849055855460018101875586835291200180546001600160a01b03191690911790555b614f2185856158d7565b5050505050565b601a546001600160a01b0380841660009081526016602090815260408083209386168352929052205460019091019080614f6457600019614f66565b805b6001600160a01b038086166000818152600b60209081526040808320948916808452948252808320888452825280832095909555918152601782528381209281529190522054614fd9576001600160a01b0380851660009081526017602090815260408083209387168352929052208290555b8015614fe6576000614fe8565b815b6001600160a01b0394851660009081526018602090815260408083209690971682529490945293909220929092555050565b600080615026836159e2565b91509150816150365750506116c5565b60006004828154811061504557fe5b906000526020600020015490506000601f6000866001600160a01b03166001600160a01b03168152602001908152602001600020549050806004848154811061508a57fe5b6000918252602090912001558181106150ba576005546150b29083830363ffffffff61458116565b600555614f21565b6005546150cf9082840363ffffffff614b5816565b6005555050505050565b816001600160a01b0316816001600160a01b031614156152075760208054604080516253517560e01b81526001600160a01b038681166004830152915160009492909316926253517592602480840193919291829003018186803b15801561514057600080fd5b505afa158015615154573d6000803e3d6000fd5b505050506040513d602081101561516a57600080fd5b5051602080546040805163facd743b60e01b81526001600160a01b038086166004830152915194955091169263facd743b92602480840193919291829003018186803b1580156151b957600080fd5b505afa1580156151cd573d6000803e3d6000fd5b505050506040513d60208110156151e357600080fd5b5051156151f8576151f383614b6d565b615201565b61520183613c8c565b506113a8565b6152118282614d07565b61521a8261528b565b156113a8576113a8826152c9565b6040516001600160a01b0383169082156108fc029083906000818181858888f193505050506113a857808260405161525f90615b5f565b6001600160a01b039091168152604051908190036020019082f080158015614f21573d6000803e3d6000fd5b6001600160a01b0381166000908152601f60205260408120541580156125235750506001600160a01b03166000908152600d60205260409020541590565b6001600160a01b0381166000908152601160205260409020546001548110801561531c5750816001600160a01b03166001828154811061530557fe5b6000918252602090912001546001600160a01b0316145b156113a8576001805460009190600019810190811061533757fe5b600091825260209091200154600180546001600160a01b03909216925082918490811061536057fe5b600091825260208083209190910180546001600160a01b0319166001600160a01b0394851617905583831682526011905260408082208590559185168152908120556001805490614e59906000198301615acd565b6001600160a01b038116600090815260116020526040902054600154808210158061540a5750826001600160a01b0316600183815481106153f257fe5b6000918252602090912001546001600160a01b031614155b1561158a576001600160a01b038316600081815260116020526040812083905560018054808201825591527fb10e2d527612073b26eecdfd717e6a320cf44b4afac2b0732d9fcbe2b7fa0cf60180546001600160a01b0319169091179055505050565b6004546002541461547d576116c5565b6001600160a01b038116600090815260136020526040902054600254811080156154d05750816001600160a01b0316600282815481106154b957fe5b6000918252602090912001546001600160a01b0316145b156113a857600481815481106154e257fe5b90600052602060002001546005541061551d576004818154811061550257fe5b60009182526020909120015460058054919091039055615523565b60006005555b600280546000198101916000918390811061553a57fe5b600091825260209091200154600280546001600160a01b03909216925082918590811061556357fe5b9060005260206000200160006101000a8154816001600160a01b0302191690836001600160a01b031602179055506004828154811061559e57fe5b9060005260206000200154600484815481106155b657fe5b60009182526020808320909101929092556001600160a01b0380841682526013909252604080822086905591861681529081205560028054906155fd906000198301615acd565b506004805490614f21906000198301615acd565b6001600160a01b038116600090815260146020526040902054600354811080156156645750816001600160a01b03166003828154811061564d57fe5b6000918252602090912001546001600160a01b0316145b156113a8576003805460009190600019810190811061567f57fe5b600091825260209091200154600380546001600160a01b0390921692508291849081106156a857fe5b600091825260208083209190910180546001600160a01b0319166001600160a01b0394851617905583831682526014905260408082208590559185168152908120556003805490614e59906000198301615acd565b60008261570c57506000612523565b8282028284828161571957fe5b0414612a3b57600080fd5b610bb890565b6001600160a01b038116600090815260136020526040902054600254808210158061577f5750826001600160a01b03166002838154811061576757fe5b6000918252602090912001546001600160a01b031614155b15615810576001600160a01b03831660008181526013602052604081208390556002805460018181019092557f405787fa12a823e0f2b7631cc41b3ba8828b3321ca811111fa75cd3aa3bb5ace0180546001600160a01b03191690931790925560048054928301815581527f8a35acfbc15ff81a39ae7d344fd709f28e8600b4aa8c65c6b64bfe7fe36bd19b909101555b61158a83615611565b6001600160a01b03808316600090815260076020908152604080832060108352818420948616845293909152902054815480821015806158825750836001600160a01b031683838154811061586a57fe5b6000918252602090912001546001600160a01b031614155b15614f21576001600160a01b0380861660009081526010602090815260408083209388168084529382528220849055855460018101875586835291200180546001600160a01b03191690911790555050505050565b6001600160a01b0380831660009081526007602090815260408083206010835281842094861684529390915290205481548110801561593e5750826001600160a01b031682828154811061592757fe5b6000918252602090912001546001600160a01b0316145b15614e595781546000908390600019810190811061595857fe5b9060005260206000200160009054906101000a90046001600160a01b031690508083838154811061598557fe5b600091825260208083209190910180546001600160a01b0319166001600160a01b03948516179055878316825260108152604080832085851684529091528082208590559186168152908120558254614024846000198301615acd565b6001600160a01b03811660009081526013602052604081205460025481108015615a355750826001600160a01b031660028281548110615a1e57fe5b6000918252602090912001546001600160a01b0316145b15615a435760019150615a4a565b5060009050805b915091565b828054600181600116156101000203166002900490600052602060002090601f016020900481019282601f10615a905782800160ff19823516178555615abd565b82800160010185558215615abd579182015b82811115615abd578235825591602001919060010190615aa2565b50615ac9929150615b6b565b5090565b81548183558181111561158a5760008381526020902061158a918101908301615b6b565b828054600181600116156101000203166002900490600052602060002090601f016020900481019282601f10615b3257805160ff1916838001178555615abd565b82800160010185558215615abd579182015b82811115615abd578251825591602001919060010190615b44565b603280615b8683390190565b6113f391905b80821115615ac95760008155600101615b7156fe60806040526040516032380380603283398181016040526020811015602357600080fd5b50516001600160a01b038116fffe5374616b653a2064656c656761746f725374616b65206973206c657373207468616e2064656c656761746f724d696e5374616b65436c61696d3a206e656564207374726963746c7920696e6372656173696e67206f72646572556e61626c6520746f206765742072657761726420616d6f756e74206966206e6f2066697273742065706f63682e4d7573742070726f7669646520636f72726573706f6e64696e67204950206164726573736573496e697469616c697a6174696f6e206f6e6c79206f6e2067656e6573697320626c6f636b206f722062792061646d696e706f6f6c5374616b696e6741646472657373206d757374206e6f74206265203078306e65775374616b6520416d6f756e74206d7573742062652067726561746572207468616e20746865206d696e207374616b652e57697468647261773a206d61785769746864726177416c6c6f776564206578636565646564696e7465726e616c204572726f723a205374616b696e672045706f63687320726571756972656420746f206265206f7264657265642e576974686472617720706f6f6c207374616b696e672061646472657373206d757374206e6f74206265206e756c6c5374616b653a2063616e6469646174655374616b65206c657373207468616e2063616e6469646174654d696e5374616b65496e697469616c5374616b696e674164647265737365732063616e27742062652030546865207472616e736974696f6e2074696d656672616d65206d757374206265206c6f6e676572207468616e20306f72646572656420776974686472617720616d6f756e74206d757374206e6f742062652030466978656445706f63684475726174696f6e206d757374206265206c6f6e676572207468616e207769746864726177446973616c6c6f77506572696f6463616e6e6f7420636c61696d206f72646572656420776974686472617720696e207468652073616d652065706f636820697420776173206f7264657265642e4d7573742070726f7669646520696e697469616c206d696e696e67206164647265737365735374616b653a2063616e27742064656c656761746520696e20656d70747920706f6f6c436f6e7472616374206e6f7420696e697469616c697a656400000000000000004d6f76655374616b653a2073726320616e642064737420706f6f6c206973207468652073616d656e65775374616b6520616d6f756e74206d757374206265206772656174657220657175616c207468616e20746865206d696e207374616b652e546865207472616e736974696f6e2074696d656672616d65206d7573742062652073686f72746572207468656e207468652065706f6368206475726174696f6e4d7573742070726f7669646520636f72726573706f6e64696e67207075626c69634b65797343616e27742072656d6f766520706f6f6c20647572696e6720317374207374616b696e672065706f6368436c61696d4f72646572656457697468647261773a205769746864726177206e6f7420616c6c6f7765646f6e6c792061646d696e20697320616c6c6f77656420746f2063616c6c20746869732066756e6374696f6e696e7465726e616c204572726f723a2065706f6368206d757374206e6f74206265206c6573736572207468616e2063757272656e742065706f63682e4f7264657257697468647261773a206d617857697468647261774f72646572416c6c6f776564206578636565646564a265627a7a723158202eb419536de76d416fe6f464b56803d0e0f5e29615670f2e4b061f2e00ff728c64736f6c63430005100032",
  "source": "pragma solidity ^0.5.16;\n\nimport \"./base/StakingHbbftCoins.sol\";\n\n\ncontract StakingHbbft is StakingHbbftCoins {}\n",
  "sourcePath": "/home/sn/dmd/dmd-meta/hbbft-posdao-contracts/contracts/StakingHbbft.sol",
  "compiler": {
    "name": "solc",
    "version": "0.5.16+commit.9c3226ce.Emscripten.clang"
  },
  "schemaVersion": "3.3.2",
  "updatedAt": "2020-12-13T11:59:52.553Z",
  "devdoc": {
    "methods": {
      "addPool(address,bytes,bytes16)": {
        "details": "Adds a new candidate's pool to the list of active pools (see the `getPools` getter) and moves the specified amount of staking coins from the candidate's staking address to the candidate's pool. A participant calls this function using their staking address when they want to create a pool. This is a wrapper for the `stake` function.",
        "params": {
          "_miningAddress": "The mining address of the candidate. The mining address is bound to the staking address (msg.sender). This address cannot be equal to `msg.sender`."
        }
      },
      "areStakeAndWithdrawAllowed()": {
        "details": "Determines whether staking/withdrawal operations are allowed at the moment. Used by all staking/withdrawal functions."
      },
      "claimOrderedWithdraw(address)": {
        "details": "Withdraws the staking coins from the specified pool ordered during the previous staking epochs with the `orderWithdraw` function. The ordered amount can be retrieved by the `orderedWithdrawAmount` getter.",
        "params": {
          "_poolStakingAddress": "The staking address of the pool from which the ordered coins are withdrawn."
        }
      },
      "claimReward(uint256[],address)": {
        "details": "Withdraws a reward from the specified pool for the specified staking epochs to the staker address (msg.sender).",
        "params": {
          "_poolStakingAddress": "The staking address of the pool from which the reward needs to be withdrawn.",
          "_stakingEpochs": "The list of staking epochs in ascending order. If the list is empty, it is taken with `BlockRewardHbbft.epochsPoolGotRewardFor` getter."
        }
      },
      "getPools()": {
        "details": "Returns an array of the current active pools (the staking addresses of candidates and validators). The size of the array cannot exceed MAX_CANDIDATES. A pool can be added to this array with the `_addPoolActive` internal function which is called by the `stake` or `orderWithdraw` function. A pool is considered active if its address has at least the minimum stake and this stake is not ordered to be withdrawn."
      },
      "getPoolsInactive()": {
        "details": "Returns an array of the current inactive pools (the staking addresses of former candidates). A pool can be added to this array with the `_addPoolInactive` internal function which is called by `_removePool`. A pool is considered inactive if it is banned for some reason, if its address has zero stake, or if its entire stake is ordered to be withdrawn."
      },
      "getPoolsLikelihood()": {
        "details": "Returns the array of stake amounts for each corresponding address in the `poolsToBeElected` array (see the `getPoolsToBeElected` getter) and a sum of these amounts. Used by the `ValidatorSetHbbft.newValidatorSet` function when randomly selecting new validators at the last block of a staking epoch. An array value is updated every time any staked amount is changed in this pool (see the `_setLikelihood` internal function).",
        "return": "`uint256[] likelihoods` - The array of the coefficients. The array length is always equal to the length of the `poolsToBeElected` array. `uint256 sum` - The total sum of the amounts."
      },
      "getPoolsToBeElected()": {
        "details": "Returns the list of pools (their staking addresses) which will participate in a new validator set selection process in the `ValidatorSetHbbft.newValidatorSet` function. This is an array of pools which will be considered as candidates when forming a new validator set (at the last block of a staking epoch). This array is kept updated by the `_addPoolToBeElected` and `_deletePoolToBeElected` internal functions."
      },
      "getPoolsToBeRemoved()": {
        "details": "Returns the list of pools (their staking addresses) which will be removed by the `ValidatorSetHbbft.newValidatorSet` function from the active `pools` array (at the last block of a staking epoch). This array is kept updated by the `_addPoolToBeRemoved` and `_deletePoolToBeRemoved` internal functions. A pool is added to this array when the pool's address withdraws (or orders) all of its own staking coins from the pool, inactivating the pool."
      },
      "getRewardAmount(uint256[],address,address)": {
        "details": "Returns reward amount in native coins for the specified pool, the specified staking epochs, and the specified staker address (delegator or validator).",
        "params": {
          "_poolStakingAddress": "The staking address of the pool for which the amounts need to be returned.",
          "_staker": "The staker address (validator's staking address or delegator's address).",
          "_stakingEpochs": "The list of staking epochs in ascending order. If the list is empty, it is taken with `BlockRewardHbbft.epochsPoolGotRewardFor` getter."
        }
      },
      "incrementStakingEpoch()": {
        "details": "Increments the serial number of the current staking epoch. Called by the `ValidatorSetHbbft.newValidatorSet` at the last block of the finished staking epoch."
      },
      "initialize(address,address[],uint256,uint256,uint256,uint256,uint256,bytes32[],bytes16[])": {
        "details": "Initializes the network parameters. Can only be called by the constructor of the `InitializerHbbft` contract or owner.",
        "params": {
          "_candidateMinStake": "The minimum allowed amount of candidate/validator stake in Wei.",
          "_delegatorMinStake": "The minimum allowed amount of delegator stake in Wei.",
          "_initialStakingAddresses": "The array of initial validators' staking addresses.",
          "_stakingFixedEpochDuration": "The fixed duration of each epoch before keyGen starts.",
          "_stakingTransitionTimeframeLength": "Length of the timeframe in seconds for the transition to the new validator set.",
          "_stakingWithdrawDisallowPeriod": "The duration period at the end of a staking epoch during which participants cannot stake/withdraw/order/claim their staking coins",
          "_validatorSetContract": "The address of the `ValidatorSetHbbft` contract."
        }
      },
      "isInitialized()": {
        "details": "Returns a boolean flag indicating if the `initialize` function has been called."
      },
      "isPoolActive(address)": {
        "details": "Returns a flag indicating whether a specified address is in the `pools` array. See the `getPools` getter.",
        "params": {
          "_stakingAddress": "The staking address of the pool."
        }
      },
      "maxWithdrawAllowed(address,address)": {
        "details": "Returns the maximum amount which can be withdrawn from the specified pool by the specified staker at the moment. Used by the `withdraw` and `moveStake` functions.",
        "params": {
          "_poolStakingAddress": "The pool staking address from which the withdrawal will be made.",
          "_staker": "The staker address that is going to withdraw."
        }
      },
      "maxWithdrawOrderAllowed(address,address)": {
        "details": "Returns the maximum amount which can be ordered to be withdrawn from the specified pool by the specified staker at the moment. Used by the `orderWithdraw` function.",
        "params": {
          "_poolStakingAddress": "The pool staking address from which the withdrawal will be ordered.",
          "_staker": "The staker address that is going to order the withdrawal."
        }
      },
      "moveStake(address,address,uint256)": {
        "details": "Moves staking coins from one pool to another. A staker calls this function when they want to move their coins from one pool to another without withdrawing their coins.",
        "params": {
          "_amount": "The amount of staking coins to be moved. The amount cannot exceed the value returned by the `maxWithdrawAllowed` getter.",
          "_fromPoolStakingAddress": "The staking address of the source pool.",
          "_toPoolStakingAddress": "The staking address of the target pool."
        }
      },
      "orderWithdraw(address,int256)": {
        "details": "Orders coins withdrawal from the staking address of the specified pool to the staker's address. The requested coins can be claimed after the current staking epoch is complete using the `claimOrderedWithdraw` function.",
        "params": {
          "_amount": "The amount to be withdrawn. A positive value means the staker wants to either set or increase their withdrawal amount. A negative value means the staker wants to decrease a withdrawal amount that was previously set. The amount cannot exceed the value returned by the `maxWithdrawOrderAllowed` getter.",
          "_poolStakingAddress": "The staking address of the pool from which the amount will be withdrawn."
        }
      },
      "poolDelegators(address)": {
        "details": "Returns an array of the current active delegators of the specified pool. A delegator is considered active if they have staked into the specified pool and their stake is not ordered to be withdrawn.",
        "params": {
          "_poolStakingAddress": "The pool staking address."
        }
      },
      "poolDelegatorsInactive(address)": {
        "details": "Returns an array of the current inactive delegators of the specified pool. A delegator is considered inactive if their entire stake is ordered to be withdrawn but not yet claimed.",
        "params": {
          "_poolStakingAddress": "The pool staking address."
        }
      },
      "removeMyPool()": {
        "details": "Removes the candidate's or validator's pool from the `pools` array (a list of active pools which can be retrieved by the `getPools` getter). When a candidate or validator wants to remove their pool, they should call this function from their staking address."
      },
      "removePool(address)": {
        "details": "Removes a specified pool from the `pools` array (a list of active pools which can be retrieved by the `getPools` getter). Called by the `ValidatorSetHbbft._removeMaliciousValidator` internal function when a pool must be removed by the algorithm.",
        "params": {
          "_stakingAddress": "The staking address of the pool to be removed."
        }
      },
      "removePools()": {
        "details": "Removes pools which are in the `_poolsToBeRemoved` internal array from the `pools` array. Called by the `ValidatorSetHbbft.newValidatorSet` function when a pool must be removed by the algorithm."
      },
      "setCandidateMinStake(uint256)": {
        "details": "Sets (updates) the limit of the minimum candidate stake (CANDIDATE_MIN_STAKE). Can only be called by the `owner`.",
        "params": {
          "_minStake": "The value of a new limit in Wei."
        }
      },
      "setDelegatorMinStake(uint256)": {
        "details": "Sets (updates) the limit of the minimum delegator stake (DELEGATOR_MIN_STAKE). Can only be called by the `owner`.",
        "params": {
          "_minStake": "The value of a new limit in Wei."
        }
      },
      "setStakingEpochStartTime(uint256)": {
        "details": "Sets the timetamp of the current epoch's last block as the start time of the upcoming staking epoch. Called by the `ValidatorSetHbbft.newValidatorSet` function at the last block of a staking epoch.",
        "params": {
          "_timestamp": "The starting time of the very first block in the upcoming staking epoch."
        }
      },
      "stake(address)": {
        "details": "Moves the specified amount of staking coins from the staker's address to the staking address of the specified pool. Actually, the amount is stored in a balance of this StakingHbbft contract. A staker calls this function when they want to make a stake into a pool.",
        "params": {
          "_toPoolStakingAddress": "The staking address of the pool where the coins should be staked."
        }
      },
      "stakeAmountByCurrentEpoch(address,address)": {
        "details": "Returns the amount of staking coins staked into the specified pool by the specified staker during the current staking epoch (see the `stakingEpoch` getter). Used by the `stake`, `withdraw`, and `orderWithdraw` functions.",
        "params": {
          "_poolStakingAddress": "The pool staking address.",
          "_staker": "The staker's address."
        }
      },
      "stakingFixedEpochEndTime()": {
        "details": "Returns an indicative time of the last block of the current staking epoch before key generation starts."
      },
      "startTimeOfNextPhaseTransition()": {
        "details": "indicates the time when the new validatorset for the next epoch gets chosen. this is the start of a timeframe before the end of the epoch, that is long enough for the validators to create a new shared key."
      },
      "withdraw(address,uint256)": {
        "details": "Moves the specified amount of staking coins from the staking address of the specified pool to the staker's address. A staker calls this function when they want to withdraw their coins.",
        "params": {
          "_amount": "The amount of coins to be withdrawn. The amount cannot exceed the value returned by the `maxWithdrawAllowed` getter.",
          "_fromPoolStakingAddress": "The staking address of the pool from which the coins should be withdrawn."
        }
      }
    }
  },
  "userdoc": {
    "methods": {}
  }
}