{
  "contractName": "TxPermissionHbbft",
  "abi": [
    {
      "constant": true,
      "inputs": [],
      "name": "BLOCK_GAS_LIMIT",
      "outputs": [
        {
          "internalType": "uint256",
          "name": "",
          "type": "uint256"
        }
      ],
      "payable": false,
      "stateMutability": "view",
      "type": "function"
    },
    {
      "constant": true,
      "inputs": [],
      "name": "BLOCK_GAS_LIMIT_REDUCED",
      "outputs": [
        {
          "internalType": "uint256",
          "name": "",
          "type": "uint256"
        }
      ],
      "payable": false,
      "stateMutability": "view",
      "type": "function"
    },
    {
      "constant": true,
      "inputs": [],
      "name": "certifierContract",
      "outputs": [
        {
          "internalType": "contract ICertifier",
          "name": "",
          "type": "address"
        }
      ],
      "payable": false,
      "stateMutability": "view",
      "type": "function"
    },
    {
      "constant": true,
      "inputs": [
        {
          "internalType": "address",
          "name": "",
          "type": "address"
        }
      ],
      "name": "isSenderAllowed",
      "outputs": [
        {
          "internalType": "bool",
          "name": "",
          "type": "bool"
        }
      ],
      "payable": false,
      "stateMutability": "view",
      "type": "function"
    },
    {
      "constant": true,
      "inputs": [],
      "name": "keyGenHistoryContract",
      "outputs": [
        {
          "internalType": "address",
          "name": "",
          "type": "address"
        }
      ],
      "payable": false,
      "stateMutability": "view",
      "type": "function"
    },
    {
      "constant": true,
      "inputs": [],
      "name": "validatorSetContract",
      "outputs": [
        {
          "internalType": "contract IValidatorSetHbbft",
          "name": "",
          "type": "address"
        }
      ],
      "payable": false,
      "stateMutability": "view",
      "type": "function"
    },
    {
      "constant": false,
      "inputs": [
        {
          "internalType": "address[]",
          "name": "_allowed",
          "type": "address[]"
        },
        {
          "internalType": "address",
          "name": "_certifier",
          "type": "address"
        },
        {
          "internalType": "address",
          "name": "_validatorSet",
          "type": "address"
        },
        {
          "internalType": "address",
          "name": "_keyGenHistoryContract",
          "type": "address"
        }
      ],
      "name": "initialize",
      "outputs": [],
      "payable": false,
      "stateMutability": "nonpayable",
      "type": "function"
    },
    {
      "constant": false,
      "inputs": [
        {
          "internalType": "address",
          "name": "_sender",
          "type": "address"
        }
      ],
      "name": "addAllowedSender",
      "outputs": [],
      "payable": false,
      "stateMutability": "nonpayable",
      "type": "function"
    },
    {
      "constant": false,
      "inputs": [
        {
          "internalType": "address",
          "name": "_sender",
          "type": "address"
        }
      ],
      "name": "removeAllowedSender",
      "outputs": [],
      "payable": false,
      "stateMutability": "nonpayable",
      "type": "function"
    },
    {
      "constant": true,
      "inputs": [],
      "name": "contractName",
      "outputs": [
        {
          "internalType": "string",
          "name": "",
          "type": "string"
        }
      ],
      "payable": false,
      "stateMutability": "pure",
      "type": "function"
    },
    {
      "constant": true,
      "inputs": [],
      "name": "contractNameHash",
      "outputs": [
        {
          "internalType": "bytes32",
          "name": "",
          "type": "bytes32"
        }
      ],
      "payable": false,
      "stateMutability": "pure",
      "type": "function"
    },
    {
      "constant": true,
      "inputs": [],
      "name": "contractVersion",
      "outputs": [
        {
          "internalType": "uint256",
          "name": "",
          "type": "uint256"
        }
      ],
      "payable": false,
      "stateMutability": "pure",
      "type": "function"
    },
    {
      "constant": true,
      "inputs": [],
      "name": "allowedSenders",
      "outputs": [
        {
          "internalType": "address[]",
          "name": "",
          "type": "address[]"
        }
      ],
      "payable": false,
      "stateMutability": "view",
      "type": "function"
    },
    {
      "constant": true,
      "inputs": [
        {
          "internalType": "address",
          "name": "_sender",
          "type": "address"
        },
        {
          "internalType": "address",
          "name": "_to",
          "type": "address"
        },
        {
          "internalType": "uint256",
          "name": "",
          "type": "uint256"
        },
        {
          "internalType": "uint256",
          "name": "_gasPrice",
          "type": "uint256"
        },
        {
          "internalType": "bytes",
          "name": "_data",
          "type": "bytes"
        }
      ],
      "name": "allowedTxTypes",
      "outputs": [
        {
          "internalType": "uint32",
          "name": "typesMask",
          "type": "uint32"
        },
        {
          "internalType": "bool",
          "name": "cache",
          "type": "bool"
        }
      ],
      "payable": false,
      "stateMutability": "view",
      "type": "function"
    },
    {
      "constant": true,
      "inputs": [],
      "name": "isInitialized",
      "outputs": [
        {
          "internalType": "bool",
          "name": "",
          "type": "bool"
        }
      ],
      "payable": false,
      "stateMutability": "view",
      "type": "function"
    }
  ],
  "bytecode": "0x608060405234801561001057600080fd5b5061104e806100206000396000f3fe608060405234801561001057600080fd5b50600436106100f55760003560e01c8063a0a8e46011610097578063d46005b111610066578063d46005b11461037a578063d9eb2d5e14610405578063dfc8bf4e1461040d578063efc7840114610415576100f5565b8063a0a8e46014610259578063b47aef1f14610261578063b9056afa14610269578063c746c8f414610354576100f5565b8063392e53cd116100d3578063392e53cd14610190578063469ab1e3146101ac578063471eab5c146101b457806375d0c0dc146101dc576100f5565b80631a9ebeaa146100fa5780631b9f67a11461011e5780633272b28c14610138575b600080fd5b61010261043b565b604080516001600160a01b039092168252519081900360200190f35b61012661044a565b60408051918252519081900360200190f35b610140610451565b60408051602080825283518183015283519192839290830191858101910280838360005b8381101561017c578181015183820152602001610164565b505050509050019250505060405180910390f35b6101986104b4565b604080519115158252519081900360200190f35b6101266104c5565b6101da600480360360208110156101ca57600080fd5b50356001600160a01b0316610541565b005b6101e46106a7565b6040805160208082528351818301528351919283929083019185019080838360005b8381101561021e578181015183820152602001610206565b50505050905090810190601f16801561024b5780820380516001836020036101000a031916815260200191505b509250505060405180910390f35b6101266106d7565b6101026106dc565b610334600480360360a081101561027f57600080fd5b6001600160a01b03823581169260208101359091169160408201359160608101359181019060a0810160808201356401000000008111156102bf57600080fd5b8201836020820111156102d157600080fd5b803590602001918460018302840111640100000000831117156102f357600080fd5b91908080601f0160208091040260200160405190810160405280939291908181526020018383808284376000920191909152509295506106eb945050505050565b6040805163ffffffff909316835290151560208301528051918290030190f35b6101da6004803603602081101561036a57600080fd5b50356001600160a01b0316610c8c565b6101da6004803603608081101561039057600080fd5b8101906020810181356401000000008111156103ab57600080fd5b8201836020820111156103bd57600080fd5b803590602001918460208302840111640100000000831117156103df57600080fd5b91935091506001600160a01b038135811691602081013582169160409091013516610d00565b610126610e95565b610102610e9c565b6101986004803603602081101561042b57600080fd5b50356001600160a01b0316610eab565b6001546001600160a01b031681565b621e848081565b606060008054806020026020016040519081016040528092919081815260200182805480156104a957602002820191906000526020600020905b81546001600160a01b0316815260019091019060200180831161048b575b505050505090505b90565b6004546001600160a01b0316151590565b60006104cf6106a7565b6040516020018082805190602001908083835b602083106105015780518252601f1990920191602091820191016104e2565b6001836020036101000a03801982511681845116808217855250505050505090500191505060405160208183030381529060405280519060200120905090565b610549610ec0565b6001600160a01b0316336001600160a01b0316146105985760405162461bcd60e51b815260040180806020018281038252602b815260200180610fef602b913960400191505060405180910390fd5b6105a06104b4565b6105a957600080fd5b6001600160a01b03811660009081526003602052604090205460ff166105ce57600080fd5b60008054905b8181101561068457600081815481106105e957fe5b6000918252602090912001546001600160a01b038481169116141561067c576000600183038154811061061857fe5b600091825260208220015481546001600160a01b0390911691908390811061063c57fe5b6000918252602082200180546001600160a01b0319166001600160a01b039390931692909217909155805490610676906000198301610f83565b50610684565b6001016105d4565b50506001600160a01b03166000908152600360205260409020805460ff19169055565b604080518082019091526016815275151617d41154935254d4d253d397d0d3d395149050d560521b602082015290565b600390565b6002546001600160a01b031681565b6001600160a01b038516600090815260036020526040812054819060ff161561071d575063ffffffff90506000610c82565b60006060815b60048651101580156107355750600481105b15610768578060080286828151811061074a57fe5b01602001516001600160f81b031916901c9290921791600101610723565b6004546001600160a01b038a8116911614156109e7576001600160e01b03198316630311db7560e61b14156109435760406004875103116107ad5760048651036107b0565b60405b6040519080825280601f01601f1916602001820160405280156107da576020820181803883390190505b509150600090505b8151811015610830578581600401815181106107fa57fe5b602001015160f81c60f81b82828151811061081157fe5b60200101906001600160f81b031916908160001a9053506001016107e2565b60008083806020019051604081101561084857600080fd5b810190808051906020019092919080519060200190929190505050915091506000600460009054906101000a90046001600160a01b03166001600160a01b031663a670eb568e85856040518463ffffffff1660e01b815260040180846001600160a01b03166001600160a01b03168152602001836001600160a01b03166001600160a01b031681526020018281526020019350505050604080518083038186803b1580156108f557600080fd5b505afa158015610909573d6000803e3d6000fd5b505050506040513d604081101561091f57600080fd5b505190508061092f576000610932565b60025b600097509750505050505050610c82565b86156109e257600480546040805163facd743b60e01b81526001600160a01b038e8116948201949094529051929091169163facd743b91602480820192602092909190829003018186803b15801561099a57600080fd5b505afa1580156109ae573d6000803e3d6000fd5b505050506040513d60208110156109c457600080fd5b50516109d15760026109d4565b60005b600094509450505050610c82565b610a8f565b6002546001600160a01b038a811691161415610a8f57600480546040805163fb64aac160e01b81526001600160a01b038e8116948201949094529051929091169163fb64aac191602480820192602092909190829003018186803b158015610a4e57600080fd5b505afa158015610a62573d6000803e3d6000fd5b505050506040513d6020811015610a7857600080fd5b505115610a8f576002600094509450505050610c82565b600480546040805163facd743b60e01b81526001600160a01b038e8116948201949094529051929091169163facd743b91602480820192602092909190829003018186803b158015610ae057600080fd5b505afa158015610af4573d6000803e3d6000fd5b505050506040513d6020811015610b0a57600080fd5b50518015610b185750600087115b15610b465760008a6001600160a01b03163111610b365760006109d4565b6001600094509450505050610c82565b600480546040805163facd743b60e01b81526001600160a01b038d8116948201949094529051929091169163facd743b91602480820192602092909190829003018186803b158015610b9757600080fd5b505afa158015610bab573d6000803e3d6000fd5b505050506040513d6020811015610bc157600080fd5b505115610bd75760008094509450505050610c82565b86610c7357600154604080516303a388eb60e61b81526001600160a01b038d811660048301529151919092169163e8e23ac0916024808301926020929190829003018186803b158015610c2957600080fd5b505afa158015610c3d573d6000803e3d6000fd5b505050506040513d6020811015610c5357600080fd5b5051610c605760006109d4565b63ffffffff600094509450505050610c82565b63ffffffff6000945094505050505b9550959350505050565b610c94610ec0565b6001600160a01b0316336001600160a01b031614610ce35760405162461bcd60e51b815260040180806020018281038252602b815260200180610fef602b913960400191505060405180910390fd5b610ceb6104b4565b610cf457600080fd5b610cfd81610ee5565b50565b610d08610ec0565b6001600160a01b0316336001600160a01b03161480610d3f5750610d2a610ec0565b6001600160a01b0316326001600160a01b0316145b80610d585750610d4d610ec0565b6001600160a01b0316155b80610d61575043155b610d6a57600080fd5b610d726104b4565b15610dae5760405162461bcd60e51b8152600401808060200182810382526024815260200180610fcb6024913960400191505060405180910390fd5b6001600160a01b038316610dc157600080fd5b6001600160a01b038216610e1c576040805162461bcd60e51b815260206004820152601a60248201527f56616c696461746f72536574206d757374206e6f742062652030000000000000604482015290519081900360640190fd5b60005b84811015610e5357610e4b868683818110610e3657fe5b905060200201356001600160a01b0316610ee5565b600101610e1f565b50600180546001600160a01b039485166001600160a01b0319918216179091556004805493851693821693909317909255600280549190931691161790555050565b6298968081565b6004546001600160a01b031681565b60036020526000908152604090205460ff1681565b7fb53127684a568b3173ae13b9f8a6016e243e63b6e8ee1178d6a717850b5d61035490565b6001600160a01b03811660009081526003602052604090205460ff1615610f0b57600080fd5b6001600160a01b038116610f1e57600080fd5b60008054600181810183557f290decd9548b62a8d60345a988386fc84ba6bc95484008f6362f93160ef3e56390910180546001600160a01b039094166001600160a01b031990941684179055918152600360205260409020805460ff19169091179055565b815481835581811115610fa757600083815260209020610fa7918101908301610fac565b505050565b6104b191905b80821115610fc65760008155600101610fb2565b509056fe696e697469616c697a6174696f6e2063616e206f6e6c7920626520646f6e65206f6e63656f6e6c792061646d696e20697320616c6c6f77656420746f2063616c6c20746869732066756e6374696f6ea265627a7a723158207a9f1d20a838f5cb7bc9a52c560a53eb2731ef54e9ad3a166570c894ce27f4a364736f6c63430005100032",
  "source": "pragma solidity ^0.5.16;\n\nimport \"./interfaces/ICertifier.sol\";\nimport \"./interfaces/IRandomHbbft.sol\";\nimport \"./interfaces/IStakingHbbft.sol\";\nimport \"./interfaces/ITxPermission.sol\";\nimport \"./interfaces/IValidatorSetHbbft.sol\";\nimport \"./upgradeability/UpgradeableOwned.sol\";\n\n\n/// @dev Controls the use of zero gas price by validators in service transactions,\n/// protecting the network against \"transaction spamming\" by malicious validators.\n/// The protection logic is declared in the `allowedTxTypes` function.\ncontract TxPermissionHbbft is UpgradeableOwned, ITxPermission {\n\n    // =============================================== Storage ========================================================\n\n    // WARNING: since this contract is upgradeable, do not remove\n    // existing storage variables, do not change their order,\n    // and do not change their types!\n\n    address[] internal _allowedSenders;\n\n    /// @dev The address of the `Certifier` contract.\n    ICertifier public certifierContract;\n\n    address public keyGenHistoryContract;\n\n    /// @dev A boolean flag indicating whether the specified address is allowed\n    /// to initiate transactions of any type. Used by the `allowedTxTypes` getter.\n    /// See also the `addAllowedSender` and `removeAllowedSender` functions.\n    mapping(address => bool) public isSenderAllowed;\n\n    /// @dev The address of the `ValidatorSetHbbft` contract.\n    IValidatorSetHbbft public validatorSetContract;\n\n    // ============================================== Constants =======================================================\n\n    /// @dev A constant that defines a regular block gas limit.\n    /// Used by the `blockGasLimit` public getter.\n    uint256 public constant BLOCK_GAS_LIMIT = 10000000;\n\n    /// @dev A constant that defines a reduced block gas limit.\n    /// Used by the `blockGasLimit` public getter.\n    uint256 public constant BLOCK_GAS_LIMIT_REDUCED = 2000000;\n\n    // ============================================== Modifiers =======================================================\n\n    /// @dev Ensures the `initialize` function was called before.\n    modifier onlyInitialized {\n        require(isInitialized());\n        _;\n    }\n\n    // =============================================== Setters ========================================================\n\n    /// @dev Initializes the contract at network startup.\n    /// Can only be called by the constructor of the `Initializer` contract or owner.\n    /// @param _allowed The addresses for which transactions of any type must be allowed.\n    /// See the `allowedTxTypes` getter.\n    /// @param _certifier The address of the `Certifier` contract. It is used by `allowedTxTypes` function to know\n    /// whether some address is explicitly allowed to use zero gas price.\n    /// @param _validatorSet The address of the `ValidatorSetHbbft` contract.\n    function initialize(\n        address[] calldata _allowed,\n        address _certifier,\n        address _validatorSet,\n        address _keyGenHistoryContract\n    ) external {\n        require(msg.sender == _admin() || tx.origin ==  _admin() || address(0) == _admin() || block.number == 0);\n        require(!isInitialized(), \"initialization can only be done once\");\n        require(_certifier != address(0));\n        require(_validatorSet != address(0), \"ValidatorSet must not be 0\");\n        for (uint256 i = 0; i < _allowed.length; i++) {\n            _addAllowedSender(_allowed[i]);\n        }\n        certifierContract = ICertifier(_certifier);\n        validatorSetContract = IValidatorSetHbbft(_validatorSet);\n        keyGenHistoryContract = _keyGenHistoryContract;\n    }\n\n    /// @dev Adds the address for which transactions of any type must be allowed.\n    /// Can only be called by the `owner`. See also the `allowedTxTypes` getter.\n    /// @param _sender The address for which transactions of any type must be allowed.\n    function addAllowedSender(address _sender)\n    public\n    onlyOwner\n    onlyInitialized {\n        _addAllowedSender(_sender);\n    }\n\n    /// @dev Removes the specified address from the array of addresses allowed\n    /// to initiate transactions of any type. Can only be called by the `owner`.\n    /// See also the `addAllowedSender` function and `allowedSenders` getter.\n    /// @param _sender The removed address.\n    function removeAllowedSender(address _sender)\n    public\n    onlyOwner\n    onlyInitialized {\n        require(isSenderAllowed[_sender]);\n\n        uint256 allowedSendersLength = _allowedSenders.length;\n\n        for (uint256 i = 0; i < allowedSendersLength; i++) {\n            if (_sender == _allowedSenders[i]) {\n                _allowedSenders[i] = _allowedSenders[allowedSendersLength - 1];\n                _allowedSenders.length--;\n                break;\n            }\n        }\n\n        isSenderAllowed[_sender] = false;\n    }\n\n    // =============================================== Getters ========================================================\n\n    /// @dev Returns the contract's name recognizable by node's engine.\n    function contractName()\n    public\n    pure\n    returns(string memory) {\n        return \"TX_PERMISSION_CONTRACT\";\n    }\n\n    /// @dev Returns the contract name hash needed for node's engine.\n    function contractNameHash()\n    public\n    pure\n    returns(bytes32) {\n        return keccak256(abi.encodePacked(contractName()));\n    }\n\n    /// @dev Returns the contract's version number needed for node's engine.\n    function contractVersion()\n    public\n    pure\n    returns(uint256) {\n        return 3;\n    }\n\n    /// @dev Returns the list of addresses allowed to initiate transactions of any type.\n    /// For these addresses the `allowedTxTypes` getter always returns the `ALL` bit mask\n    /// (see https://wiki.parity.io/Permissioning.html#how-it-works-1).\n    function allowedSenders()\n    public\n    view\n    returns(address[] memory) {\n        return _allowedSenders;\n    }\n\n    /// @dev Defines the allowed transaction types which may be initiated by the specified sender with\n    /// the specified gas price and data. Used by node's engine each time a transaction is about to be\n    /// included into a block. See https://wiki.parity.io/Permissioning.html#how-it-works-1\n    /// @param _sender Transaction sender address.\n    /// @param _to Transaction recipient address. If creating a contract, the `_to` address is zero.\n    /// @param _gasPrice Gas price in wei for the transaction.\n    /// @param _data Transaction data.\n    /// @return `uint32 typesMask` - Set of allowed transactions for `_sender` depending on tx `_to` address,\n    /// `_gasPrice`, and `_data`. The result is represented as a set of flags:\n    /// 0x01 - basic transaction (e.g. ether transferring to user wallet);\n    /// 0x02 - contract call;\n    /// 0x04 - contract creation;\n    /// 0x08 - private transaction.\n    /// `bool cache` - If `true` is returned, the same permissions will be applied from the same\n    /// `_sender` without calling this contract again.\n    function allowedTxTypes(\n        address _sender,\n        address _to,\n        uint256 /*_value */,\n        uint256 _gasPrice,\n        bytes memory _data\n    )\n    public\n    view\n    returns(uint32 typesMask, bool cache) {\n        if (isSenderAllowed[_sender]) {\n            // Let the `_sender` initiate any transaction if the `_sender` is in the `allowedSenders` list\n            return (ALL, false);\n        }\n\n        // Get the called function's signature\n        bytes4 signature = bytes4(0);\n        bytes memory abiParams;\n        uint256 i;\n        for (i = 0; _data.length >= 4 && i < 4; i++) {\n            signature |= bytes4(_data[i]) >> i*8;\n        }\n\n\n        if (_to == address(validatorSetContract)) {\n            // The rules for the ValidatorSet contract\n            if (signature == REPORT_MALICIOUS_SIGNATURE) {\n                abiParams = new bytes(_data.length - 4 > 64 ? 64 : _data.length - 4);\n\n                for (i = 0; i < abiParams.length; i++) {\n                    abiParams[i] = _data[i + 4];\n                }\n\n                (\n                    address maliciousMiningAddress,\n                    uint256 blockNumber\n                ) = abi.decode(\n                    abiParams,\n                    (address, uint256)\n                );\n\n                // The `reportMalicious()` can only be called by the validator's mining address\n                // when the calling is allowed\n                (bool callable,) = validatorSetContract.reportMaliciousCallable(\n                    _sender, maliciousMiningAddress, blockNumber\n                );\n\n                return (callable ? CALL : NONE, false);\n            } else if (_gasPrice > 0) {\n                // The other functions of ValidatorSet contract can be called\n                // by anyone except validators' mining addresses if gasPrice is not zero\n                return (validatorSetContract.isValidator(_sender) ? NONE : CALL, false);\n            }\n        } else if (_to == keyGenHistoryContract) {\n            if (validatorSetContract.isPendingValidator(_sender)) {\n                return (CALL, false);\n            }\n        }\n\n        if (validatorSetContract.isValidator(_sender) && _gasPrice > 0) {\n            // Let the validator's mining address send their accumulated tx fees to some wallet\n            return (_sender.balance > 0 ? BASIC : NONE, false);\n        }\n\n        if (validatorSetContract.isValidator(_to)) {\n            // Validator's mining address can't receive any coins\n            return (NONE, false);\n        }\n\n        // Don't let the `_sender` use a zero gas price, if it is not explicitly allowed by the `Certifier` contract\n        if (_gasPrice == 0) {\n            return (certifierContract.certifiedExplicitly(_sender) ? ALL : NONE, false);\n        }\n\n        // In other cases let the `_sender` create any transaction with non-zero gas price\n        return (ALL, false);\n    }\n\n    /// @dev Returns the current block gas limit which depends on the stage of the current\n    // /// staking epoch: the block gas limit is temporarily reduced for the latest block of the epoch.\n    // function blockGasLimit() public view returns(uint256) {\n    //     address stakingContract = validatorSetContract.stakingContract();\n    //     uint256 stakingEpochEndTime = IStakingHbbft(stakingContract).stakingFixedEpochEndTime();\n    //     if (block.timestamp == stakingEpochEndBlock - 1 || block.number == stakingEpochEndBlock) {\n    //         return BLOCK_GAS_LIMIT_REDUCED;\n    //     }\n    //     return BLOCK_GAS_LIMIT;\n    // }\n\n    /// @dev Returns a boolean flag indicating if the `initialize` function has been called.\n    function isInitialized()\n    public\n    view\n    returns(bool) {\n        return validatorSetContract != IValidatorSetHbbft(0);\n    }\n\n    // ============================================== Internal ========================================================\n\n    // Allowed transaction types mask\n    uint32 internal constant NONE = 0;\n    uint32 internal constant ALL = 0xffffffff;\n    uint32 internal constant BASIC = 0x01;\n    uint32 internal constant CALL = 0x02;\n    uint32 internal constant CREATE = 0x04;\n    uint32 internal constant PRIVATE = 0x08;\n\n    // Function signatures\n\n    // bytes4(keccak256(\"reportMalicious(address,uint256,bytes)\"))\n    bytes4 internal constant REPORT_MALICIOUS_SIGNATURE = 0xc476dd40;\n\n    /// @dev An internal function used by the `addAllowedSender` and `initialize` functions.\n    /// @param _sender The address for which transactions of any type must be allowed.\n    function _addAllowedSender(address _sender)\n    internal {\n        require(!isSenderAllowed[_sender]);\n        require(_sender != address(0));\n        _allowedSenders.push(_sender);\n        isSenderAllowed[_sender] = true;\n    }\n}\n",
  "sourcePath": "/home/sn/dmd/dmd-meta/hbbft-posdao-contracts/contracts/TxPermissionHbbft.sol",
  "compiler": {
    "name": "solc",
    "version": "0.5.16+commit.9c3226ce.Emscripten.clang"
  },
  "schemaVersion": "3.3.2",
  "updatedAt": "2020-12-13T11:59:52.564Z",
  "devdoc": {
    "details": "Controls the use of zero gas price by validators in service transactions, protecting the network against \"transaction spamming\" by malicious validators. The protection logic is declared in the `allowedTxTypes` function.",
    "methods": {
      "addAllowedSender(address)": {
        "details": "Adds the address for which transactions of any type must be allowed. Can only be called by the `owner`. See also the `allowedTxTypes` getter.",
        "params": {
          "_sender": "The address for which transactions of any type must be allowed."
        }
      },
      "allowedSenders()": {
        "details": "Returns the list of addresses allowed to initiate transactions of any type. For these addresses the `allowedTxTypes` getter always returns the `ALL` bit mask (see https://wiki.parity.io/Permissioning.html#how-it-works-1)."
      },
      "allowedTxTypes(address,address,uint256,uint256,bytes)": {
        "details": "Defines the allowed transaction types which may be initiated by the specified sender with the specified gas price and data. Used by node's engine each time a transaction is about to be included into a block. See https://wiki.parity.io/Permissioning.html#how-it-works-1",
        "params": {
          "_data": "Transaction data.",
          "_gasPrice": "Gas price in wei for the transaction.",
          "_sender": "Transaction sender address.",
          "_to": "Transaction recipient address. If creating a contract, the `_to` address is zero."
        },
        "return": "`uint32 typesMask` - Set of allowed transactions for `_sender` depending on tx `_to` address, `_gasPrice`, and `_data`. The result is represented as a set of flags: 0x01 - basic transaction (e.g. ether transferring to user wallet); 0x02 - contract call; 0x04 - contract creation; 0x08 - private transaction. `bool cache` - If `true` is returned, the same permissions will be applied from the same `_sender` without calling this contract again."
      },
      "contractName()": {
        "details": "Returns the contract's name recognizable by node's engine."
      },
      "contractNameHash()": {
        "details": "Returns the contract name hash needed for node's engine."
      },
      "contractVersion()": {
        "details": "Returns the contract's version number needed for node's engine."
      },
      "initialize(address[],address,address,address)": {
        "details": "Initializes the contract at network startup. Can only be called by the constructor of the `Initializer` contract or owner.",
        "params": {
          "_allowed": "The addresses for which transactions of any type must be allowed. See the `allowedTxTypes` getter.",
          "_certifier": "The address of the `Certifier` contract. It is used by `allowedTxTypes` function to know whether some address is explicitly allowed to use zero gas price.",
          "_validatorSet": "The address of the `ValidatorSetHbbft` contract."
        }
      },
      "isInitialized()": {
        "details": "Returns a boolean flag indicating if the `initialize` function has been called."
      },
      "removeAllowedSender(address)": {
        "details": "Removes the specified address from the array of addresses allowed to initiate transactions of any type. Can only be called by the `owner`. See also the `addAllowedSender` function and `allowedSenders` getter.",
        "params": {
          "_sender": "The removed address."
        }
      }
    }
  },
  "userdoc": {
    "methods": {}
  }
}