{
  "contractName": "ValidatorSetHbbft",
  "abi": [
    {
      "anonymous": false,
      "inputs": [
        {
          "indexed": false,
          "internalType": "address",
          "name": "reportingValidator",
          "type": "address"
        },
        {
          "indexed": false,
          "internalType": "address",
          "name": "maliciousValidator",
          "type": "address"
        },
        {
          "indexed": false,
          "internalType": "uint256",
          "name": "blockNumber",
          "type": "uint256"
        }
      ],
      "name": "ReportedMalicious",
      "type": "event"
    },
    {
      "constant": true,
      "inputs": [],
      "name": "MAX_VALIDATORS",
      "outputs": [
        {
          "internalType": "uint256",
          "name": "",
          "type": "uint256"
        }
      ],
      "payable": false,
      "stateMutability": "view",
      "type": "function"
    },
    {
      "constant": true,
      "inputs": [
        {
          "internalType": "address",
          "name": "",
          "type": "address"
        }
      ],
      "name": "banCounter",
      "outputs": [
        {
          "internalType": "uint256",
          "name": "",
          "type": "uint256"
        }
      ],
      "payable": false,
      "stateMutability": "view",
      "type": "function"
    },
    {
      "constant": true,
      "inputs": [
        {
          "internalType": "address",
          "name": "",
          "type": "address"
        }
      ],
      "name": "banReason",
      "outputs": [
        {
          "internalType": "bytes32",
          "name": "",
          "type": "bytes32"
        }
      ],
      "payable": false,
      "stateMutability": "view",
      "type": "function"
    },
    {
      "constant": true,
      "inputs": [
        {
          "internalType": "address",
          "name": "",
          "type": "address"
        }
      ],
      "name": "bannedDelegatorsUntil",
      "outputs": [
        {
          "internalType": "uint256",
          "name": "",
          "type": "uint256"
        }
      ],
      "payable": false,
      "stateMutability": "view",
      "type": "function"
    },
    {
      "constant": true,
      "inputs": [
        {
          "internalType": "address",
          "name": "",
          "type": "address"
        }
      ],
      "name": "bannedUntil",
      "outputs": [
        {
          "internalType": "uint256",
          "name": "",
          "type": "uint256"
        }
      ],
      "payable": false,
      "stateMutability": "view",
      "type": "function"
    },
    {
      "constant": true,
      "inputs": [],
      "name": "blockRewardContract",
      "outputs": [
        {
          "internalType": "address",
          "name": "",
          "type": "address"
        }
      ],
      "payable": false,
      "stateMutability": "view",
      "type": "function"
    },
    {
      "constant": true,
      "inputs": [
        {
          "internalType": "address",
          "name": "",
          "type": "address"
        }
      ],
      "name": "isValidator",
      "outputs": [
        {
          "internalType": "bool",
          "name": "",
          "type": "bool"
        }
      ],
      "payable": false,
      "stateMutability": "view",
      "type": "function"
    },
    {
      "constant": true,
      "inputs": [
        {
          "internalType": "address",
          "name": "",
          "type": "address"
        }
      ],
      "name": "isValidatorPrevious",
      "outputs": [
        {
          "internalType": "bool",
          "name": "",
          "type": "bool"
        }
      ],
      "payable": false,
      "stateMutability": "view",
      "type": "function"
    },
    {
      "constant": true,
      "inputs": [],
      "name": "keyGenHistoryContract",
      "outputs": [
        {
          "internalType": "contract IKeyGenHistory",
          "name": "",
          "type": "address"
        }
      ],
      "payable": false,
      "stateMutability": "view",
      "type": "function"
    },
    {
      "constant": true,
      "inputs": [
        {
          "internalType": "address",
          "name": "",
          "type": "address"
        }
      ],
      "name": "miningByStakingAddress",
      "outputs": [
        {
          "internalType": "address",
          "name": "",
          "type": "address"
        }
      ],
      "payable": false,
      "stateMutability": "view",
      "type": "function"
    },
    {
      "constant": true,
      "inputs": [],
      "name": "randomContract",
      "outputs": [
        {
          "internalType": "address",
          "name": "",
          "type": "address"
        }
      ],
      "payable": false,
      "stateMutability": "view",
      "type": "function"
    },
    {
      "constant": true,
      "inputs": [
        {
          "internalType": "address",
          "name": "",
          "type": "address"
        },
        {
          "internalType": "uint256",
          "name": "",
          "type": "uint256"
        }
      ],
      "name": "reportingCounter",
      "outputs": [
        {
          "internalType": "uint256",
          "name": "",
          "type": "uint256"
        }
      ],
      "payable": false,
      "stateMutability": "view",
      "type": "function"
    },
    {
      "constant": true,
      "inputs": [
        {
          "internalType": "uint256",
          "name": "",
          "type": "uint256"
        }
      ],
      "name": "reportingCounterTotal",
      "outputs": [
        {
          "internalType": "uint256",
          "name": "",
          "type": "uint256"
        }
      ],
      "payable": false,
      "stateMutability": "view",
      "type": "function"
    },
    {
      "constant": true,
      "inputs": [
        {
          "internalType": "address",
          "name": "",
          "type": "address"
        }
      ],
      "name": "stakingByMiningAddress",
      "outputs": [
        {
          "internalType": "address",
          "name": "",
          "type": "address"
        }
      ],
      "payable": false,
      "stateMutability": "view",
      "type": "function"
    },
    {
      "constant": true,
      "inputs": [],
      "name": "stakingContract",
      "outputs": [
        {
          "internalType": "contract IStakingHbbft",
          "name": "",
          "type": "address"
        }
      ],
      "payable": false,
      "stateMutability": "view",
      "type": "function"
    },
    {
      "constant": true,
      "inputs": [
        {
          "internalType": "address",
          "name": "",
          "type": "address"
        }
      ],
      "name": "validatorCounter",
      "outputs": [
        {
          "internalType": "uint256",
          "name": "",
          "type": "uint256"
        }
      ],
      "payable": false,
      "stateMutability": "view",
      "type": "function"
    },
    {
      "constant": true,
      "inputs": [],
      "name": "getCurrentTimestamp",
      "outputs": [
        {
          "internalType": "uint256",
          "name": "",
          "type": "uint256"
        }
      ],
      "payable": false,
      "stateMutability": "view",
      "type": "function"
    },
    {
      "constant": false,
      "inputs": [
        {
          "internalType": "address",
          "name": "_blockRewardContract",
          "type": "address"
        },
        {
          "internalType": "address",
          "name": "_randomContract",
          "type": "address"
        },
        {
          "internalType": "address",
          "name": "_stakingContract",
          "type": "address"
        },
        {
          "internalType": "address",
          "name": "_keyGenHistoryContract",
          "type": "address"
        },
        {
          "internalType": "address[]",
          "name": "_initialMiningAddresses",
          "type": "address[]"
        },
        {
          "internalType": "address[]",
          "name": "_initialStakingAddresses",
          "type": "address[]"
        }
      ],
      "name": "initialize",
      "outputs": [],
      "payable": false,
      "stateMutability": "nonpayable",
      "type": "function"
    },
    {
      "constant": false,
      "inputs": [],
      "name": "finalizeChange",
      "outputs": [],
      "payable": false,
      "stateMutability": "nonpayable",
      "type": "function"
    },
    {
      "constant": false,
      "inputs": [],
      "name": "newValidatorSet",
      "outputs": [],
      "payable": false,
      "stateMutability": "nonpayable",
      "type": "function"
    },
    {
      "constant": false,
      "inputs": [
        {
          "internalType": "address[]",
          "name": "_miningAddresses",
          "type": "address[]"
        }
      ],
      "name": "removeMaliciousValidators",
      "outputs": [],
      "payable": false,
      "stateMutability": "nonpayable",
      "type": "function"
    },
    {
      "constant": false,
      "inputs": [
        {
          "internalType": "address",
          "name": "_maliciousMiningAddress",
          "type": "address"
        },
        {
          "internalType": "uint256",
          "name": "_blockNumber",
          "type": "uint256"
        }
      ],
      "name": "reportMalicious",
      "outputs": [],
      "payable": false,
      "stateMutability": "nonpayable",
      "type": "function"
    },
    {
      "constant": false,
      "inputs": [
        {
          "internalType": "address",
          "name": "_miningAddress",
          "type": "address"
        },
        {
          "internalType": "address",
          "name": "_stakingAddress",
          "type": "address"
        }
      ],
      "name": "setStakingAddress",
      "outputs": [],
      "payable": false,
      "stateMutability": "nonpayable",
      "type": "function"
    },
    {
      "constant": true,
      "inputs": [
        {
          "internalType": "address",
          "name": "_miningAddress",
          "type": "address"
        }
      ],
      "name": "areDelegatorsBanned",
      "outputs": [
        {
          "internalType": "bool",
          "name": "",
          "type": "bool"
        }
      ],
      "payable": false,
      "stateMutability": "view",
      "type": "function"
    },
    {
      "constant": true,
      "inputs": [],
      "name": "getPreviousValidators",
      "outputs": [
        {
          "internalType": "address[]",
          "name": "",
          "type": "address[]"
        }
      ],
      "payable": false,
      "stateMutability": "view",
      "type": "function"
    },
    {
      "constant": true,
      "inputs": [],
      "name": "getPendingValidators",
      "outputs": [
        {
          "internalType": "address[]",
          "name": "",
          "type": "address[]"
        }
      ],
      "payable": false,
      "stateMutability": "view",
      "type": "function"
    },
    {
      "constant": true,
      "inputs": [],
      "name": "getValidators",
      "outputs": [
        {
          "internalType": "address[]",
          "name": "",
          "type": "address[]"
        }
      ],
      "payable": false,
      "stateMutability": "view",
      "type": "function"
    },
    {
      "constant": true,
      "inputs": [],
      "name": "isInitialized",
      "outputs": [
        {
          "internalType": "bool",
          "name": "",
          "type": "bool"
        }
      ],
      "payable": false,
      "stateMutability": "view",
      "type": "function"
    },
    {
      "constant": true,
      "inputs": [
        {
          "internalType": "address",
          "name": "_miningAddress",
          "type": "address"
        }
      ],
      "name": "isReportValidatorValid",
      "outputs": [
        {
          "internalType": "bool",
          "name": "",
          "type": "bool"
        }
      ],
      "payable": false,
      "stateMutability": "view",
      "type": "function"
    },
    {
      "constant": true,
      "inputs": [
        {
          "internalType": "address",
          "name": "_miningAddress",
          "type": "address"
        }
      ],
      "name": "isValidatorBanned",
      "outputs": [
        {
          "internalType": "bool",
          "name": "",
          "type": "bool"
        }
      ],
      "payable": false,
      "stateMutability": "view",
      "type": "function"
    },
    {
      "constant": true,
      "inputs": [
        {
          "internalType": "address",
          "name": "_miningAddress",
          "type": "address"
        }
      ],
      "name": "isValidatorOrPending",
      "outputs": [
        {
          "internalType": "bool",
          "name": "",
          "type": "bool"
        }
      ],
      "payable": false,
      "stateMutability": "view",
      "type": "function"
    },
    {
      "constant": true,
      "inputs": [
        {
          "internalType": "address",
          "name": "_miningAddress",
          "type": "address"
        }
      ],
      "name": "isPendingValidator",
      "outputs": [
        {
          "internalType": "bool",
          "name": "",
          "type": "bool"
        }
      ],
      "payable": false,
      "stateMutability": "view",
      "type": "function"
    },
    {
      "constant": true,
      "inputs": [
        {
          "internalType": "address",
          "name": "_miningAddress",
          "type": "address"
        },
        {
          "internalType": "uint256",
          "name": "_blockNumber",
          "type": "uint256"
        }
      ],
      "name": "maliceReportedForBlock",
      "outputs": [
        {
          "internalType": "address[]",
          "name": "",
          "type": "address[]"
        }
      ],
      "payable": false,
      "stateMutability": "view",
      "type": "function"
    },
    {
      "constant": true,
      "inputs": [
        {
          "internalType": "address",
          "name": "_reportingMiningAddress",
          "type": "address"
        },
        {
          "internalType": "address",
          "name": "_maliciousMiningAddress",
          "type": "address"
        },
        {
          "internalType": "uint256",
          "name": "_blockNumber",
          "type": "uint256"
        }
      ],
      "name": "reportMaliciousCallable",
      "outputs": [
        {
          "internalType": "bool",
          "name": "callable",
          "type": "bool"
        },
        {
          "internalType": "bool",
          "name": "removeReportingValidator",
          "type": "bool"
        }
      ],
      "payable": false,
      "stateMutability": "view",
      "type": "function"
    },
    {
      "constant": true,
      "inputs": [
        {
          "internalType": "address",
          "name": "stakingAddress",
          "type": "address"
        }
      ],
      "name": "publicKeyByStakingAddress",
      "outputs": [
        {
          "internalType": "bytes",
          "name": "",
          "type": "bytes"
        }
      ],
      "payable": false,
      "stateMutability": "view",
      "type": "function"
    },
    {
      "constant": true,
      "inputs": [
        {
          "internalType": "address",
          "name": "miningAddress",
          "type": "address"
        }
      ],
      "name": "getPublicKey",
      "outputs": [
        {
          "internalType": "bytes",
          "name": "",
          "type": "bytes"
        }
      ],
      "payable": false,
      "stateMutability": "view",
      "type": "function"
    }
  ],
  "bytecode": "0x608060405234801561001057600080fd5b50613174806100206000396000f3fe608060405234801561001057600080fd5b506004361061021b5760003560e01c806387eed76a11610125578063b56b366b116100ad578063d2dd2f161161007c578063d2dd2f16146107e4578063ee99205c14610801578063eebc7a3914610809578063facd743b14610811578063fb64aac1146108375761021b565b8063b56b366b14610782578063b7ab4db5146107ae578063c9e9694d146107b6578063ccf69e9b146107dc5761021b565b8063a68b5b76116100f4578063a68b5b76146106e2578063a881c5fd14610708578063a92252ae1461072e578063b41832e414610754578063b47aef1f1461077a5761021b565b806387eed76a1461061f5780639881933d14610645578063a0d16cad1461066b578063a670eb56146106915761021b565b806356b54bae116101a85780636c9230db116101775780636c9230db14610514578063714897df1461051c578063752862111461052457806385602ad51461052c578063857cdbb8146105845761021b565b806356b54bae146104b25780635836d08a146104ba5780635ccee1de146104e057806368ffa02d146104e85761021b565b80631d0cd4c6116101ef5780631d0cd4c6146103385780631ee4d0bc1461035e5780633755243b14610384578063392e53cd146103b0578063515bbf2c146103cc5761021b565b8062535175146102205780630636bdac146102625780630a4c1072146102d25780631a7fa23714610300575b600080fd5b6102466004803603602081101561023657600080fd5b50356001600160a01b031661085d565b604080516001600160a01b039092168252519081900360200190f35b6102d06004803603602081101561027857600080fd5b810190602081018135600160201b81111561029257600080fd5b8201836020820111156102a457600080fd5b803590602001918460208302840111600160201b831117156102c557600080fd5b509092509050610878565b005b6102d0600480360360408110156102e857600080fd5b506001600160a01b038135811691602001351661090e565b6103266004803603602081101561031657600080fd5b50356001600160a01b031661096f565b60408051918252519081900360200190f35b6103266004803603602081101561034e57600080fd5b50356001600160a01b0316610981565b6102466004803603602081101561037457600080fd5b50356001600160a01b0316610993565b6103266004803603604081101561039a57600080fd5b506001600160a01b0381351690602001356109ae565b6103b86109cb565b604080519115158252519081900360200190f35b6102d0600480360360c08110156103e257600080fd5b6001600160a01b03823581169260208101358216926040820135831692606083013516919081019060a081016080820135600160201b81111561042457600080fd5b82018360208201111561043657600080fd5b803590602001918460208302840111600160201b8311171561045757600080fd5b919390929091602081019035600160201b81111561047457600080fd5b82018360208201111561048657600080fd5b803590602001918460208302840111600160201b831117156104a757600080fd5b5090925090506109dd565b610246610d63565b610326600480360360208110156104d057600080fd5b50356001600160a01b0316610d72565b6102d0610d84565b6102d0600480360360408110156104fe57600080fd5b506001600160a01b038135169060200135611318565b610326611558565b61032661155c565b6102d0611561565b61053461172b565b60408051602080825283518183015283519192839290830191858101910280838360005b83811015610570578181015183820152602001610558565b505050509050019250505060405180910390f35b6105aa6004803603602081101561059a57600080fd5b50356001600160a01b031661178d565b6040805160208082528351818301528351919283929083019185019080838360005b838110156105e45781810151838201526020016105cc565b50505050905090810190601f1680156106115780820380516001836020036101000a031916815260200191505b509250505060405180910390f35b6103b86004803603602081101561063557600080fd5b50356001600160a01b03166118df565b6105aa6004803603602081101561065b57600080fd5b50356001600160a01b0316611b26565b6103b86004803603602081101561068157600080fd5b50356001600160a01b0316611b77565b6106c7600480360360608110156106a757600080fd5b506001600160a01b03813581169160208101359091169060400135611ba9565b60408051921515835290151560208301528051918290030190f35b6103b8600480360360208110156106f857600080fd5b50356001600160a01b0316611da2565b6103b86004803603602081101561071e57600080fd5b50356001600160a01b0316611db7565b6103b86004803603602081101561074457600080fd5b50356001600160a01b0316611e3a565b6103266004803603602081101561076a57600080fd5b50356001600160a01b0316611e89565b610246611e9b565b6105346004803603604081101561079857600080fd5b506001600160a01b038135169060200135611eaa565b610534611f29565b610326600480360360208110156107cc57600080fd5b50356001600160a01b0316611f89565b610246611f9b565b610326600480360360208110156107fa57600080fd5b5035611faa565b610246611fbc565b610534611fcb565b6103b86004803603602081101561082757600080fd5b50356001600160a01b031661202b565b6103b86004803603602081101561084d57600080fd5b50356001600160a01b0316612040565b600b602052600090815260409020546001600160a01b031681565b6002600160a01b0333146108c1576040805162461bcd60e51b815260206004820152600b60248201526a4f6e6c792053797374656d60a81b604482015290519081900360640190fd5b61090a82828080602002602001604051908101604052809392919081815260200183836020028082843760009201919091525067696e61637469766560c01b9250612095915050565b5050565b6010546001600160a01b03163314610965576040805162461bcd60e51b815260206004820152601560248201527413db9b1e4814dd185ada5b99c810dbdb9d1c9858dd605a1b604482015290519081900360640190fd5b61090a82826120ec565b60066020526000908152604090205481565b60046020526000908152604090205481565b600f602052600090815260409020546001600160a01b031681565b600d60209081526000928352604080842090915290825290205481565b6008546001600160a01b031615155b90565b6109e5612399565b6001600160a01b0316336001600160a01b03161480610a1c5750610a07612399565b6001600160a01b0316326001600160a01b0316145b80610a355750610a2a612399565b6001600160a01b0316155b80610a3e575043155b610a795760405162461bcd60e51b815260040180806020018281038252603e8152602001806130a1603e913960400191505060405180910390fd5b610a816109cb565b15610abd5760405162461bcd60e51b815260040180806020018281038252602c815260200180612fc8602c913960400191505060405180910390fd5b6001600160a01b038816610b025760405162461bcd60e51b8152600401808060200182810382526029815260200180612f9f6029913960400191505060405180910390fd5b6001600160a01b038716610b475760405162461bcd60e51b8152600401808060200182810382526024815260200180612f7b6024913960400191505060405180910390fd5b6001600160a01b038616610b8c5760405162461bcd60e51b815260040180806020018281038252602581526020018061307c6025913960400191505060405180910390fd5b6001600160a01b038516610bd15760405162461bcd60e51b815260040180806020018281038252602b815260200180613019602b913960400191505060405180910390fd5b82610c0d5760405162461bcd60e51b8152600401808060200182810382526025815260200180612ff46025913960400191505060405180910390fd5b828114610c4b5760405162461bcd60e51b81526004018080602001828103825260388152602001806130446038913960400191505060405180910390fd5b600880546001600160a01b03808b166001600160a01b031992831617909255600c80548a841690831617905560108054898416908316179055601180549288169290911691909117905560005b83811015610d58576000858583818110610cae57fe5b60008054600180820183557f290decd9548b62a8d60345a988386fc84ba6bc95484008f6362f93160ef3e5639091018054602094850296909601356001600160a01b03166001600160a01b031990961686179055848252600983526040808320805460ff191683179055601290935291902080549091019055509050610d4f81858585818110610d3a57fe5b905060200201356001600160a01b03166120ec565b50600101610c98565b505050505050505050565b6008546001600160a01b031681565b60056020526000908152604090205481565b6008546001600160a01b03163314610ddf576040805162461bcd60e51b815260206004820152601960248201527813db9b1e48109b1bd8dad4995dd85c990818dbdb9d1c9858dd603a1b604482015290519081900360640190fd5b6010546040805163a5d54f6560e01b815290516060926001600160a01b03169163a5d54f65916004808301926000929190829003018186803b158015610e2457600080fd5b505afa158015610e38573d6000803e3d6000fd5b505050506040513d6000823e601f3d908101601f191682016040526020811015610e6157600080fd5b8101908080516040519392919084600160201b821115610e8057600080fd5b908301906020820185811115610e9557600080fd5b82518660208202830111600160201b82111715610eb157600080fd5b82525081516020918201928201910280838360005b83811015610ede578181015183820152602001610ec6565b5050505090500160405250505090506019815111156111ea57600c5460408051634191031360e11b815290516000926001600160a01b0316916383220626916004808301926020929190829003018186803b158015610f3c57600080fd5b505afa158015610f50573d6000803e3d6000fd5b505050506040513d6020811015610f6657600080fd5b50516010546040805163957950a760e01b815290519293506060926000926001600160a01b03169163957950a79160048083019286929190829003018186803b158015610fb257600080fd5b505afa158015610fc6573d6000803e3d6000fd5b505050506040513d6000823e601f3d908101601f191682016040908152811015610fef57600080fd5b8101908080516040519392919084600160201b82111561100e57600080fd5b90830190602082018581111561102357600080fd5b82518660208202830111600160201b8211171561103f57600080fd5b82525081516020918201928201910280838360005b8381101561106c578181015183820152602001611054565b50505050919091016040525060200151835193955093505050158015906110935750600081115b156111e2576040805160198082526103408201909252606091602082016103208038833901905050855190915060005b82518110156111d5576040805160208082019890985281518082038901815290820190915280519601959095209460006110fe8686896123be565b905087818151811061110c57fe5b602002602001015184838151811061112057fe5b60200260200101906001600160a01b031690816001600160a01b03168152505085818151811061114c57fe5b60200260200101518503945082806001900393505087838151811061116d57fe5b602002602001015188828151811061118157fe5b60200260200101906001600160a01b031690816001600160a01b0316815250508583815181106111ad57fe5b60200260200101518682815181106111c157fe5b6020908102919091010152506001016110c3565b506111df8261240b565b50505b5050506111f3565b6111f38161240b565b601154604051632f8ba4bf60e11b815260206004820190815260008054602484018190526001600160a01b0390941693635f17497e9391929182916044909101908490801561126b57602002820191906000526020600020905b81546001600160a01b0316815260019091019060200180831161124d575b505092505050600060405180830381600087803b15801561128b57600080fd5b505af115801561129f573d6000803e3d6000fd5b50505050805160001461131557601060009054906101000a90046001600160a01b03166001600160a01b0316631555371c6040518163ffffffff1660e01b8152600401600060405180830381600087803b1580156112fc57600080fd5b505af1158015611310573d6000803e3d6000fd5b505050505b50565b6113206109cb565b611371576040805162461bcd60e51b815260206004820152601d60248201527f56616c696461746f725365743a206e6f7420696e697469616c697a6564000000604482015290519081900360640190fd5b3361137b8161267d565b600080611389838686611ba9565b91509150816114035780156113fb576040805160018082528183019092526060916020808301908038833901905050905083816000815181106113c857fe5b60200260200101906001600160a01b031690816001600160a01b0316815250506113f981637370616d60e01b612095565b505b50505061090a565b6001600160a01b038086166000818152600360209081526040808320898452825280832080546001810182558185529383902090930180549589166001600160a01b031990961686179055805194855290840192909252828201879052905190917f729a19138e072a5a8d3a56d74ae0b5c84530f09aacd6e12b24c5b2fdc3f8a3d0919081900360600190a1600080549060038211156114c9576114ae82600263ffffffff61274116565b83546114c190600363ffffffff61274116565b1190506114e2565b825482906114de90600263ffffffff61274116565b1190505b801561154e5760408051600180825281830190925260609160208083019080388339019050509050888160008151811061151857fe5b60200260200101906001600160a01b031690816001600160a01b031681525050610d5881686d616c6963696f757360b81b612095565b5050505050505050565b4290565b601981565b6008546001600160a01b031633146115bc576040805162461bcd60e51b815260206004820152601960248201527813db9b1e48109b1bd8dad4995dd85c990818dbdb9d1c9858dd603a1b604482015290519081900360640190fd5b600154156115d4576115cc61276f565b6115d461283a565b601060009054906101000a90046001600160a01b03166001600160a01b031663ee435f556040518163ffffffff1660e01b8152600401600060405180830381600087803b15801561162457600080fd5b505af1158015611638573d6000803e3d6000fd5b505050506001600061164a9190612e2b565b601060009054906101000a90046001600160a01b03166001600160a01b0316638247a239306001600160a01b0316636c9230db6040518163ffffffff1660e01b815260040160206040518083038186803b1580156116a757600080fd5b505afa1580156116bb573d6000803e3d6000fd5b505050506040513d60208110156116d157600080fd5b5051604080516001600160e01b031960e085901b168152600481019290925251602480830192600092919082900301818387803b15801561171157600080fd5b505af1158015611725573d6000803e3d6000fd5b50505050565b6060600280548060200260200160405190810160405280929190818152602001828054801561178357602002820191906000526020600020905b81546001600160a01b03168152600190910190602001808311611765575b5050505050905090565b6010546001600160a01b038281166000908152600f6020526040808220548151634e9b426d60e01b8152908416600482015290516060949390931692634e9b426d92602480840193919291829003018186803b1580156117ec57600080fd5b505afa158015611800573d6000803e3d6000fd5b505050506040513d6000823e601f3d908101601f19168201604052602081101561182957600080fd5b8101908080516040519392919084600160201b82111561184857600080fd5b90830190602082018581111561185d57600080fd5b8251600160201b81118282018810171561187657600080fd5b82525081516020918201929091019080838360005b838110156118a357818101518382015260200161188b565b50505050905090810190601f1680156118d05780820380516001836020036101000a031916815260200191505b5060405250505090505b919050565b6001600160a01b038116600090815260096020526040812054819060ff16801561190f575061190d83611e3a565b155b9050601060009054906101000a90046001600160a01b03166001600160a01b031663794c0c686040518163ffffffff1660e01b815260040160206040518083038186803b15801561195f57600080fd5b505afa158015611973573d6000803e3d6000fd5b505050506040513d602081101561198957600080fd5b50516119965790506118da565b60105460408051634f9a8d8f60e01b815290516005926001600160a01b031691634f9a8d8f916004808301926020929190829003018186803b1580156119db57600080fd5b505afa1580156119ef573d6000803e3d6000fd5b505050506040513d6020811015611a0557600080fd5b505181611a0e57fe5b04601060009054906101000a90046001600160a01b03166001600160a01b0316639b03d7446040518163ffffffff1660e01b815260040160206040518083038186803b158015611a5d57600080fd5b505afa158015611a71573d6000803e3d6000fd5b505050506040513d6020811015611a8757600080fd5b505160408051636c9230db60e01b815290513091636c9230db916004808301926020929190829003018186803b158015611ac057600080fd5b505afa158015611ad4573d6000803e3d6000fd5b505050506040513d6020811015611aea57600080fd5b50510311611b20576001600160a01b0383166000908152600a602052604090205460ff168180611b175750805b925050506118da565b92915050565b60105460408051634e9b426d60e01b81526001600160a01b03848116600483015291516060939290921691634e9b426d91602480820192600092909190829003018186803b1580156117ec57600080fd5b6001600160a01b03811660009081526009602052604081205460ff1615611ba0575060016118da565b611b2082612040565b600080611bb5856118df565b611bc457506000905080611d9a565b611bcd846118df565b611bdc57506000905080611d9a565b6000546001811115611cd35760105460408051630f29818d60e31b815290516000926001600160a01b03169163794c0c68916004808301926020929190829003018186803b158015611c2d57600080fd5b505afa158015611c41573d6000803e3d6000fd5b505050506040513d6020811015611c5757600080fd5b50516001600160a01b0388166000908152600d60209081526040808320848452825280832054600e9092528220549293509190828210611ca3576001850383830381611c9f57fe5b0490505b8460320283118015611cb7575080600a0283115b15611cce5760006001965096505050505050611d9a565b505050505b4380851115611cea57600080935093505050611d9a565b60648082118015611cfc575080820386105b15611d105760008094509450505050611d9a565b6001600160a01b03871660009081526003602090815260408083208984529091528120805490915b81811015611d8b578a6001600160a01b0316838281548110611d5657fe5b6000918252602090912001546001600160a01b03161415611d835760008097509750505050505050611d9a565b600101611d38565b50600160009650965050505050505b935093915050565b600a6020526000908152604090205460ff1681565b6001600160a01b0381166000908152600660209081526040808320548151636c9230db60e01b8152915190923092636c9230db9260048083019392829003018186803b158015611e0657600080fd5b505afa158015611e1a573d6000803e3d6000fd5b505050506040513d6020811015611e3057600080fd5b5051111592915050565b6001600160a01b0381166000908152600560209081526040808320548151636c9230db60e01b8152915190923092636c9230db9260048083019392829003018186803b158015611e0657600080fd5b60126020526000908152604090205481565b6011546001600160a01b031681565b6001600160a01b0382166000908152600360209081526040808320848452825291829020805483518184028101840190945280845260609392830182828015611f1c57602002820191906000526020600020905b81546001600160a01b03168152600190910190602001808311611efe575b5050505050905092915050565b60606000805480602002602001604051908101604052809291908181526020018280548015611783576020028201919060005260206000209081546001600160a01b03168152600190910190602001808311611765575050505050905090565b60076020526000908152604090205481565b600c546001600160a01b031681565b600e6020526000908152604090205481565b6010546001600160a01b031681565b60606001805480602002602001604051908101604052809291908181526020018280548015611783576020028201919060005260206000209081546001600160a01b03168152600190910190602001808311611765575050505050905090565b60096020526000908152604090205460ff1681565b6000805b60015481101561208c576001818154811061205b57fe5b6000918252602090912001546001600160a01b03848116911614156120845760019150506118da565b600101612044565b50600092915050565b60005b82518110156120e7576120be8382815181106120b057fe5b6020026020010151836129c7565b156120df576120df8382815181106120d257fe5b6020026020010151612b92565b600101612098565b505050565b6001600160a01b038216612147576040805162461bcd60e51b815260206004820152601960248201527f4d696e696e6720616464726573732063616e2774206265203000000000000000604482015290519081900360640190fd5b6001600160a01b0381166121a2576040805162461bcd60e51b815260206004820152601a60248201527f5374616b696e6720616464726573732063616e27742062652030000000000000604482015290519081900360640190fd5b806001600160a01b0316826001600160a01b031614156121f35760405162461bcd60e51b815260040180806020018281038252603481526020018061310c6034913960400191505060405180910390fd5b6001600160a01b038181166000908152600b6020526040902054161561224a5760405162461bcd60e51b815260040180806020018281038252602d8152602001806130df602d913960400191505060405180910390fd5b6001600160a01b038281166000908152600b602052604090205416156122a15760405162461bcd60e51b815260040180806020018281038252602c815260200180612ef8602c913960400191505060405180910390fd5b6001600160a01b038181166000908152600f602052604090205416156122f85760405162461bcd60e51b815260040180806020018281038252602c815260200180612f24602c913960400191505060405180910390fd5b6001600160a01b038281166000908152600f6020526040902054161561234f5760405162461bcd60e51b815260040180806020018281038252602b815260200180612f50602b913960400191505060405180910390fd5b6001600160a01b039081166000818152600b602090815260408083208054959096166001600160a01b03199586168117909655948252600f90529290922080549091169091179055565b7fb53127684a568b3173ae13b9f8a6016e243e63b6e8ee1178d6a717850b5d61035490565b6000808383816123ca57fe5b0690506000805b8282116123fd578681815181106123e457fe5b60200260200101518201915080806001019150506123d1565b600019019695505050505050565b61241760016000612e2b565b80516126085760005b6000548110156125b057600080828154811061243857fe5b60009182526020808320909101546001600160a01b03908116808452600f835260409384902054601054855163a711e6a160e01b81529184166004830181905295519296509092169263a711e6a19260248082019391829003018186803b1580156124a257600080fd5b505afa1580156124b6573d6000803e3d6000fd5b505050506040513d60208110156124cc57600080fd5b5051801561255657506010546040805162e9ab0360e81b81526001600160a01b038481166004830181905260248301529151919092169163e9ab0300916044808301926020929190829003018186803b15801561252857600080fd5b505afa15801561253c573d6000803e3d6000fd5b505050506040513d602081101561255257600080fd5b5051155b156125a6576001805480820182556000919091527fb10e2d527612073b26eecdfd717e6a320cf44b4afac2b0732d9fcbe2b7fa0cf60180546001600160a01b0319166001600160a01b0384161790555b5050600101612420565b50600154612603576001600080815481106125c757fe5b60009182526020808320909101548354600181018555938352912090910180546001600160a01b0319166001600160a01b039092169190911790555b611315565b60005b815181101561090a576001600b600084848151811061262657fe5b6020908102919091018101516001600160a01b0390811683528282019390935260409091016000908120548454600181810187559583529290912090910180546001600160a01b031916919092161790550161260b565b612686816118df565b61268f57611315565b60105460408051630f29818d60e31b815290516000926001600160a01b03169163794c0c68916004808301926020929190829003018186803b1580156126d457600080fd5b505afa1580156126e8573d6000803e3d6000fd5b505050506040513d60208110156126fe57600080fd5b50516001600160a01b0383166000908152600d6020908152604080832093835292815282822080546001908101909155600e909152919020805490910190555050565b60008261275057506000611b20565b8282028284828161275d57fe5b041461276857600080fd5b9392505050565b60025460005b818110156127cc576000600a60006002848154811061279057fe5b6000918252602080832091909101546001600160a01b031683528201929092526040019020805460ff1916911515919091179055600101612775565b505060008054905b8181101561282a576001600a60008084815481106127ee57fe5b6000918252602080832091909101546001600160a01b031683528201929092526040019020805460ff19169115159190911790556001016127d4565b600080546120e791600291612e49565b606060008080548060200260200160405190810160405280929190818152602001828054801561289357602002820191906000526020600020905b81546001600160a01b03168152600190910190602001808311612875575b50505050509150600090505b81518110156128f4576000600960008484815181106128ba57fe5b6020908102919091018101516001600160a01b03168252810191909152604001600020805460ff191691151591909117905560010161289f565b6001805461290491600091612e49565b50600080548060200260200160405190810160405280929190818152602001828054801561295b57602002820191906000526020600020905b81546001600160a01b0316815260019091019060200180831161293d575b50505050509150600090505b815181101561090a57600082828151811061297e57fe5b6020908102919091018101516001600160a01b03166000908152600982526040808220805460ff1916600190811790915560129093529020805482019055919091019050612967565b6000806129d384611e3a565b905060006129df612c6d565b6001600160a01b038616600090815260046020908152604080832080546001019055600582528083208490556007909152902085905590508115612a2857600092505050611b20565b6001600160a01b038581166000908152600660209081526040808320859055600f909152808220546010548251631dbe84a360e11b815291851660048301819052925192941692633b7d09469260248084019382900301818387803b158015612a9057600080fd5b505af1158015612aa4573d6000803e3d6000fd5b50506000549150506001811415612ac2576000945050505050611b20565b60005b81811015612b8457876001600160a01b031660008281548110612ae457fe5b6000918252602090912001546001600160a01b03161415612b7c5760006001830381548110612b0f57fe5b600091825260208220015481546001600160a01b03909116919083908110612b3357fe5b6000918252602082200180546001600160a01b0319166001600160a01b039390931692909217909155805490612b6d906000198301612e99565b50600195505050505050611b20565b600101612ac5565b506000979650505050505050565b60105460408051630f29818d60e31b815290516000926001600160a01b03169163794c0c68916004808301926020929190829003018186803b158015612bd757600080fd5b505afa158015612beb573d6000803e3d6000fd5b505050506040513d6020811015612c0157600080fd5b50516000818152600e60209081526040808320546001600160a01b0387168452600d835281842085855290925282208054929055919250808210612c59576000838152600e6020526040902080548290039055611725565b50506000908152600e602052604081205550565b600080306001600160a01b0316636c9230db6040518163ffffffff1660e01b815260040160206040518083038186803b158015612ca957600080fd5b505afa158015612cbd573d6000803e3d6000fd5b505050506040513d6020811015612cd357600080fd5b505160105460408051631171ecc360e11b81529051929350600092612d5e9285926001600160a01b03909116916322e3d98691600480820192602092909190829003018186803b158015612d2657600080fd5b505afa158015612d3a573d6000803e3d6000fd5b505050506040513d6020811015612d5057600080fd5b50519063ffffffff612e0416565b9050612dfd81612df1601060009054906101000a90046001600160a01b03166001600160a01b0316634f9a8d8f6040518163ffffffff1660e01b815260040160206040518083038186803b158015612db557600080fd5b505afa158015612dc9573d6000803e3d6000fd5b505050506040513d6020811015612ddf57600080fd5b50518590600c0263ffffffff612e1916565b9063ffffffff612e1916565b9250505090565b600082821115612e1357600080fd5b50900390565b60008282018381101561276857600080fd5b50805460008255906000526020600020908101906113159190612eb9565b828054828255906000526020600020908101928215612e895760005260206000209182015b82811115612e89578254825591600101919060010190612e6e565b50612e95929150612ed3565b5090565b8154818355818111156120e7576000838152602090206120e79181019083015b6109da91905b80821115612e955760008155600101612ebf565b6109da91905b80821115612e955780546001600160a01b0319168155600101612ed956fe4d696e696e67206164647265737320616c726561647920757365642061732061207374616b696e67206f6e655374616b696e67206164647265737320616c726561647920757365642061732061206d696e696e67206f6e654d696e696e67206164647265737320616c726561647920757365642061732061206d696e696e67206f6e6552616e646f6d20636f6e747261637420616464726573732063616e277420626520307830426c6f636b52657761726420636f6e747261637420616464726573732063616e27742062652030783056616c696461746f7253657420636f6e747261637420697320616c726561647920696e697469616c697a65644d7573742070726f7669646520696e697469616c206d696e696e67206164647265737365734b657947656e486973746f727920636f6e747261637420616464726573732063616e2774206265203078304d7573742070726f76696465207468652073616d6520616d6f756e74206f66206d696e696e672f7374616b696e67206164647265737365735374616b696e6720636f6e747261637420616464726573732063616e27742062652030783056616c696461746f725365743a20496e697469616c697a6174696f6e206f6e6c79206f6e2067656e6573697320626c6f636b206f722062792061646d696e5374616b696e67206164647265737320616c726561647920757365642061732061207374616b696e67206f6e654d696e696e6720616464726573732063616e6e6f74206265207468652073616d6520617320746865207374616b696e67206f6e65a265627a7a72315820734c0da9152a6bb97cabaa8e871c99eb8cefbdc8295d29928d2b18c7b8fe845e64736f6c63430005100032",
  "source": "pragma solidity ^0.5.16;\n\nimport \"./interfaces/IBlockRewardHbbft.sol\";\nimport \"./interfaces/IKeyGenHistory.sol\";\nimport \"./interfaces/IRandomHbbft.sol\";\nimport \"./interfaces/IStakingHbbft.sol\";\nimport \"./interfaces/IValidatorSetHbbft.sol\";\nimport \"./upgradeability/UpgradeabilityAdmin.sol\";\nimport \"./libs/SafeMath.sol\";\n\n\n/// @dev Stores the current validator set and contains the logic for choosing new validators\n/// before each staking epoch. The logic uses a random seed generated and stored by the `RandomHbbft` contract.\ncontract ValidatorSetHbbft is UpgradeabilityAdmin, IValidatorSetHbbft {\n    using SafeMath for uint256;\n\n    // =============================================== Storage ========================================================\n\n    // WARNING: since this contract is upgradeable, do not remove\n    // existing storage variables and do not change their types!\n\n    address[] internal _currentValidators;\n    address[] internal _pendingValidators;\n    address[] internal _previousValidators;\n\n    /// @dev Stores the validators that have reported the specific validator as malicious for the specified epoch.\n    mapping(address => mapping(uint256 => address[])) internal _maliceReportedForBlock;\n\n    /// @dev How many times a given mining address was banned.\n    mapping(address => uint256) public banCounter;\n\n    /// @dev Returns the time when the ban will be lifted for the specified mining address.\n    mapping(address => uint256) public bannedUntil;\n\n    /// @dev Returns the timestamp after which the ban will be lifted for delegators\n    /// of the specified pool (mining address).\n    mapping(address => uint256) public bannedDelegatorsUntil;\n\n    /// @dev The reason for the latest ban of the specified mining address. See the `_removeMaliciousValidator`\n    /// internal function description for the list of possible reasons.\n    mapping(address => bytes32) public banReason;\n\n    /// @dev The address of the `BlockRewardHbbft` contract.\n    address public blockRewardContract;\n\n    /// @dev A boolean flag indicating whether the specified mining address is in the current validator set.\n    /// See the `getValidators` getter.\n    mapping(address => bool) public isValidator;\n\n    /// @dev A boolean flag indicating whether the specified mining address was a validator in the previous set.\n    /// See the `getPreviousValidators` getter.\n    mapping(address => bool) public isValidatorPrevious;\n\n    /// @dev A mining address bound to a specified staking address.\n    /// See the `_setStakingAddress` internal function.\n    mapping(address => address) public miningByStakingAddress;\n\n    /// @dev The `RandomHbbft` contract address.\n    address public randomContract;\n\n    /// @dev The number of times the specified validator (mining address) reported misbehaviors during the specified\n    /// staking epoch. Used by the `reportMaliciousCallable` getter and `reportMalicious` function to determine\n    /// whether a validator reported too often.\n    mapping(address => mapping(uint256 => uint256)) public reportingCounter;\n\n    /// @dev How many times all validators reported misbehaviors during the specified staking epoch.\n    /// Used by the `reportMaliciousCallable` getter and `reportMalicious` function to determine\n    /// whether a validator reported too often.\n    mapping(uint256 => uint256) public reportingCounterTotal;\n\n    /// @dev A staking address bound to a specified mining address.\n    /// See the `_setStakingAddress` internal function.\n    mapping(address => address) public stakingByMiningAddress;\n\n    /// @dev The `StakingHbbft` contract address.\n    IStakingHbbft public stakingContract;\n\n    /// @dev The `KeyGenHistory` contract address.\n    IKeyGenHistory public keyGenHistoryContract;\n\n    /// @dev How many times the given mining address has become a validator.\n    mapping(address => uint256) public validatorCounter;\n\n    // ============================================== Constants =======================================================\n\n    /// @dev The max number of validators.\n    uint256 public constant MAX_VALIDATORS = 25;\n\n    // ================================================ Events ========================================================\n\n    /// @dev Emitted by the `reportMalicious` function to signal that a specified validator reported\n    /// misbehavior by a specified malicious validator at a specified block number.\n    /// @param reportingValidator The mining address of the reporting validator.\n    /// @param maliciousValidator The mining address of the malicious validator.\n    /// @param blockNumber The block number at which the `maliciousValidator` misbehaved.\n    event ReportedMalicious(address reportingValidator, address maliciousValidator, uint256 blockNumber);\n\n    // ============================================== Modifiers =======================================================\n\n    /// @dev Ensures the `initialize` function was called before.\n    modifier onlyInitialized {\n        require(isInitialized(), \"ValidatorSet: not initialized\");\n        _;\n    }\n\n    /// @dev Ensures the caller is the BlockRewardHbbft contract address.\n    modifier onlyBlockRewardContract() {\n        require(msg.sender == blockRewardContract, \"Only BlockReward contract\");\n        _;\n    }\n\n    /// @dev Ensures the caller is the RandomHbbft contract address.\n    modifier onlyRandomContract() {\n        require(msg.sender == randomContract,\"Only Random Contract\");\n        _;\n    }\n\n    /// @dev Ensures the caller is the StakingHbbft contract address.\n    modifier onlyStakingContract() {\n        require(msg.sender == address(stakingContract),\"Only Staking Contract\");\n        _;\n    }\n\n    /// @dev Ensures the caller is the SYSTEM_ADDRESS. See https://wiki.parity.io/Validator-Set.html\n    modifier onlySystem() {\n        require(msg.sender == 0xffffFFFfFFffffffffffffffFfFFFfffFFFfFFfE, \"Only System\");\n        _;\n    }\n\n    /// @dev Returns the current timestamp.\n    function getCurrentTimestamp()\n    external\n    view\n    returns(uint256) {\n        return block.timestamp;\n    }\n\n    // function getInfo()\n    // public\n    // view \n    // returns (address sender, address admin) {\n    //     return (msg.sender, _admin());\n    // }\n\n    // =============================================== Setters ========================================================\n\n    /// @dev Initializes the network parameters. Used by the\n    /// constructor of the `InitializerHbbft` contract.\n    /// @param _blockRewardContract The address of the `BlockRewardHbbft` contract.\n    /// @param _randomContract The address of the `RandomHbbft` contract.\n    /// @param _stakingContract The address of the `StakingHbbft` contract.\n    /// @param _keyGenHistoryContract The address of the `KeyGenHistory` contract.\n    /// @param _initialMiningAddresses The array of initial validators' mining addresses.\n    /// @param _initialStakingAddresses The array of initial validators' staking addresses.\n    function initialize(\n        address _blockRewardContract,\n        address _randomContract,\n        address _stakingContract,\n        address _keyGenHistoryContract,\n        address[] calldata _initialMiningAddresses,\n        address[] calldata _initialStakingAddresses\n    ) external {\n        require(msg.sender == _admin() || tx.origin ==  _admin() || address(0) ==  _admin() || block.number == 0, \n             \"ValidatorSet: Initialization only on genesis block or by admin\");\n        require(!isInitialized(), \"ValidatorSet contract is already initialized\");\n        require(_blockRewardContract != address(0), \"BlockReward contract address can't be 0x0\");\n        require(_randomContract != address(0), \"Random contract address can't be 0x0\");\n        require(_stakingContract != address(0), \"Staking contract address can't be 0x0\");\n        require(_keyGenHistoryContract != address(0), \"KeyGenHistory contract address can't be 0x0\");\n        require(_initialMiningAddresses.length > 0, \"Must provide initial mining addresses\");\n        require(_initialMiningAddresses.length == _initialStakingAddresses.length,\n            \"Must provide the same amount of mining/staking addresses\");\n\n        blockRewardContract = _blockRewardContract;\n        randomContract = _randomContract;\n        stakingContract = IStakingHbbft(_stakingContract);\n        keyGenHistoryContract = IKeyGenHistory(_keyGenHistoryContract);\n\n        // Add initial validators to the `_currentValidators` array\n        for (uint256 i = 0; i < _initialMiningAddresses.length; i++) {\n            address miningAddress = _initialMiningAddresses[i];\n            _currentValidators.push(miningAddress);\n            // _pendingValidators.push(miningAddress);\n            isValidator[miningAddress] = true;\n            validatorCounter[miningAddress]++;\n            _setStakingAddress(miningAddress, _initialStakingAddresses[i]);\n        }\n    }\n\n      /// @dev Called by the system when a pending validator set is ready to be activated.\n    /// Only valid when msg.sender == SUPER_USER (EIP96, 2**160 - 2).\n    /// After this function is called, the `getValidators` getter returns the new validator set.\n    /// If this function finalizes a new validator set formed by the `newValidatorSet` function,\n    /// an old validator set is also stored and can be read by the `getPreviousValidators` getter.\n    function finalizeChange()\n    external\n    onlyBlockRewardContract {\n\n        //require(_pendingValidators.length != 0,\n        //    \"DEBUG ASSERT: no pending Validators to finalize change.\");\n\n        //in the case noone staked yet, the system keeps the current validator set.\n        //maybe do more checks here ?\n        //at least as debug asserts ?\n\n        if (_pendingValidators.length != 0) {\n\n            // Apply a new validator set formed by the `newValidatorSet` function\n            _savePreviousValidators();\n            _finalizeNewValidators();\n        }\n\n        // new epoch starts\n        stakingContract.incrementStakingEpoch();\n        delete _pendingValidators;\n        stakingContract.setStakingEpochStartTime(this.getCurrentTimestamp());\n\n    }\n\n    /// @dev Implements the logic which forms a new validator set. If the number of active pools\n    /// is greater than MAX_VALIDATORS, the logic chooses the validators randomly using a random seed generated and\n    /// stored by the `RandomHbbft` contract.\n    /// Automatically called by the `BlockRewardHbbft.reward` function at the latest block of the staking epoch.\n    function newValidatorSet()\n    external\n    onlyBlockRewardContract {\n        address[] memory poolsToBeElected = stakingContract.getPoolsToBeElected();\n    \n        // Choose new validators\n        if (poolsToBeElected.length > MAX_VALIDATORS) {\n\n            //todo: in HBBFT this can be the blockhash ?!\n            uint256 randomNumber = IRandomHbbft(randomContract).currentSeed();\n\n            (uint256[] memory likelihood, uint256 likelihoodSum) = stakingContract.getPoolsLikelihood();\n\n            if (likelihood.length > 0 && likelihoodSum > 0) {\n                address[] memory newValidators = new address[](MAX_VALIDATORS);\n\n                uint256 poolsToBeElectedLength = poolsToBeElected.length;\n                for (uint256 i = 0; i < newValidators.length; i++) {\n                    randomNumber = uint256(keccak256(abi.encode(randomNumber)));\n                    uint256 randomPoolIndex = _getRandomIndex(likelihood, likelihoodSum, randomNumber);\n                    newValidators[i] = poolsToBeElected[randomPoolIndex];\n                    likelihoodSum -= likelihood[randomPoolIndex];\n                    poolsToBeElectedLength--;\n                    poolsToBeElected[randomPoolIndex] = poolsToBeElected[poolsToBeElectedLength];\n                    likelihood[randomPoolIndex] = likelihood[poolsToBeElectedLength];\n                }\n\n                _setPendingValidators(newValidators);\n            }\n        } else {\n            _setPendingValidators(poolsToBeElected);\n        }\n        \n        // clear previousValidator KeyGenHistory state\n        keyGenHistoryContract.clearPrevKeyGenState(_currentValidators);\n\n        if (poolsToBeElected.length != 0) {\n            // Remove pools marked as `to be removed`\n            stakingContract.removePools();\n        }\n    }\n\n    /// @dev Removes malicious validators.\n    /// Called by the the Hbbft engine when a validator has been inactive for a long period.\n    /// @param _miningAddresses The mining addresses of the malicious validators.\n    function removeMaliciousValidators(address[] calldata _miningAddresses)\n    external\n    onlySystem {\n        _removeMaliciousValidators(_miningAddresses, \"inactive\");\n    }\n\n    /// @dev Reports that the malicious validator misbehaved at the specified block.\n    /// Called by the node of each honest validator after the specified validator misbehaved.\n    /// See https://wiki.parity.io/Validator-Set.html#reporting-contract\n    /// Can only be called when the `reportMaliciousCallable` getter returns `true`.\n    /// @param _maliciousMiningAddress The mining address of the malicious validator.\n    /// @param _blockNumber The block number where the misbehavior was observed.\n    function reportMalicious(\n        address _maliciousMiningAddress,\n        uint256 _blockNumber\n    )\n    external\n    onlyInitialized {\n        address reportingMiningAddress = msg.sender;\n\n        _incrementReportingCounter(reportingMiningAddress);\n\n        (\n            bool callable,\n            bool removeReportingValidator\n        ) = reportMaliciousCallable(\n            reportingMiningAddress,\n            _maliciousMiningAddress,\n            _blockNumber\n        );\n\n        if (!callable) {\n            if (removeReportingValidator) {\n                // Reporting validator has been reporting too often, so\n                // treat them as a malicious as well (spam)\n                address[] memory miningAddresses = new address[](1);\n                miningAddresses[0] = reportingMiningAddress;\n                _removeMaliciousValidators(miningAddresses, \"spam\");\n            }\n            return;\n        }\n\n        address[] storage reportedValidators = _maliceReportedForBlock[_maliciousMiningAddress][_blockNumber];\n\n        reportedValidators.push(reportingMiningAddress);\n\n        emit ReportedMalicious(reportingMiningAddress, _maliciousMiningAddress, _blockNumber);\n\n        uint256 validatorsLength = _currentValidators.length;\n        bool remove;\n\n        if (validatorsLength > 3) {\n            // If more than 2/3 of validators reported about malicious validator\n            // for the same `blockNumber`\n            remove = reportedValidators.length.mul(3) > validatorsLength.mul(2);\n        } else {\n            // If more than 1/2 of validators reported about malicious validator\n            // for the same `blockNumber`\n            remove = reportedValidators.length.mul(2) > validatorsLength;\n        }\n\n        if (remove) {\n            address[] memory miningAddresses = new address[](1);\n            miningAddresses[0] = _maliciousMiningAddress;\n            _removeMaliciousValidators(miningAddresses, \"malicious\");\n        }\n    }\n\n    /// @dev Binds a mining address to the specified staking address. Called by the `StakingHbbft.addPool` function\n    /// when a user wants to become a candidate and creates a pool.\n    /// See also the `miningByStakingAddress` and `stakingByMiningAddress` public mappings.\n    /// @param _miningAddress The mining address of the newly created pool. Cannot be equal to the `_stakingAddress`\n    /// and should never be used as a pool before.\n    /// @param _stakingAddress The staking address of the newly created pool. Cannot be equal to the `_miningAddress`\n    /// and should never be used as a pool before.\n    function setStakingAddress(address _miningAddress, address _stakingAddress)\n    external\n    onlyStakingContract {\n        _setStakingAddress(_miningAddress, _stakingAddress);\n    }\n\n    // =============================================== Getters ========================================================\n\n    /// @dev Returns a boolean flag indicating whether delegators of the specified pool are currently banned.\n    /// A validator pool can be banned when they misbehave (see the `_removeMaliciousValidator` function).\n    /// @param _miningAddress The mining address of the pool.\n    function areDelegatorsBanned(address _miningAddress)\n    public\n    view\n    returns(bool) {\n        return this.getCurrentTimestamp() <= bannedDelegatorsUntil[_miningAddress];\n    }\n\n    /// @dev Returns the previous validator set (validators' mining addresses array).\n    /// The array is stored by the `finalizeChange` function\n    /// when a new staking epoch's validator set is finalized.\n    function getPreviousValidators()\n    public\n    view\n    returns(address[] memory) {\n        return _previousValidators;\n    }\n\n    /// @dev Returns the current array of pending validators i.e. waiting to be activated in the new epoch\n    /// The pending array is changed when a validator is removed as malicious\n    /// or the validator set is updated by the `newValidatorSet` function.\n    function getPendingValidators()\n    public\n    view\n    returns(address[] memory) {\n        return _pendingValidators;\n    }\n\n    /// @dev Returns the current validator set (an array of mining addresses)\n    /// which always matches the validator set kept in validator's node.\n    function getValidators()\n    public\n    view\n    returns(address[] memory) {\n        return _currentValidators;\n    }\n\n    /// @dev Returns a boolean flag indicating if the `initialize` function has been called.\n    function isInitialized() public view returns(bool) {\n        return blockRewardContract != address(0);\n    }\n\n    /// @dev Returns a boolean flag indicating whether the specified validator (mining address)\n    /// is able to call the `reportMalicious` function or whether the specified validator (mining address)\n    /// can be reported as malicious. This function also allows a validator to call the `reportMalicious`\n    /// function several blocks after ceasing to be a validator. This is possible if a\n    /// validator did not have the opportunity to call the `reportMalicious` function prior to the\n    /// engine calling the `finalizeChange` function.\n    /// @param _miningAddress The validator's mining address.\n    function isReportValidatorValid(address _miningAddress) public view returns(bool) {\n        bool isValid = isValidator[_miningAddress] && !isValidatorBanned(_miningAddress);\n        if (stakingContract.stakingEpoch() == 0) {\n            return isValid;\n        }\n        // TO DO: arbitrarily chosen period stakingFixedEpochDuration/5.\n        if (this.getCurrentTimestamp() - stakingContract.stakingEpochStartTime() \n            <= stakingContract.stakingFixedEpochDuration()/5) {\n            // The current validator set was finalized by the engine,\n            // but we should let the previous validators finish\n            // reporting malicious validator within a few blocks\n            bool previousValidator = isValidatorPrevious[_miningAddress];\n            return isValid || previousValidator;\n        }\n        return isValid;\n    }\n\n    /// @dev Returns a boolean flag indicating whether the specified mining address is currently banned.\n    /// A validator can be banned when they misbehave (see the `_removeMaliciousValidator` internal function).\n    /// @param _miningAddress The mining address.\n    function isValidatorBanned(address _miningAddress) public view returns(bool) {\n        return this.getCurrentTimestamp() <= bannedUntil[_miningAddress];\n    }\n\n    /// @dev Returns a boolean flag indicating whether the specified mining address is a validator\n    /// or is in the `_pendingValidators`.\n    /// Used by the `StakingHbbft.maxWithdrawAllowed` and `StakingHbbft.maxWithdrawOrderAllowed` getters.\n    /// @param _miningAddress The mining address.\n    function isValidatorOrPending(address _miningAddress)\n    public\n    view\n    returns(bool) {\n        if (isValidator[_miningAddress]) {\n            return true;\n        }\n\n        return isPendingValidator(_miningAddress);\n    }\n\n    /// @dev Returns a boolean flag indicating whether the specified mining address is a pending validator.\n    /// Used by the `isValidatorOrPending` and `KeyGenHistory.writeAck/Part` functions.\n    /// @param _miningAddress The mining address.\n    function isPendingValidator(address _miningAddress)\n    public\n    view\n    returns(bool) {\n\n        for (uint256 i = 0; i < _pendingValidators.length; i++) {\n            if (_miningAddress == _pendingValidators[i]) {\n                return true;\n            }\n        }\n\n        return false;\n    }\n\n    /// @dev Returns an array of the validators (their mining addresses) which reported that the specified malicious\n    /// validator misbehaved at the specified block.\n    /// @param _miningAddress The mining address of malicious validator.\n    /// @param _blockNumber The block number.\n    function maliceReportedForBlock(address _miningAddress, uint256 _blockNumber)\n    public\n    view\n    returns(address[] memory) {\n        return _maliceReportedForBlock[_miningAddress][_blockNumber];\n    }\n\n    /// @dev Returns whether the `reportMalicious` function can be called by the specified validator with the\n    /// given parameters. Used by the `reportMalicious` function and `TxPermission` contract. Also, returns\n    /// a boolean flag indicating whether the reporting validator should be removed as malicious due to\n    /// excessive reporting during the current staking epoch.\n    /// @param _reportingMiningAddress The mining address of the reporting validator which is calling\n    /// the `reportMalicious` function.\n    /// @param _maliciousMiningAddress The mining address of the malicious validator which is passed to\n    /// the `reportMalicious` function.\n    /// @param _blockNumber The block number which is passed to the `reportMalicious` function.\n    /// @return `bool callable` - The boolean flag indicating whether the `reportMalicious` function can be called at\n    /// the moment. `bool removeReportingValidator` - The boolean flag indicating whether the reporting validator\n    /// should be removed as malicious due to excessive reporting. This flag is only used by the `reportMalicious`\n    /// function.\n    function reportMaliciousCallable(\n        address _reportingMiningAddress,\n        address _maliciousMiningAddress,\n        uint256 _blockNumber\n    )\n    public\n    view\n    returns(bool callable, bool removeReportingValidator) {\n        if (!isReportValidatorValid(_reportingMiningAddress)) return (false, false);\n        if (!isReportValidatorValid(_maliciousMiningAddress)) return (false, false);\n\n        uint256 validatorsNumber = _currentValidators.length;\n\n        if (validatorsNumber > 1) {\n            uint256 currentStakingEpoch = stakingContract.stakingEpoch();\n            uint256 reportsNumber = reportingCounter[_reportingMiningAddress][currentStakingEpoch];\n            uint256 reportsTotalNumber = reportingCounterTotal[currentStakingEpoch];\n            uint256 averageReportsNumber = 0;\n\n            if (reportsTotalNumber >= reportsNumber) {\n                averageReportsNumber = (reportsTotalNumber - reportsNumber) / (validatorsNumber - 1);\n            }\n\n            if (reportsNumber > validatorsNumber * 50 && reportsNumber > averageReportsNumber * 10) {\n                return (false, true);\n            }\n        }\n\n        uint256 currentBlock = block.number; // TODO: _getCurrentBlockNumber(); Make it time based here ?\n\n        if (_blockNumber > currentBlock) return (false, false); // avoid reporting about future blocks\n\n        uint256 ancientBlocksLimit = 100; //TODO: needs to be afjusted for HBBFT specifications i.e. time\n        if (currentBlock > ancientBlocksLimit && _blockNumber < currentBlock - ancientBlocksLimit) {\n            return (false, false); // avoid reporting about ancient blocks\n        }\n\n        address[] storage reportedValidators = _maliceReportedForBlock[_maliciousMiningAddress][_blockNumber];\n\n        // Don't allow reporting validator to report about the same misbehavior more than once\n        uint256 length = reportedValidators.length;\n        for (uint256 m = 0; m < length; m++) {\n            if (reportedValidators[m] == _reportingMiningAddress) {\n                return (false, false);\n            }\n        }\n\n        return (true, false);\n    }\n\n    function publicKeyByStakingAddress(address stakingAddress) external view returns(bytes memory) {\n        return stakingContract.getPoolPublicKey(stakingAddress);\n    }\n\n    function getPublicKey(address miningAddress) external view returns(bytes memory) {\n        return stakingContract.getPoolPublicKey(stakingByMiningAddress[miningAddress]);\n    }\n\n    // ============================================== Internal ========================================================\n\n    /// @dev Updates the total reporting counter (see the `reportingCounterTotal` public mapping) for the current\n    /// staking epoch after the specified validator is removed as malicious. The `reportMaliciousCallable` getter\n    /// uses this counter for reporting checks so it must be up-to-date. Called by the `_removeMaliciousValidators`\n    /// internal function.\n    /// @param _miningAddress The mining address of the removed malicious validator.\n    function _clearReportingCounter(address _miningAddress)\n    internal {\n        uint256 currentStakingEpoch = stakingContract.stakingEpoch();\n        uint256 total = reportingCounterTotal[currentStakingEpoch];\n        uint256 counter = reportingCounter[_miningAddress][currentStakingEpoch];\n\n        reportingCounter[_miningAddress][currentStakingEpoch] = 0;\n\n        if (total >= counter) {\n            reportingCounterTotal[currentStakingEpoch] -= counter;\n        } else {\n            reportingCounterTotal[currentStakingEpoch] = 0;\n        }\n    }\n\n    /// @dev Sets a new validator set stored in `_pendingValidators` array.\n    /// Called by the `finalizeChange` function.\n    function _finalizeNewValidators()\n    internal {\n        address[] memory validators;\n        uint256 i;\n\n        validators = _currentValidators;\n        for (i = 0; i < validators.length; i++) {\n            isValidator[validators[i]] = false;\n        }\n\n        _currentValidators = _pendingValidators;\n\n        validators = _currentValidators;\n        for (i = 0; i < validators.length; i++) {\n            address miningAddress = validators[i];\n            isValidator[miningAddress] = true;\n            validatorCounter[miningAddress]++;\n        }\n    }\n\n    /// @dev Increments the reporting counter for the specified validator and the current staking epoch.\n    /// See the `reportingCounter` and `reportingCounterTotal` public mappings. Called by the `reportMalicious`\n    /// function when the validator reports a misbehavior.\n    /// @param _reportingMiningAddress The mining address of reporting validator.\n    function _incrementReportingCounter(address _reportingMiningAddress)\n    internal {\n        if (!isReportValidatorValid(_reportingMiningAddress)) return;\n        uint256 currentStakingEpoch = stakingContract.stakingEpoch();\n        reportingCounter[_reportingMiningAddress][currentStakingEpoch]++;\n        reportingCounterTotal[currentStakingEpoch]++;\n    }\n\n    /// @dev Removes the specified validator as malicious. Used by the `_removeMaliciousValidators` internal function.\n    /// @param _miningAddress The removed validator mining address.\n    /// @param _reason A short string of the reason why the mining address is treated as malicious:\n    /// \"inactive\" - the validator has not been contributing to block creation for sigificant period of time.\n    /// \"spam\" - the validator made a lot of `reportMalicious` callings compared with other validators.\n    /// \"malicious\" - the validator was reported as malicious by other validators with the `reportMalicious` function.\n    /// @return Returns `true` if the specified validator has been removed from the pending validator set.\n    /// Otherwise returns `false` (if the specified validator has already been removed or cannot be removed).\n    function _removeMaliciousValidator(address _miningAddress, bytes32 _reason)\n    internal\n    returns(bool) {\n\n        bool isBanned = isValidatorBanned(_miningAddress);\n        // Ban the malicious validator for at least the next 12 staking epochs\n        uint256 banUntil = _banUntil();\n\n        banCounter[_miningAddress]++;\n        bannedUntil[_miningAddress] = banUntil;\n        banReason[_miningAddress] = _reason;\n\n        if (isBanned) {\n            // The validator is already banned\n            return false;\n        } else {\n            bannedDelegatorsUntil[_miningAddress] = banUntil;\n        }\n\n        // Remove malicious validator from the `pools`\n        address stakingAddress = stakingByMiningAddress[_miningAddress];\n        stakingContract.removePool(stakingAddress);\n\n        // If the validator set has only one validator, don't remove it.\n        uint256 length = _currentValidators.length;\n        if (length == 1) {\n            return false;\n        }\n\n        for (uint256 i = 0; i < length; i++) {\n            if (_currentValidators[i] == _miningAddress) {\n                // Remove the malicious validator from `_pendingValidators`\n                _currentValidators[i] = _currentValidators[length - 1];\n                _currentValidators.length--;\n                return true;\n            }\n        }\n\n        return false;\n    }\n\n    /// @dev Removes the specified validators as malicious from the pending validator set. Does nothing if\n    /// the specified validators are already banned or don't exist in the pending validator set.\n    /// @param _miningAddresses The mining addresses of the malicious validators.\n    /// @param _reason A short string of the reason why the mining addresses are treated as malicious,\n    /// see the `_removeMaliciousValidator` internal function description for possible values.\n    function _removeMaliciousValidators(address[] memory _miningAddresses, bytes32 _reason) internal {\n        for (uint256 i = 0; i < _miningAddresses.length; i++) {\n            if (_removeMaliciousValidator(_miningAddresses[i], _reason)) {\n                // From this moment `getPendingValidators()` returns the new validator set\n                _clearReportingCounter(_miningAddresses[i]);\n            }\n        }\n    }\n\n    /// @dev Stores previous validators. Used by the `finalizeChange` function.\n    function _savePreviousValidators() internal {\n        uint256 length;\n        uint256 i;\n\n        // Save the previous validator set\n        length = _previousValidators.length;\n        for (i = 0; i < length; i++) {\n            isValidatorPrevious[_previousValidators[i]] = false;\n        }\n        length = _currentValidators.length;\n        for (i = 0; i < length; i++) {\n            isValidatorPrevious[_currentValidators[i]] = true;\n        }\n        _previousValidators = _currentValidators;\n    }\n\n    /// @dev Sets a new validator set as a pending.\n    /// Called by the `newValidatorSet` function.\n    /// @param _stakingAddresses The array of the new validators' staking addresses.\n    function _setPendingValidators(\n        address[] memory _stakingAddresses\n    ) internal {\n\n        // clear  the pending validators list first\n        delete _pendingValidators;\n\n        if (_stakingAddresses.length == 0) {\n            // If there are no `poolsToBeElected`, we remove the\n            // validators which want to exit from the validator set\n            for (uint256 i = 0; i < _currentValidators.length; i++) {\n                address pvMiningAddress = _currentValidators[i];\n                address pvStakingAddress = stakingByMiningAddress[pvMiningAddress];\n                if (\n                    stakingContract.isPoolActive(pvStakingAddress) &&\n                    stakingContract.orderedWithdrawAmount(pvStakingAddress, pvStakingAddress) == 0\n                ) {\n                    // The validator has an active pool and is not going to withdraw their\n                    // entire stake, so this validator doesn't want to exit from the validator set\n                    _pendingValidators.push(pvMiningAddress);\n                }   \n            }\n            if (_pendingValidators.length == 0) {\n                     _pendingValidators.push(_currentValidators[0]); // add at least on validator\n            }\n        } else {\n            \n            for (uint256 i = 0; i < _stakingAddresses.length; i++) {\n                _pendingValidators.push(miningByStakingAddress[_stakingAddresses[i]]);\n            }\n        }\n    }\n\n    /// @dev Binds a mining address to the specified staking address. Used by the `setStakingAddress` function.\n    /// See also the `miningByStakingAddress` and `stakingByMiningAddress` public mappings.\n    /// @param _miningAddress The mining address of the newly created pool. Cannot be equal to the `_stakingAddress`\n    /// and should never be used as a pool before.\n    /// @param _stakingAddress The staking address of the newly created pool. Cannot be equal to the `_miningAddress`\n    /// and should never be used as a pool before.\n    function _setStakingAddress(address _miningAddress, address _stakingAddress) internal {\n        require(_miningAddress != address(0), \"Mining address can't be 0\");\n        require(_stakingAddress != address(0), \"Staking address can't be 0\");\n        require(_miningAddress != _stakingAddress, \"Mining address cannot be the same as the staking one\");\n        require(miningByStakingAddress[_stakingAddress] == address(0), \"Staking address already used as a staking one\");\n        require(miningByStakingAddress[_miningAddress] == address(0), \"Mining address already used as a staking one\");\n        require(stakingByMiningAddress[_stakingAddress] == address(0), \"Staking address already used as a mining one\");\n        require(stakingByMiningAddress[_miningAddress] == address(0), \"Mining address already used as a mining one\");\n        miningByStakingAddress[_stakingAddress] = _miningAddress;\n        stakingByMiningAddress[_miningAddress] = _stakingAddress;\n    }\n\n    /// @dev Returns the future timestamp until which a validator is banned.\n    /// Used by the `_removeMaliciousValidator` internal function.\n    function _banUntil() internal view returns(uint256) {\n        uint256 currentTimestamp = this.getCurrentTimestamp();\n        uint256 ticksUntilEnd = stakingContract.stakingFixedEpochEndTime().sub(currentTimestamp);\n        // Ban for at least 12 full staking epochs: \n        // currentTimestampt + stakingFixedEpochDuration + remainingEpochDuration. \n        return currentTimestamp.add(12 * stakingContract.stakingFixedEpochDuration()).add(ticksUntilEnd);\n    }\n\n    /// @dev Returns an index of a pool in the `poolsToBeElected` array\n    /// (see the `StakingHbbft.getPoolsToBeElected` public getter)\n    /// by a random number and the corresponding probability coefficients.\n    /// Used by the `newValidatorSet` function.\n    /// @param _likelihood An array of probability coefficients.\n    /// @param _likelihoodSum A sum of probability coefficients.\n    /// @param _randomNumber A random number.\n    function _getRandomIndex(uint256[] memory _likelihood, uint256 _likelihoodSum, uint256 _randomNumber)\n        internal\n        pure\n        returns(uint256)\n    {\n        uint256 random = _randomNumber % _likelihoodSum;\n        uint256 sum = 0;\n        uint256 index = 0;\n        while (sum <= random) {\n            sum += _likelihood[index];\n            index++;\n        }\n        return index - 1;\n    }\n}\n",
  "sourcePath": "/home/sn/dmd/dmd-meta/hbbft-posdao-contracts/contracts/ValidatorSetHbbft.sol",
  "compiler": {
    "name": "solc",
    "version": "0.5.16+commit.9c3226ce.Emscripten.clang"
  },
  "schemaVersion": "3.0.8",
  "updatedAt": "2020-12-01T15:28:08.226Z",
  "devdoc": {
    "details": "Stores the current validator set and contains the logic for choosing new validators before each staking epoch. The logic uses a random seed generated and stored by the `RandomHbbft` contract.",
    "methods": {
      "areDelegatorsBanned(address)": {
        "details": "Returns a boolean flag indicating whether delegators of the specified pool are currently banned. A validator pool can be banned when they misbehave (see the `_removeMaliciousValidator` function).",
        "params": {
          "_miningAddress": "The mining address of the pool."
        }
      },
      "finalizeChange()": {
        "details": "Called by the system when a pending validator set is ready to be activated. Only valid when msg.sender == SUPER_USER (EIP96, 2**160 - 2). After this function is called, the `getValidators` getter returns the new validator set. If this function finalizes a new validator set formed by the `newValidatorSet` function, an old validator set is also stored and can be read by the `getPreviousValidators` getter."
      },
      "getCurrentTimestamp()": {
        "details": "Returns the current timestamp."
      },
      "getPendingValidators()": {
        "details": "Returns the current array of pending validators i.e. waiting to be activated in the new epoch The pending array is changed when a validator is removed as malicious or the validator set is updated by the `newValidatorSet` function."
      },
      "getPreviousValidators()": {
        "details": "Returns the previous validator set (validators' mining addresses array). The array is stored by the `finalizeChange` function when a new staking epoch's validator set is finalized."
      },
      "getValidators()": {
        "details": "Returns the current validator set (an array of mining addresses) which always matches the validator set kept in validator's node."
      },
      "initialize(address,address,address,address,address[],address[])": {
        "details": "Initializes the network parameters. Used by the constructor of the `InitializerHbbft` contract.",
        "params": {
          "_blockRewardContract": "The address of the `BlockRewardHbbft` contract.",
          "_initialMiningAddresses": "The array of initial validators' mining addresses.",
          "_initialStakingAddresses": "The array of initial validators' staking addresses.",
          "_keyGenHistoryContract": "The address of the `KeyGenHistory` contract.",
          "_randomContract": "The address of the `RandomHbbft` contract.",
          "_stakingContract": "The address of the `StakingHbbft` contract."
        }
      },
      "isInitialized()": {
        "details": "Returns a boolean flag indicating if the `initialize` function has been called."
      },
      "isPendingValidator(address)": {
        "details": "Returns a boolean flag indicating whether the specified mining address is a pending validator. Used by the `isValidatorOrPending` and `KeyGenHistory.writeAck/Part` functions.",
        "params": {
          "_miningAddress": "The mining address."
        }
      },
      "isReportValidatorValid(address)": {
        "details": "Returns a boolean flag indicating whether the specified validator (mining address) is able to call the `reportMalicious` function or whether the specified validator (mining address) can be reported as malicious. This function also allows a validator to call the `reportMalicious` function several blocks after ceasing to be a validator. This is possible if a validator did not have the opportunity to call the `reportMalicious` function prior to the engine calling the `finalizeChange` function.",
        "params": {
          "_miningAddress": "The validator's mining address."
        }
      },
      "isValidatorBanned(address)": {
        "details": "Returns a boolean flag indicating whether the specified mining address is currently banned. A validator can be banned when they misbehave (see the `_removeMaliciousValidator` internal function).",
        "params": {
          "_miningAddress": "The mining address."
        }
      },
      "isValidatorOrPending(address)": {
        "details": "Returns a boolean flag indicating whether the specified mining address is a validator or is in the `_pendingValidators`. Used by the `StakingHbbft.maxWithdrawAllowed` and `StakingHbbft.maxWithdrawOrderAllowed` getters.",
        "params": {
          "_miningAddress": "The mining address."
        }
      },
      "maliceReportedForBlock(address,uint256)": {
        "details": "Returns an array of the validators (their mining addresses) which reported that the specified malicious validator misbehaved at the specified block.",
        "params": {
          "_blockNumber": "The block number.",
          "_miningAddress": "The mining address of malicious validator."
        }
      },
      "newValidatorSet()": {
        "details": "Implements the logic which forms a new validator set. If the number of active pools is greater than MAX_VALIDATORS, the logic chooses the validators randomly using a random seed generated and stored by the `RandomHbbft` contract. Automatically called by the `BlockRewardHbbft.reward` function at the latest block of the staking epoch."
      },
      "removeMaliciousValidators(address[])": {
        "details": "Removes malicious validators. Called by the the Hbbft engine when a validator has been inactive for a long period.",
        "params": {
          "_miningAddresses": "The mining addresses of the malicious validators."
        }
      },
      "reportMalicious(address,uint256)": {
        "details": "Reports that the malicious validator misbehaved at the specified block. Called by the node of each honest validator after the specified validator misbehaved. See https://wiki.parity.io/Validator-Set.html#reporting-contract Can only be called when the `reportMaliciousCallable` getter returns `true`.",
        "params": {
          "_blockNumber": "The block number where the misbehavior was observed.",
          "_maliciousMiningAddress": "The mining address of the malicious validator."
        }
      },
      "reportMaliciousCallable(address,address,uint256)": {
        "details": "Returns whether the `reportMalicious` function can be called by the specified validator with the given parameters. Used by the `reportMalicious` function and `TxPermission` contract. Also, returns a boolean flag indicating whether the reporting validator should be removed as malicious due to excessive reporting during the current staking epoch.",
        "params": {
          "_blockNumber": "The block number which is passed to the `reportMalicious` function.",
          "_maliciousMiningAddress": "The mining address of the malicious validator which is passed to the `reportMalicious` function.",
          "_reportingMiningAddress": "The mining address of the reporting validator which is calling the `reportMalicious` function."
        },
        "return": "`bool callable` - The boolean flag indicating whether the `reportMalicious` function can be called at the moment. `bool removeReportingValidator` - The boolean flag indicating whether the reporting validator should be removed as malicious due to excessive reporting. This flag is only used by the `reportMalicious` function."
      },
      "setStakingAddress(address,address)": {
        "details": "Binds a mining address to the specified staking address. Called by the `StakingHbbft.addPool` function when a user wants to become a candidate and creates a pool. See also the `miningByStakingAddress` and `stakingByMiningAddress` public mappings.",
        "params": {
          "_miningAddress": "The mining address of the newly created pool. Cannot be equal to the `_stakingAddress` and should never be used as a pool before.",
          "_stakingAddress": "The staking address of the newly created pool. Cannot be equal to the `_miningAddress` and should never be used as a pool before."
        }
      }
    }
  },
  "userdoc": {
    "methods": {}
  }
}